S00F000052544F535F48482E73726563DE
S113000071C000008FC000008DC000008BC00000D4
S113001089C0000087C0000085C0000083C00000C4
S113002081C000007FC000007DC000007BC00000D4
S113003079C0000077C0000075C0000073C00000E4
S113004071C000006FC000006DC000006BC00000F4
S113005069C0000067C0000065C0000063C0000004
S113006061C000005FC000005DC000005BC0000014
S113007059C0000057C0000055C0000053C0000024
S113008051C000004FC000004DC000004BC0000034
S113009049C0000047C0000045C0000043C0000044
S11300A041C000003FC000003DC000003BC0000054
S11300B039C0000037C0000035C000008FC3000005
S11300C031C000002FC000002DC000002BC0000074
S11300D029C0000027C0000025C0000023C0000084
S11300E021C0000011241FBECFEFD1E2DEBFCDBF7F
S11300F000E00CBF12E0A0E0B2E0E2EAF4E100E0CC
S11301000BBF02C007900D92A633B107D9F728E0C0
S1130110A6E3B2E001C01D92AE34B207E1F70BD101
S11301200C944F0A6DCF8FEF84B915B8089585B933
S1130130089511B80895883070F490B1492F40950E
S113014021E030E0B90102C0660F771F8A95E2F71B
S1130150CB018423089580E008950F931F93522FB9
S11301608B019C010C52114021093109053D104CB1
S113017021403105D8F545504430C0F520E22093A4
S1130180C00028E12093C100440F4093C2005534BD
S113019031F4E2ECF0E020812062208307C05F3478
S11301A029F4E2ECF0E0208120632083DC01CB0120
S11301B0880F991FAA1FBB1F880F991FAA1FBB1F57
S11301C09C01AD01220F331F441F551F220F331F03
S11301D0441F551F60E074E284EF90E00E94DB0945
S11301E0215031093093C5002093C4001F910F9111
S11301F00895E0ECF0E0908195FFFDCF8093C60078
S11302000895CF93DF93EC018881882329F0219608
S1130210F0DF89918111FCCFDF91CF910895CF93C5
S1130220DF93CDB7DEB727970FB6F894DEBF0FBEC6
S1130230CDBF4AE0BE016F5F7F4F0E941C0ACE0112
S11302400196DFDF27960FB6F894DEBF0FBECDBF51
S1130250DF91CF91089580E06EDF8823E1F320E001
S113026048EE53E060E070E08091370290913802EC
S113027051D480913602882319F08150809336023C
S113028020E040E050E060E070E08091370290911F
S11302903802B4D320E048EE53E066E372E0809184
S11302A04C0890914D08AAD384E690E05DD7D3CF53
S11302B081E041DF8823E1F320E048EE53E060E091
S11302C070E0809137029091380224D480913602F4
S11302D08F5F8093360220E040E050E060E070E001
S11302E0809137029091380289D320E048EE53E0A0
S11302F066E372E080914C0890914D087FD384E6C8
S113030090E032D7D5CFCF93DF931F92CDB7DEB72E
S113031020E04FE057E2BE016F5F7F4F80914C08B1
S113032090914D08F7D318169CF7898100DF8981D5
S113033090E075DFEDCFF7DEFCDE2EE448E060E808
S113034075E280E090E009DF82E092E05ADF43E06A
S113035060E081E008D390933802809337020097DD
S113036031F020E040E050E060E070E047D340E04E
S113037061E08AE0F8D290934D0880934C08A12C58
S1130380B12CC12CD12CE12CF12C00E020E030E088
S113039045E550E064E272E08BE291E093D420E022
S11303A030E045E550E068E272E088E591E08AD407
S11303B020E030E045E550E06CE272E083E891E053
S11303C081D461D5FFCFFC010396928381832FEF03
S11303D03FEF3483238396838583908787831082BA
S11303E00895FC01118610860895CF93DF93FC01D4
S11303F0DB0121813281E9018A819B8113969C93DF
S11304008E9312978181928115969C938E93149763
S11304108A819B81EC017D836C83E9017B836A8300
S1130420728361831996FC93EE93189780818F5F92
S11304308083DF91CF910895CF93DF93EB014881BF
S113044059814F3F2FEF520731F4DC011796ED919C
S1130450FC91189717C0FC013396DC0115962D9179
S11304603C911697D9012D913C914217530750F0B6
S11304700280F381E02DA281B3812D913C9142173A
S11304805307B0F7A281B381BB83AA831596DC938B
S1130490CE931497FD83EC83D383C2839987888793
S11304A0FC0120812F5F2083DF91CF910895FC010F
S11304B0A281B3818481958115969C938E93149720
S11304C0A481B5818281938113969C938E93129714
S11304D0A085B18511968D919C911297E817F90723
S11304E031F48481958112969C938E931197118691
S11304F010868C9181508C93089531E1FC013083F6
S1130500319722E220833197A3E3A083319760835C
S1130510319770833197108231971082319760E858
S1130520608331971082319710823197108231970E
S113053062E06083319763E06083319764E06083B5
S1130540319765E06083319766E06083319767E0B7
S11305506083319768E06083319769E06083319705
S113056060E1608331973083319732E13083319792
S113057033E13083319734E13083319735E130838F
S1130580319736E13083319737E13083319738E161
S11305903083319739E13083319730E230833197BA
S11305A031E2308331972083319723E220833197DE
S11305B0408331975083319726E22083319727E295
S11305C02083319728E22083319729E220833197D1
S11305D020E32083319721E32083899708951092A3
S11305E0290189EF809328018BE080932101E3E7BF
S11305F0F0E0808182608083A0914A08B0914B082A
S1130600CD91CDBFDD91DEBFFF91EF91DF91CF9111
S1130610BF91AF919F918F917F916F915F914F9116
S11306203F912F911F910F91FF90EF90DF90CF900A
S1130630BF90AF909F908F907F906F905F904F90FE
S11306403F902F901F900F900CBE0F900BBE0F90F9
S11306500FBE0F90089581E008950F920FB6F8949D
S11306600F920BB60F920CB60F921F9211242F9279
S11306703F924F925F926F927F928F929F92AF922E
S1130680BF92CF92DF92EF92FF920F931F932F931B
S11306903F934F935F936F937F938F939F93AF9306
S11306A0BF93CF93DF93EF93FF93A0914A08B09148
S11306B04B080DB60D920EB60D9271D5A0914A0855
S11306C0B0914B08CD91CDBFDD91DEBFFF91EF918D
S11306D0DF91CF91BF91AF919F918F917F916F9156
S11306E05F914F913F912F911F910F91FF90EF9048
S11306F0DF90CF90BF90AF909F908F907F906F903E
S11307005F904F903F902F901F900F900CBE0F90D2
S11307100BBE0F900FBE0F9008950F920FB6F89472
S11307200F920BB60F920CB60F921F9211242F92B8
S11307303F924F925F926F927F928F929F92AF926D
S1130740BF92CF92DF92EF92FF920F931F932F935A
S11307503F934F935F936F937F938F939F93AF9345
S1130760BF93CF93DF93EF93FF93A0914A08B09187
S11307704B080DB60D920EB60D92B4D310D5A091C0
S11307804A08B0914B08CD91CDBFDD91DEBFFF91FA
S1130790EF91DF91CF91BF91AF919F918F917F9115
S11307A06F915F914F913F912F911F910F91FF9006
S11307B0EF90DF90CF90BF90AF909F908F907F90FD
S11307C06F905F904F903F902F901F900F900CBEB2
S11307D00F900BBE0F900FBE0F9008959EDF1895DB
S11307E0CF93DF93EC0178D32091390230913A0210
S11307F0C9018C0F9D1F8C3D45E0940758F42817C0
S1130800390758F4E901C55CDD4F90933A028093AF
S1130810390205C0C0E0D0E002C0C0E0D0E023D47B
S1130820CE01DF91CF9108950895CF93DF93EC012A
S11308308C8D882399F1411116C0482F50E08C818A
S11308409D81DBD52C8D8C819D81820F911D9D8393
S11308508C832A813B818217930700F188819981D7
S11308609D838C831BC0482F50E08E819F81C5D50A
S11308708C8D90E09195819591092E813F81280F6F
S1130880391F3F832E83488159812417350730F45B
S11308902A813B81820F931F9F838E838A8D8F5F72
S11308A08A8FDF91CF910895FC0180819181009717
S11308B099F0448D50E026813781240F351F37830A
S11308C02683A281B3812A173B0710F0978386837E
S11308D0CB016681778191C508950F931F93CF93C0
S11308E0DF93EC010FB6F8940F928E8D1816A4F4D2
S11308F08989811105C010C08989811104C00CC087
S11309008E010F5E1F4FC801D0D4811150D58E8D3A
S113091081508E8F181684F38FEF8E8F0F900FBE39
S11309200FB6F8940F928D8D1816A4F48885811152
S113093005C010C08885811104C00CC08E01085FF9
S11309401F4FC801B2D4811132D58D8D81508D8F46
S1130950181684F38FEF8D8F0F900FBEDF91CF9118
S11309601F910F910895CF92DF92EF92FF920F9310
S11309701F93CF93DF938823A9F1E62EF82E8FE1FE
S113098090E02EDFEC01892B79F1CE2CD12CFC9C4C
S11309908001FD9C100D1124C801019621DF99836B
S11309A088830097D1F09C01200F311F3B832A8359
S11309B01A8E9D838C830C191D09080F191F1F8320
S11309C00E83FB8EEC8E8FEF8D8F8E8FCE0108966B
S11309D0FADCCE014196F7DC07C0CE0125DFC0E08A
S11309E0D0E002C0C0E0D0E0CE01DF91CF911F91F2
S11309F00F91FF90EF90DF90CF9008959F92AF9268
S1130A00BF92CF92DF92EF92FF920F931F93CF93F7
S1130A10DF9300D01F921F92CDB7DEB78C016B011C
S1130A205D834C83922EB12CAA24A3947C0188E08C
S1130A30E80EF11C0FB6F8940F92F801928D838D95
S1130A40981790F4492DB601C801EFDEF8018189A9
S1130A50882331F0C801419628D4813009F4FDDDA2
S1130A600F900FBE81E045C08C819D81892B21F4BC
S1130A700F900FBE80E03DC0B11004C0CE010196BE
S1130A8055D4BA2C0F900FBE27D20FB6F8940F92FC
S1130A90F801858D8F3F09F4158EF801868D8F3FFF
S1130AA009F4168E0F900FBEBE016C5F7F4FCE010E
S1130AB0019647D4811119C00FB6F8940F92F8012A
S1130AC0928D0F900FBE838D98130BC06C817D8126
S1130AD0C701D1D3C80101DFC6D28111ABCFBDDDBF
S1130AE0A9CFC801FADEBFD2A5CFC801F6DEBBD2BA
S1130AF080E00F900F900F900F900F90DF91CF91A7
S1130B001F910F91FF90EF90DF90CF90BF90AF9027
S1130B109F9008959F92AF92BF92CF92DF92EF92EF
S1130B20FF920F931F93CF93DF9300D01F921F92D6
S1130B30CDB7DEB78C016B015D834C83922EB12C53
S1130B40AA24A3947C0181E1E80EF11C0FB6F89469
S1130B500F92F801828D882321F1E680F780B60197
S1130B60C801A2DE91100EC0F801828D8150828FDF
S1130B708085882391F0C801089697D3813069F461
S1130B806CDD0BC0F801F782E6828189882329F0A5
S1130B90C80141968AD3811160DD0F900FBE81E0B8
S1130BA044C08C819D81892B21F40F900FBE80E07D
S1130BB03CC0B11004C0CE010196B8D3BA2C0F903A
S1130BC00FBE8AD10FB6F8940F92F801858D8F3F2E
S1130BD009F4158EF801868D8F3F09F4168E0F9057
S1130BE00FBEBE016C5F7F4FCE010196AAD3811167
S1130BF018C00FB6F8940F92F801828D0F900FBEB3
S1130C0081110BC06C817D81C70135D3C80165DEBC
S1130C102AD281119BCF21DD99CFC8015EDE23D278
S1130C2095CFC8015ADE1FD280E00F900F900F902D
S1130C300F900F90DF91CF911F910F91FF90EF9044
S1130C40DF90CF90BF90AF909F900895C1E4D8E01B
S1130C5088818230E8F301DDFBCFCF93DF93EC0191
S1130C60E0914A08F0914B089383828380911F0896
S1130C7090912008C817D90760F460914A087091D0
S1130C804B0880912B0890912C086E5F7F4FD4DB2A
S1130C9016C060914A0870914B0880912D0890917C
S1130CA02E086E5F7F4FC8DB809100029091010295
S1130CB0C817D90720F4D0930102C0930002DF9132
S1130CC0CF9108954F925F926F927F928F929F92ED
S1130CD0AF92BF92CF92DF92EF92FF920F93CF9396
S1130CE0DF935C014B013A01290181E290E078DD58
S1130CF0EC01892B09F49CC0C114D10409F094C0FF
S1130D00C3016EDD988F8F8B009719F4CE018CDDB3
S1130D108FC0A30165EA70E079D3930121503109B2
S1130D208F89988D3C01620E731E48E050E0B40137
S1130D30CE01499672D318A21E8A6E0182E0C80EB3
S1130D40D11CC6014EDBCE010C964BDBD987C8877C
S1130D5081E090E09D878C87DB8BCA8BA201B50173
S1130D60C301CBDB99838883E114F10419F0F70103
S1130D70D183C0830FB6F8940F92809121088F5FBE
S1130D808093210880914A0890914B08892B49F45B
S1130D90D0934B08C0934A0880912108813081F494
S1130DA049C080911C0881110BC0E0914A08F09160
S1130DB04B088689081720F0D0934B08C0934A0843
S1130DC08E8990911E08981710F480931E089091B4
S1130DD017089F5F9093170890911D08981710F4B7
S1130DE080931D0890E09C01220F331F220F331FB4
S1130DF0220F331F820F931FB6018F5B974FF5DAD3
S1130E000F900FBE80911C08882351F0E0914A088E
S1130E10F0914B088689801728F41FDC81E023C0F9
S1130E2081E021C081E01FC0D88ECF8AC60171CF76
S1130E308FEF19C081E498E0C6DA88E398E0C3DA5A
S1130E408FE298E0C0DA82E298E0BDDA88E398E0C5
S1130E5090932E0880932D088FE298E090932C08AD
S1130E6080932B08ADCFDF91CF910F91FF90EF903E
S1130E70DF90CF90BF90AF909F908F907F906F90B6
S1130E805F904F900895AF92BF92CF92DF92EF920E
S1130E90FF920F93A12CB12CC12CD12CE12CF12C5D
S1130EA000E020E030E045E550E060E372E086E2F7
S1130EB096E008DF813041F4F89480931C08109286
S1130EC0200810921F088BDB0F91FF90EF90DF90AA
S1130ED0CF90BF90AF90089580911B088F5F80934F
S1130EE01B0808950F931F93CF93DF9380911B08E2
S1130EF08111AFC080911F089091200801969093B2
S1130F00200880931F0880911F0890912008892B46
S1130F1099F580912D0890912E0820912B083091FD
S1130F202C0830932E0820932D0890932C0880933E
S1130F302B08809118088F5F80931808E0912D0882
S1130F40F0912E088081811107C08FEF9FEF90935D
S1130F5001028093000210C0E0912D08F0912E0848
S1130F600580F681E02D0680F781E02D8281938152
S1130F70909301028093000220911F083091200871
S1130F8080910002909101022817390708F466C085
S1130F90E0912D08F0912E088081882399F0E0914A
S1130FA02D08F0912E080580F681E02DC681D781A9
S1130FB08A819B8120911F083091200828173907C6
S1130FC0F8F419C08FEF9FEF909301028093000211
S1130FD045C0E0912D08F0912E080580F681E02DA2
S1130FE0C681D7818A819B8120911F083091200876
S1130FF02817390728F490930102809300022EC029
S11310008E010E5F1F4FC80152DA8C899D89892B8E
S113101019F0CE010C964BDA8E8990911D08981721
S113102010F480931D0890E09C01220F331F220FBF
S1131030331F220F331F820F931FB8018F5B974F0B
S1131040D4D9E0912D08F0912E0880818111C1CF6F
S1131050B9CF80911A088F5F80931A08DF91CF91DE
S11310601F910F910895CF92DF92EF92FF920F9309
S11310701F93CF93DF930FB6F8940F9280911B08C0
S1131080815080931B0880911B0881115FC080915F
S1131090210881112FC05DC0D7011596ED91FC91F7
S11310A01697C681D781CE010C9601DA8E010E5FA8
S11310B01F4FC801FCD98E8990911D08981710F410
S11310C080931D0890E09C01220F331F220F331FD1
S11310D0220F331F820F931FB8018F5B974F85D95F
S11310E0E0914A08F0914B089E898689981758F038
S11310F0DC2C09C0D12C0F2EF2E2EF2EF8E0FF2EEB
S1131100F02DCC24C394F70180818111C5CF809147
S11311101A08882379F080911A08882391F0E2DE76
S113112080911A08815080931A0880911A088111BD
S1131130F6CF07C0F1E0DF1621F080911908813065
S113114039F41092190889DA81E003C080E001C003
S113115080E00F900FBEDF91CF911F910F91FF9010
S1131160EF90DF90CF900895CF93DF93EC01892B1C
S113117091F0B2DE80911F0890912008C80FD91F0A
S113118080914A0890914B08029691D9CE0165DD71
S11311906ADF811101C061DADF91CF9108958091F6
S11311A01B08811113C080911D0890E0FC01EE0F13
S11311B0FF1FEE0FFF1FEE0FFF1F8E0F9F1FFC017F
S11311C0EF5BF74F8081882329F01BC081E0809377
S11311D01908089580911D08815080931D088091FD
S11311E01D0890E0FC01EE0FFF1FEE0FFF1FEE0F36
S11311F0FF1F8E0F9F1FFC01EF5BF74F8081882339
S113120049F380911D0890E09C01220F331F220FA7
S1131210331F220F331F280F391FD901AF5BB74F7C
S11312201196ED91FC9112970280F381E02D1296B4
S1131230FC93EE9311972C5B374FE217F30729F4D5
S113124022813381FD0132832183FC01EE0FFF1FD4
S1131250EE0FFF1FEE0FFF1F8E0F9F1FFC01EF5BB2
S1131260F74F0180F281E02D8681978190934B089E
S113127080934A080895CF93DF93EB0160914A0865
S113128070914B08645F7F4FD7D880914A08909142
S11312904B0802960CD980911F08909120088C0F5E
S11312A09D1FDBDCDF91CF9108950F931F93CF93A4
S11312B0DF93DC011596ED91FC911697C681D781D9
S11312C08E01045F1F4FC801F2D880911B08811161
S11312D01AC00A501109C801EAD88E8990911D08D4
S11312E0981710F480931D0890E09C01220F331F7F
S11312F0220F331F220F331F820F931FB8018F5BFE
S1131300974F73D804C0B80182E298E06ED8E09198
S11313104A08F0914B0881E02E899689291708F430
S113132080E0DF91CF911F910F91089520911808CB
S1131330FC01208320911F083091200832832183EF
S11313400895FC010FB6F8940F92809118089081CB
S1131350981749F080911F089091200821813281CB
S113136082179307F0F480911F089091200841811F
S11313705281DB012D913C911197841B950B8217AF
S1131380930788F4CF01E0911F08F0912008BF0172
S1131390641B750B261B370B2D933C93C7DF80E032
S11313A003C081E001C081E00F900FBE089581E089
S11313B0809319080895A1E21A2EAA1BBB1BFD01F4
S11313C00DC0AA1FBB1FEE1FFF1FA217B307E40720
S11313D0F50720F0A21BB30BE40BF50B661F771F78
S11313E0881F991F1A9469F7609570958095909558
S11313F09B01AC01BD01CF010895FB01DC0102C0DA
S113140001900D9241505040D8F70895DC0101C07D
S11314106D9341505040E0F70895FB01DC014150C9
S1131420504048F001900D920020C9F701C01D9270
S113143041505040E0F70895BB274A3031F49923D6
S113144022F4BDE2909581959F4F01C0BB27FB011B
S11314505527AA27880F991FAA1FA41710F0A41BA9
S113146083955051B9F7A05DAA3308F0A95DA19303
S1131470009779F7B111B1931192CB0100C0DC014F
S1131480FC01672F71917723E1F7329704C07C91B7
S11314906D9370836291AE17BF07C8F30895F894F3
S10514A0FFCF78
S11314A2FFFF54686973206973207468652073743C
S11314B2617274206F66206D61696E202D2048650B
S11314C26C6C6F0044454300494E4300535730004F
S10914D249444C450000F2
S9030000FC
