S0120000466C617070795F322E302E73726563B7
S113000072C000009EC000009CC000009AC00000A6
S113001098C00000CEC1000094C0000092C000004F
S113002090C000008EC000008CC000008AC0000098
S113003088C0000086C0000084C0000082C00000A8
S113004080C00000EDC100007CC000007AC0000048
S113005078C0000076C0000074C0000072C00000C8
S113006070C000006EC000006CC000006AC00000D8
S113007068C0000066C0000064C0000062C00000E8
S113008060C000005EC000005CC000005AC00000F8
S113009058C0000056C0000054C0000052C0000008
S11300A050C000004EC000004CC000004AC0000018
S11300B048C0000046C0000044C0000042C0000028
S11300C040C000003EC000003CC000003AC0000038
S11300D038C0000036C0000034C0000032C0000048
S11300E030C00000410211241FBECFEFD1E2DEBFB9
S11300F0CDBF00E00CBF12E0A0E0B2E0E4ECFAE017
S113010000E00BBF02C007900D92A431B107D9F7EC
S113011022E0A4E1B2E001C01D92A832B207E1F7E7
S113012010E0C3E7D0E000E005C021970109802F6B
S1130130FE018BD4C237D10780E00807B1F7E5D0C0
S1130140BFC45ECFCF92DF92EF92FF920F931F93C3
S1130150CF93DF93EC01CB01798368835B834A837C
S113016009871A872B873C871E861D86FA8AE98AA7
S113017020E530E0388F2F8BD88ACF862AE030E014
S11301803C8B2B8B76D269897A892F89388D620FC3
S1130190731F19D47A8F698FDF91CF911F910F91BB
S11301A0FF90EF90DF90CF900895EF92FF920F931E
S11301B01F93CF93DF93CDB7DEB7CB58D1090FB6DA
S11301C0F894DEBF0FBECDBF8C01EDB6FEB619822A
S11301D01A828FEF8B838FE190E09F838E8381E07F
S11301E0F8018087818D928D880F991F2DB73EB7B6
S11301F0281B390B0FB6F8943EBF0FBE2DBF8DB729
S11302009EB70196958384838CE690E09B878A87CA
S113021086E490E099878887FE013C969E012457E6
S11302203F4F80EC9FEF81939193E217F307D9F747
S1130230CE010896F80197838683BE016F5F7F4FD6
S11302408081918161D2F801268137816481758131
S113025040E050E08081918154D2F8018085882368
S113026071F0F801268137816481758140E050E0A6
S11302708081918146D2F80180858111F2CFF80105
S113028010860FB6F894FEBE0FBEEDBEC557DF4F05
S11302900FB6F894DEBF0FBECDBFDF91CF911F9193
S11302A00F91FF90EF900895E0ECF0E0908195FFBE
S11302B0FDCF8093C6000895CF93DF93EC0188812E
S11302C0882329F02196F0DF89918111FCCFDF91F9
S11302D0CF910895CF93DF93CDB7DEB727970FB6AD
S11302E0F894DEBF0FBECDBF4AE0BE016F5F7F4F03
S11302F0B4D3CE010196E0DF27960FB6F894DEBFA3
S11303000FBECDBFDF91CF910895CF93DF93CDB7CB
S1130310DEB7E2970FB6F894DEBF0FBECDBF80E222
S11303208093C00088E18093C10086E08093C2007E
S113033087E690E09093C5008093C40084E192E046
S1130340E3D280E092E0B8DFCE0101963AD31D8675
S11303501E868FEF8F878FE190E09B8B8A8B40EF17
S113036050E060E471E0CE014496B3D0CE014496EF
S11303700FD1BE01635F7F4FCE014496C5D10F2ECE
S1130380F2E3CF2ED12CF02D0F2EFEE1EF2EF12C27
S1130390F02D0AE210E020E030E044E152E0BE013A
S11303A06C5E7F4FCE014896CDDECE014896FDDED1
S11303B0FFCF1F920F920FB60F9211240BB60F921C
S11303C02F933F934F935F936F937F938F939F9359
S11303D0AF93BF93EF93FF93EC9884E192E0BCD288
S11303E084E192E006D276DF80E25EDF84E192E08F
S11303F00ED270DF84E192E04BD2FF91EF91BF9176
S1130400AF919F918F917F916F915F914F913F91A8
S11304102F910F900BBE0F900FBE0F901F90189549
S11304201F920F920FB60F9211240BB60F922F93B7
S11304303F934F935F936F937F938F939F93AF9368
S1130440BF93EF93FF9310926F001092800010926D
S11304508100E49AEC9A84E092E02EDFFF91EF9120
S1130460BF91AF919F918F917F916F915F914F91C8
S11304703F912F910F900BBE0F900FBE0F901F90C6
S11304801895EF92FF920F931F930F2EF0EFEF2E1C
S1130490F12CF02D00E411E02FEF3FE040E951E0B2
S11304A060E971E084E192E07BD11F910F91FF90AC
S11304B0EF9008955F9868B9A2980000A29A00008E
S11304C008955F9A72B968B9A2980000A29A0000D0
S11304D00895FC017383628351834083089569E224
S11304E070E0E8CF089561E170E0E4DF8FE39CE918
S11304F00197F1F700C00000089524B344B381E0EC
S113050090E0BC0102C0660F771F2A95E2F79B01B9
S113051020953095242324BB7FEF29E638E17150E0
S113052020403040E1F700C0000034B324B302C0DF
S1130530880F991F3A95E2F7822B84BB4FEF68E549
S113054076E0415060407040E1F700C0000008953B
S11305500F931F93CF938C01C62F66E370E0AADF3D
S11305606C2F70E0C801ADDFCF911F910F910895FA
S11305700F931F93CF938C01C62F6AE370E09ADF29
S11305806C2F70E0C8019DDFCF911F910F910895EA
S1130590CF93DF93EC01579A8FEF81B987B99A9A79
S11305A0999A989A5F9AA29AA198A09ACE01A5DFE7
S11305B0CE0199DFCE0193DF8FE19EE40197F1F73D
S11305C000C0000068E0CE01C3DF65E0CE01D0DFEB
S11305D0DF91CF9108956CE270E06CCF0895EF92B3
S11305E0FF920F931F93CF93DF93EC01E62E072F17
S11305F0F42E152F6AE270E05DDF602F70E0CE010B
S113060060DF6E2D702FCE015CDF612F70E0CE01B4
S113061058DF6F2D712FCE0154DFDF91CF911F91E1
S11306200F91FF90EF900895EF92FF920F931F9315
S1130630CF93DF93EC01E62E072FF42E152F6BE2F8
S113064070E038DF602F70E0CE013BDF6E2D702F3D
S1130650CE0137DF612F70E0CE0133DF6F2D712FB4
S1130660CE012FDFDF91CF911F910F91FF90EF907B
S11306700895FC0182819381089560E270E01ACFAD
S11306800895AF92BF92CF92DF92EF92FF920F93B1
S11306901F93CF93DF938C015B01FB016081718118
S11306A0C281D381AB01415E5F4FBEDFAE01485EC4
S11306B05F4FBE01C80193DFC8018DDF0F2EF9E142
S11306C0CF2ED12CF02D7501F4E4EF0EF11CE501D1
S11306D0249669917991C801F4DECE15DF05C9F736
S11306E081E0C81AD10899F7C801C7DFDF91CF911B
S11306F01F910F91FF90EF90DF90CF90BF90AF903C
S11307000895B901BECF08958F929F92AF92BF9280
S1130710CF92DF92EF92FF920F931F93CF93DF93C9
S1130720EC01FB01058116814A815B81415051092D
S113073060E070E079DF488159814150510960E0FF
S113074070E0CE014CDFCE0146DF2A813B81A881D7
S1130750B9814CD14B015C0116161706180619060F
S113076084F4C12CD12C7601B801CE01AADEFFEFAE
S1130770CF1ADF0AEF0AFF0A8C149D04AE04BF04EB
S113078099F7CE017ADFDF91CF911F910F91FF90FE
S1130790EF90DF90CF90BF90AF909F908F9008958F
S11307A0EF92FF920F931F93CF93DF93FC01EA0123
S11307B0758364835783468311861086158704875F
S11307C0F786E68633872287C901861B970BB80113
S11307D0FAD0718B608BC9018C1B9D0BB701F3D0D0
S11307E0738B628BDF91CF911F910F91FF90EF90EC
S11307F00895FC012081318184819581A901481BE0
S1130800590BCA0160897189DED0CB010895FC01BE
S11308102281338186819781A901481B590BCA0122
S113082062897389D0D0CB01089500000000E2E012
S1130830F1E0808188608083000000008081877FF0
S113084080830895EF92FF920F931F93CF93DF93CA
S11308507C01000000000000E8DF0CE010E0C0E0D4
S1130860D0E0CC0FDD1F65992196C701DEDF015072
S11308701109B9F7C701D9DFC701D7DFC701D5DF30
S1130880CE01DF91CF911F910F91FF90EF900895CA
S113089082E080936F00E0E8F0E080818C7F8083C9
S11308A0E1E8F0E080818F7E8083808188608083AE
S11308B088EA91E690938900809388008081836020
S11308C080830895E2E0F1E08081877F808308954A
S11308D0EF92FF921F93CF93DF937C01162FF2DFE9
S11308E0C8E0D0E0112314F4A59A01C0A598110F13
S11308F00000C7019ADF2197A9F7A598DF91CF914E
S11309001F91FF90EF900895CF93DF93EC01E1E006
S1130910F1E08081886080839D9A6B9A6D986C98D1
S1130920EC9AEAE6F0E0808184608083789419820E
S113093018821B821A82739A0000000073980000C8
S1130940000060E9CE01C4DFCE016FDFCE017ADFA3
S1130950739ADF91CF9108950F931F93CF93DF93F1
S1130960EC01739864990DC060E9B2DFCE016ADFCF
S11309708C0164990BC060EDCE01AADFCE0162DF69
S113098007C000E010E080E090E002C080E090E06A
S1130990998388831B830A83739A0000CE0145DF01
S11309A0DF91CF911F910F910895FC011382128260
S11309B01582148217821682118610861386128677
S11309C00895F3CF089597FB072E16F4009406D0EC
S11309D077FD08D026D007FC05D03EF4909581958C
S11309E09F4F0895709561957F4F089505D03323E7
S11309F012F48A1B9B0B10C0A29FB001B39FC001CD
S1130A00A39F700D811D1124911DB29F700D811D36
S1130A101124911D0895F0DFB7FF0895821B930BF5
S1130A200895AA1BBB1B51E107C0AA1FBB1FA61731
S1130A30B70710F0A61BB70B881F991F5A95A9F783
S1130A4080959095BC01CD010895EE0FFF1F881F7E
S1130A508BBF0790F691E02D1994BB274A3031F4EF
S1130A60992322F4BDE2909581959F4F01C0BB2745
S1130A70FB015527AA27880F991FAA1FA41710F056
S1130A80A41B83955051B9F7A05DAA3308F0A95D62
S1130A90A193009779F7B111B1931192CB0100C0E2
S1130AA0DC01FC01672F71917723E1F7329704C0D1
S1130AB07C916D9370836291AE17BF07C8F308955C
S1070AC0F894FFCFD4
S1130AC45253540054696D657220696E7465727270
S1070AD475707400C1
S9030000FC
