S0120000466C617070795F322E302E73726563B7
S113000072C000009FC000009DC000009BC00000A3
S113001099C0000087C3000095C0000093C0000091
S113002091C000008FC000008DC000008BC0000094
S113003089C0000087C0000085C0000083C00000A4
S113004081C00000A6C300007DC000007BC000008A
S113005079C0000077C0000075C0000073C00000C4
S113006071C000006FC000006DC000006BC00000D4
S113007069C0000067C0000065C0000063C00000E4
S113008061C000005FC000005DC000005BC00000F4
S113009059C0000057C0000055C0000053C0000004
S11300A051C000004FC000004DC000004BC0000014
S11300B049C0000047C0000045C0000043C0000024
S11300C041C000003FC000003DC000003BC0000034
S11300D039C0000037C0000035C0000033C0000044
S11300E031C00000FA0311241FBECFEFD1E2DEBFFE
S11300F0CDBF00E00CBF12E0A0E0B2E0EAEAF1E11B
S113010000E00BBF02C007900D92A031B107D9F7F0
S113011022E0A0E1B2E001C01D92A432B207E1F7EF
S113012010E0C3E7D0E000E005C021970109802F6B
S1130130FE01FED7C237D10780E00807B1F7A4D289
S11301400C94D3085DCFCF92DF92EF92FF920F937E
S11301501F93CF93DF93EC01CB01798368835B8397
S11301604A8309871A872B873C871E861D86FA8A4D
S1130170E98A2CE330E0388F2F8BD88ACF862AE0A7
S113018030E03C8B2B8B32D469897A892F89388D66
S1130190620F731F4DD76F5F7F4F7A8F698FDF9127
S11301A0CF911F910F91FF90EF90DF90CF90089522
S11301B00F931F93CF93DF93FC01EB01018512850D
S11301C023853485D901C801072E7DE0880F991F46
S11301D0AA1FBB1F7A95D1F7702D082719272A2744
S11301E03B27D901C801072E71E1B595A7959795CD
S11301F087957A95D1F7702D80279127A227B32769
S11302008C019D01000F111F221F331F000F111FAE
S1130210221F331F000F111F221F331F000F111F36
S1130220221F331F000F111F221F331FBC01CD01DA
S11302306027712782279327618772878387948732
S11302409A012C1B3D0B032E000C440B550B25D798
S1130250CE01860F971FDF91CF911F910F910895C3
S1130260AF92BF92CF92DF92EF92FF920F931F93C0
S1130270CF93DF93DC0159962D913C915A97121636
S113028013060CF09BC08C01C12CD12CD801149600
S1130290ED91FC911597E601CC0FDD1FEC0FFD1FCE
S11302A08081918184D67C01F80184819581C80F75
S11302B0D91F888199817FD65C01C701A9D6D8014D
S11302C053962D913C915497BC01621B730BC7014B
S11302D08FD6C5019DD6F80123893489BC01621BE0
S11302E0730BC50185D6C70193D6EC01C70198D617
S11302F08C0F9D1F99230CF057C0D8018D919C91B0
S113030075D3BC01C70174D6F801808191816ED385
S1130310BC01C5016DD648EC50E062E370E0C80151
S113032047DFD8011E969C938E931D978D919C91C7
S113033059D3F80165857685680F791F878590897B
S113034099230CF4019695958795681B790BC50143
S113035057D6D8011F966D917C915097772314F44A
S11303606F5F7F4F75956795F80185859685680F52
S1130370791FC70141D6D8018D919C9133D3F801DF
S113038027853089332314F42F5F3F4F3595279504
S1130390D8011D964D915C911E97240F351FBC0109
S11303A0621B730BC7012CD6BFEFCB1ADB0AF80113
S11303B0818D928DC816D9060CF468CFDF91CF9148
S11303C01F910F91FF90EF90DF90CF90BF90AF906F
S11303D008952F923F924F925F926F927F928F92E5
S11303E09F92AF92BF92CF92DF92EF92FF920F93C0
S11303F01F93CF93DF93CDB7DEB7CE5AD1090FB693
S1130400F894DEBF0FBECDBF6C014DB65EB6198247
S11304108FEF8A831B8220EC3FE03F832E83188674
S113042019868A878FE190E09E878D8781E0F601A7
S11304308087818D928D9C01220F331F4DB75EB74B
S1130440421B530B0FB6F8945EBF0FBE4DBFEDB702
S1130450FEB731961F01181619060CF079C03F013A
S1130460A12CB12C4E01FBEA8F0E911C48EC50E0FC
S113047062E370E0C6019CDEF60196878587808181
S11304809181B0D2F60165857685478550895523DB
S113049014F44F5F5F4F55954795F6010189128912
S11304A09C01261B370B241B350B460F571F8789CE
S11304B0908D800F911F8A9DB0018B9D700D9A9D28
S11304C0700D11246E5D7E4FCE0101967C01825623
S11304D09F4F75D5F60101891289878590899923E3
S11304E00CF4019695958795F60125853685281B8C
S11304F0390B8789908D800F911F8A9DB0018B9D48
S1130500700D9A9D700D11246E5D7E4FAE014F5F8C
S11305105F4F7A0140E050E0CE018D569F4F4FD59A
S1130520AE0141565F4FBE016D567F4FC40139D5B0
S1130530F301819291923F01C40132D5FFEFAF1ACA
S1130540BF0AF601818D928DA816B9060CF48ECFE0
S1130550F601358224828CE690E09A8B898B86E4BE
S113056090E0988B8F87FE0173969E012D563F4F26
S113057080EC9FEF81939193E217F307D9F7CE01B3
S11305800F96F60197838683BE01685F7F4F808153
S11305909181B5D3F60126813781418D528D6481D5
S11305A075818081918130D3F60180858823D1F0D3
S11305B02D853E85F601418D528D64817581808142
S11305C091816FD2C6014CDEF60126813781418DBF
S11305D0528D648175818081918116D3F601808565
S11305E08111E6CFF60110860FB6F8945EBE0FBEF9
S11305F04DBEC255DF4F0FB6F894DEBF0FBECDBF60
S1130600DF91CF911F910F91FF90EF90DF90CF90EA
S1130610BF90AF909F908F907F906F905F904F901E
S11306203F902F900895E0ECF0E0908195FFFDCF8E
S11306308093C6000895CF93DF93EC0188818823CB
S113064029F02196F0DF89918111FCCFDF91CF91C0
S11306500895CF93DF93CDB7DEB727970FB6F894FD
S1130660DEBF0FBECDBF4AE0BE016F5F7F4F68D5CE
S1130670CE010196E0DF27960FB6F894DEBF0FBED9
S1130680CDBFDF91CF910895CF93DF93CDB7DEB780
S1130690A6970FB6F894DEBF0FBECDBF80E280935D
S11306A0C00088E18093C10086E08093C20087E6A1
S11306B090E09093C5008093C40080E192E01FD441
S11306C019821A828FEF8B838FE190E09F838E8350
S11306D040EF50E060E471E0CE010896B3D0CE0163
S11306E008960FD1BE016F5F7F4FCE01089607D3E6
S11306F00F2EF2E3CF2ED12CF02D0F2EFEE1EF2E94
S1130700F12CF02D0AE210E020E030E040E152E06C
S1130710BE01685F7F4FCE010C9615DDCE010C96AD
S113072058DEFFCF1F920F920FB60F9211240BB613
S11307300F922F933F934F935F936F937F938F9376
S11307409F93AF93BF93EF93FF93EC9880E192E074
S1130750FED380E192E048D37CDF80E264DF80E175
S113076092E050D376DF80E192E08DD3FF91EF9158
S1130770BF91AF919F918F917F916F915F914F91B5
S11307803F912F910F900BBE0F900FBE0F901F90B3
S113079018951F920F920FB60F9211240BB60F9259
S11307A02F933F934F935F936F937F938F939F9375
S11307B0AF93BF93EF93FF9310926F00109280005A
S11307C010928100E49AEC9A80E092E034DFFF9189
S11307D0EF91BF91AF919F918F917F916F915F91B5
S11307E04F913F912F910F900BBE0F900FBE0F9022
S11307F01F901895EF92FF920F931F930F2EF0EF17
S1130800EF2EF12CF02D00E411E02FEF3FE040E952
S113081051E060E971E080E192E0BDD21F910F9157
S1130820FF90EF9008955F9868B9A2980000A29A8B
S1130830000008955F9A72B968B9A2980000A29A5C
S113084000000895FC0173836283518340830895FB
S113085069E270E0E8CF089561E170E0E4DF8FE3DE
S11308609CE90197F1F700C00000089524B344B354
S113087081E090E0BC0102C0660F771F2A95E2F781
S11308809B0120953095242324BB7FEF29E638E192
S1130890715020403040E1F700C0000034B324B36D
S11308A002C0880F991F3A95E2F7822B84BB4FEF61
S11308B068E576E0415060407040E1F700C0000018
S11308C008950F931F93CF938C01C62F66E370E0B6
S11308D0AADF6C2F70E0C801ADDFCF911F910F919B
S11308E008950F931F93CF938C01C62F6AE370E092
S11308F09ADF6C2F70E0C8019DDFCF911F910F919B
S11309000895CF93DF93EC01579A8FEF81B987B99C
S11309109A9A999A989A5F9AA29AA198A09ACE01C3
S1130920A5DFCE0199DFCE0193DF8FE19EE401972D
S1130930F1F700C0000068E0CE01C3DF65E0CE013E
S1130940D0DFDF91CF9108956CE270E06CCF089511
S1130950EF92FF920F931F93CF93DF93EC01E62E58
S1130960072FF42E152F6AE270E05DDF602F70E030
S1130970CE0160DF6E2D702FCE015CDF612F70E041
S1130980CE0158DF6F2D712FCE0154DFDF91CF914F
S11309901F910F91FF90EF900895EF92FF920F93A4
S11309A01F93CF93DF93EC01E62E072FF42E152F20
S11309B06BE270E038DF602F70E0CE013BDF6E2D1C
S11309C0702FCE0137DF612F70E0CE0133DF6F2D42
S11309D0712FCE012FDFDF91CF911F910F91FF90E7
S11309E0EF900895FC01808191810895FC0182813A
S11309F09381089560E270E016CF08954F925F925C
S1130A006F927F92AF92BF92CF92DF92EF92FF925A
S1130A100F931F93CF93DF93DC011296ED91FC911A
S1130A201397E617F70770F1570169017A01EC0192
S1130A30AF0141505109B1DFA801415051094E0D98
S1130A405F1DB701CE0184DFCE017EDF9601D801A0
S1130A5046D32B013C01161617061806190684F412
S1130A60C12CD12C7601B501CE01E4DEBFEFCB1A47
S1130A70DB0AEB0AFB0A4C145D046E047F0499F74D
S1130A80CE01B8DFDF91CF911F910F91FF90EF90CE
S1130A90DF90CF90BF90AF907F906F905F904F901A
S1130AA008952F923F924F925F926F927F928F920E
S1130AB09F92AF92BF92CF92DF92EF92FF920F93E9
S1130AC01F93CF93DF9300D01F92CDB7DEB71416D8
S1130AD015060CF042C019012B019A8389834B013E
S1130AE0440F551F440E551E8401F40181919191C8
S1130AF04F015DD29C838B83F801808191815BD20D
S1130B008C0186D23C01C8018BD25C01C80184D21D
S1130B106C01C80179D271018C019501A601B30160
S1130B2089819A816BDF8B819C8172D23C018B819C
S1130B309C8176D25C018B819C816ED26C018B810D
S1130B409C8162D28C019501A601B30189819A81AD
S1130B5055DF8414950409F0C7CF0F900F900F90C0
S1130B600F90DF91CF911F910F91FF90EF90DF9045
S1130B70CF90BF90AF909F908F907F906F905F9039
S1130B804F903F902F900895AF92BF92CF92DF92F3
S1130B90EF92FF920F931F93CF93DF938C015B012E
S1130BA0FB0160817181C281D381AB01415E5F4FE2
S1130BB0F4DEAE01485E5F4FBE01C801C9DEC80164
S1130BC0C3DE0F2EF9E1CF2ED12CF02D7501F4E404
S1130BD0EF0EF11CE501249669917991C8012ADE92
S1130BE0CE15DF05C9F781E0C81AD10899F7C80105
S1130BF001DFDF91CF911F910F91FF90EF90DF9074
S1130C00CF90BF90AF9008952F923F924F925F92F2
S1130C106F927F928F929F92AF92BF92CF92DF9208
S1130C20EF92FF920F931F93CF93DF9300D01F9205
S1130C30CDB7DEB75C013A832983141615060CF090
S1130C4043C06B01440F551F1B01240E351E860142
S1130C50F601819191916F01AAD19C838B83F80154
S1130C6080819181A8D17C01D3D12C01C701D8D135
S1130C704C01C701D1D13C01C701C6D18C01C701C8
S1130C80D3D17C019401A301B201C501B7DE8B81EC
S1130C909C81BED12C018B819C81C2D14C018B8162
S1130CA09C81BAD13C018B819C81AED18C018B811A
S1130CB09C81BAD17C019401A301B201C5019EDEDD
S1130CC0C214D30409F0C3CF69817A81C5015CDF02
S1130CD00F900F900F900F90DF91CF911F910F9174
S1130CE0FF90EF90DF90CF90BF90AF909F908F9048
S1130CF07F906F905F904F903F902F9008958F92C8
S1130D009F92AF92BF92CF92DF92EF92FF920F9396
S1130D101F93CF93DF93EC01FB01058116814A8178
S1130D205B814150510960E070E037DE48815981B0
S1130D304150510960E070E0CE010ADECE0104DECC
S1130D402A813B81A881B981C4D14B015C0116166B
S1130D5017061806190684F4C12CD12C7601B801A3
S1130D60CE0168DDFFEFCF1ADF0AEF0AFF0A8C1409
S1130D709D04AE04BF0499F7CE013CDEDF91CF9110
S1130D801F910F91FF90EF90DF90CF90BF90AF90A5
S1130D909F908F900895EF92FF920F931F93CF939C
S1130DA0DF93FC01EA0175836483578346831186CC
S1130DB0108615870487F786E68633872287C9015C
S1130DC0861B970BB80134D1718B608BC9018C1BC6
S1130DD09D0BB7012DD1738B628BDF91CF911F9146
S1130DE00F91FF90EF900895FC012081318184815F
S1130DF09581A901481B590BCA016089718918D1D1
S1130E00CB010895FC012281338186819781A90158
S1130E10481B590BCA01628973890AD1CB01089511
S1130E2000000000E2E0F1E080818860808300003F
S1130E3000008081877F80830895EF92FF920F9353
S1130E401F93CF93DF937C01000000000000E8DFD4
S1130E500CE010E0C0E0D0E0CC0FDD1F65992196D6
S1130E60C701DEDF01501109B9F7C701D9DFC70196
S1130E70D7DFC701D5DFCE01DF91CF911F910F914D
S1130E80FF90EF90089582E080936F00E0E8F0E037
S1130E9080818C7F8083E1E8F0E080818F7E808395
S1130EA080818860808388EA91E6909389008093AA
S1130EB088008081836080830895E2E0F1E080818E
S1130EC0877F80830895EF92FF921F93CF93DF93E0
S1130ED07C01162FF2DFC8E0D0E0112314F4A59AA8
S1130EE001C0A598110F0000C7019ADF2197A9F747
S1130EF0A598DF91CF911F91FF90EF900895CF9324
S1130F00DF93EC01E1E0F1E08081886080839D9AC9
S1130F106B9A6D986C98EC9AEAE6F0E080818460B4
S1130F2080837894198218821B821A82739A000033
S1130F30000073980000000060E9CE01C4DFCE0118
S1130F406FDFCE017ADF739ADF91CF9108950F930B
S1130F501F93CF93DF93EC01739864990DC060E9FC
S1130F60B2DFCE016ADF8C0164990BC060EDCE0163
S1130F70AADFCE0162DF07C000E010E080E090E06D
S1130F8002C080E090E0998388831B830A83739A6C
S1130F900000CE0145DFDF91CF911F910F9108959D
S1130FA00895FC0171836083538342830895FC0197
S1130FB0828193810895FC01808191810895EF924B
S1130FC0FF920F931F93FC017383628355834483C1
S1130FD03783268311870087D70115968D919C91BD
S1130FE01697938782871F910F91FF90EF90089532
S1130FF0FC01738362830895FC01758364830895FF
S1131000FC01778366830895FC01868197810895A6
S1131010FC01828193810895FC0184819581089566
S1131020FC01808591850895FC018285938508954E
S113103097FB072E16F4009406D077FD08D064D0F1
S113104007FC05D03EF4909581959F4F08957095C7
S113105061957F4F0895A1E21A2EAA1BBB1BFD01C7
S11310600DC0AA1FBB1FEE1FFF1FA217B307E40783
S1131070F50720F0A21BB30BE40BF50B661F771FDB
S1131080881F991F1A9469F76095709580959095BB
S11310909B01AC01BD01CF010895052E97FB16F409
S11310A000940FD057FD05D0D6DF07FC02D046F4DC
S11310B008C050954095309521953F4F4F4F5F4F55
S11310C0089590958095709561957F4F8F4F9F4FB0
S11310D0089505D0332312F48A1B9B0B10C0A29FE2
S11310E0B001B39FC001A39F700D811D1124911DF8
S11310F0B29F700D811D1124911D0895F0DFB7FF7B
S11311000895821B930B0895AA1BBB1B51E107C0D2
S1131110AA1FBB1FA617B70710F0A61BB70B881F83
S1131120991F5A95A9F780959095BC01CD01089512
S1131130EE0FFF1F881F8BBF0790F691E02D1994C7
S1131140BB274A3031F4992322F4BDE2909581956E
S11311509F4F01C0BB27FB015527AA27880F991F62
S1131160AA1FA41710F0A41B83955051B9F7A05DD2
S1131170AA3308F0A95DA193009779F7B111B1934F
S11311801192CB0100C0DC01FC01672F7191772320
S1131190E1F7329704C07C916D9370836291AE172E
S10D11A0BF07C8F30895F894FFCFC9
S11311AA54696D657220696E746572727570740023
S9030000FC
