S0120000466C617070795F322E302E73726563B7
S113000072C00000A0C000009EC000009CC00000A0
S11300109AC0000073C5000096C0000094C00000A0
S113002092C0000090C000008EC000008CC0000090
S11300308AC0000088C0000086C0000084C00000A0
S113004082C000009AC500007EC000007CC0000091
S11300507AC0000078C0000076C0000074C00000C0
S113006072C0000070C000006EC000006CC00000D0
S11300706AC0000068C0000066C0000064C00000E0
S11300806DC5000060C000005EC000005CC00000E0
S11300905AC0000058C0000056C0000054C0000000
S11300A052C0000050C000004EC000004CC0000010
S11300B04AC0000048C0000046C0000044C0000020
S11300C042C0000040C000003EC000003CC0000030
S11300D03AC0000038C0000036C0000034C0000040
S11300E032C00000EE0511241FBECFEFD1E2DEBF07
S11300F0CDBF00E00CBF12E0A0E0B2E0E4EAF5E11D
S113010000E00BBF02C007900D92A031B107D9F7F0
S113011022E0A0E1B2E001C01D92A732B207E1F7EC
S113012010E0C3E7D0E000E006C021970109802F6A
S1130130FE010E94C80AC237D10780E00807A9F768
S11301405BD40C94D00A5CCFCF92DF92EF92FF92F3
S11301500F931F93CF93DF93EC01CB0179836883D3
S11301605B834A8309871A872B873C871E861D86F3
S1130170FA8AE98A2CE330E0388F2F8BD88ACF862D
S113018023E030E03C8B2B8B25D669897A892F8933
S1130190388D620F731F0E94640A6F5F7F4F7A8FDE
S11301A0698FDF91CF911F910F91FF90EF90DF90B6
S11301B0CF9008950F931F93CF93DF93FC01EB012E
S11301C00185128523853485D901C801072E7DE078
S11301D0880F991FAA1FBB1F7A95D1F7702D082786
S11301E019272A273B27D901C801072E71E1B695A3
S11301F0A795979587957A95D1F7702D80279127A4
S1130200A227B3278C019D01000F111F221F331F4A
S1130210000F111F221F331F000F111F221F331F36
S1130220000F111F221F331F000F111F221F331F26
S1130230BC01CD01602771278227932761877287CC
S1130240838794879A012C1B3D0B40E050E00E9469
S1130250770ACE01860F971FDF91CF911F910F91DF
S113026008952F923F924F925F926F927F928F9256
S11302709F92AF92BF92CF92DF92EF92FF920F9331
S11302801F93CF93DF93CDB7DEB7C85CD1090FB608
S1130290F894DEBF0FBECDBF5C012DB73EB7C95386
S11302A0DF4F39832883C75CD04019828FEF8A835C
S11302B01B8220EC3FE03F832E83188619868A87B1
S11302C08FE190E09E878D8781E0D50118968C930D
S11302D0189759968D919C915A978C010150110948
S11302E09C01220F331F820F931FFC01EE0FFF1F8F
S11302F0EE0FFF1FEE0FFF1FCB53DF4FF983E88391
S1130300C55CD0402DB73EB72E1B3F0B0FB6F894FB
S11303103EBF0FBE2DBF8DB79EB70196CD53DF4FA5
S113032099838883C35CD0401C010F3F9FEF19075A
S113033049F4D50159968D919C915A97181619062E
S11303408CF0F9C0CD53DF4FE880F980C35CD04016
S1130350C7010E94B909B8E1EB0EF11C0150110963
S1130360B8F7E7CFCD53DF4F68807980C35CD040C6
S1130370812C912C4FEA50E06BE470E0C5011ADF48
S1130380D5011E969C938E931D978D919C911ED59D
S11303902C01F501C584D684E784F088FF201CF481
S11303A0FFEFEF1AFF0AF594E794D5018D919C9124
S11303B011D5F5010189128992012C193D092E19D3
S11303C03F09A6014E0D5F1D0788F08DE02DE00F5B
S11303D0F11FE89DB001E99D700DF89D700D112489
S11303E0680F791FCE0101967C018A549F4F0E94A9
S11303F01F0AD5011F968D919C91509799230CF457
S1130400019695958795F501C584D684C81AD90AAD
S113041080819181DFD4D50151960D911C91529721
S113042057962D913C915897200F311F289DB0016C
S1130430299D700D389D700D1124680F791FFE01E0
S113044031967F01960140E050E0CE0185559F4FE3
S1130450F6D72DB73EB72C5031090FB6F8943EBFEE
S11304600FBE2DBFADB7BEB711968CE0FE01E954A7
S1130470FF4F01900D928A95E1F7C555DF4FC88073
S1130480CB5AD040C455DF4FD880CC5AD040C35546
S1130490DF4FE880CD5AD040C255DF4FF880CE5AA6
S11304A0D040C155DF4F0881CF5AD040C055DF4FEF
S11304B01881C05BD040CF54DF4F2881C15BD0404E
S11304C0CE54DF4F3881C25BD040CD54DF4F4881DA
S11304D0C35BD040CC54DF4F5881C45BD040CB5475
S11304E0DF4F6881C55BD040CA54DF4F7881C65B5B
S11304F0D040CE018D569F4F47D7BE016D567F4FDA
S1130500C3018BD7CE018D569F4F3DD73FEF831A42
S1130510930A88E1680E711CADB7BEB71C960FB67E
S1130520F894BEBF0FBEADBFF501818D928D8816C4
S113053099060CF41FCFCD53DF4FE881F981C35CDA
S1130540D040D5011596FC93EE9314978CE690E079
S11305509A8B898B86E490E0988B8F87FE01739643
S11305609E012D563F4F80EC9FEF81939193E217AC
S1130570F307D9F7CE010F96D50117969C938E9366
S11305801697BE01685F7F4F8D919C91BDD5F50193
S113059026813781418D528D64817581808191815D
S11305A02CD5CD53DF4FE880F980C35CD040CB53CA
S11305B0DF4F28813981C55CD040E20EF31E2E1432
S11305C03F0441F038E1E31AF108C701DCD62E14E8
S11305D03F04C1F7C953DF4F88819981C75CD0407C
S11305E00FB6F8949EBF0FBE8DBFC853DF4F0FB632
S11305F0F894DEBF0FBECDBFDF91CF911F910F9155
S1130600FF90EF90DF90CF90BF90AF909F908F902E
S11306107F906F905F904F903F902F9008958F92AE
S11306209F92AF92BF92CF92DF92EF92FF920F937D
S11306301F93CF93DF93FC01218D328D1216130685
S11306400CF07CC0EC01E12CF12CA12CB12C8C81A0
S11306509D818E0D9F1DDED68C018C819D818E0D1A
S11306609F1DDAD64C01C8011FD72B893C89BC01D8
S1130670621B730BC80108D7C40116D72B893C89A8
S1130680BC01621B730BC401FFD6C8010DD76C01FA
S1130690C80112D78C0D9D1D99230CF043C088818D
S11306A0998198D3BC01C801EFD68881998192D3EE
S11306B0BC01C401E9D648EC50E062E370E0CE012D
S11306C079DD9E878D872F853889332314F42F5F36
S11306D03F4F35952795BC01621B730BC401DCD6D3
S11306E06F857889772314F46F5F7F4F75956795CD
S11306F08D859E85680F791FC801CAD68881998126
S113070065D32F853889332314F42F5F3F4F3595F4
S113071027954D855E85240F351FBC01621B730B25
S1130720C801BAD6FFEFAF1ABF0A88E1E80EF11C80
S1130730898D9A8DA816B9060CF489CFDF91CF91D3
S11307401F910F91FF90EF90DF90CF90BF90AF90EB
S11307509F908F900895CF93DF93EC01498D5A8D2C
S11307606C817D812FE130E0888199818ED3CE0127
S113077056DF2E813F81498D5A8D6C817D81888120
S113078099813BD4DF91CF910895FC018085089530
S11307903F924F925F926F927F928F929F92AF920D
S11307A0BF92CF92DF92EF92FF920F931F93CF935A
S11307B0DF93CDB7DEB768970FB6F894DEBF0FBEF0
S11307C0CDBFFC01218D328D121613060CF0A7C08B
S11307D03C01C12CD12CA12CB12C412C33243394B9
S11307E0F301048115810C0D1D1DE680F780C801FD
S11307F011D6FC019CE0DE011D9601900D929A95A4
S1130800E1F7C80109D6FC019CE0DE0111960190D4
S11308100D929A95E1F7F70180809180CE010D96B3
S113082043D68C01CE010D9647D6800F911F8816B2
S113083099060CF078C0F70100811181005E1F4F0A
S1130840CE010D9631D680179107ECF4F701828022
S11308509380CE010D962CD68C01CE010D9620D618
S1130860800F911F8816990684F4F7010281138181
S1130870075E1F4FCE010D961BD6532C8017910790
S11308802CF0542C03C0542C01C0542CF70180804C
S11308909180CE01019608D68C01CE0101960CD62A
S11308A0800F911F881699060CF04FC001C0542C7C
S11308B0F70100811181005E1F4FCE010196F4D52E
S11308C0801791070CF041C0F70182809380CE011C
S11308D00196EED58C01CE010196E2D5800F911FD1
S11308E08816990694F5F70102811381075E1F4F5C
S11308F0CE010196DDD5511026C0801791078CF0EA
S1130900FFEFAF1ABF0A88E1C80ED11CF301818D35
S1130910928DA816B9060CF463CF80E019C080E06C
S113092017C081E015C0F70180809180CE01019647
S1130930BBD58C01CE010196BFD5800F911F8816BF
S11309409906F4F6B4CF81E003C05110FCCFD8CFA0
S113095068960FB6F894DEBF0FBECDBFDF91CF917E
S11309601F910F91FF90EF90DF90CF90BF90AF90C9
S11309709F908F907F906F905F904F903F900895DD
S11309800F931F93CF93DF93CDB7DEB727970FB69F
S1130990F894DEBF0FBECDBF8C0119821A821B8270
S11309A01F821E82BE016F5F7F4FFC018081918197
S11309B0ABD3F801108627960FB6F894DEBF0FBEAE
S11309C0CDBFDF91CF911F910F910895E0ECF0E03E
S11309D0908195FFFDCF8093C6000895CF93DF9358
S11309E0EC018881882329F02196F0DF8991811117
S11309F0FCCFDF91CF910895CF93DF93CDB7DEB7CE
S1130A006F970FB6F894DEBF0FBECDBF10921102E0
S1130A1080E28093C00088E18093C10086E08093E7
S1130A20C20087E690E09093C5008093C40083E100
S1130A3092E04ED440EF50E060E471E0CE010196C4
S1130A40F5D0CE01019651D10F2EF2E3CF2ED12C49
S1130A50F02D0F2EFEE1EF2EF12CF02D0AE210E026
S1130A6020E030E043E152E0BE016F5F7F4FCE01F2
S1130A7005966ADBCE010596F4DB82E08093710073
S1130A80E0E9F0E080818C7F8083E1E9F0E080811F
S1130A908F7E80838081886080838AE698E190934A
S1130AA0990080939800808184608083CE010596AC
S1130AB06CDE882369F0CE0105966ADE811108C0D8
S1130AC080911202882391F3CE01059644DEEECF85
S1130AD0CE0105965ADE811108C080911002882348
S1130AE0F1F3CE010596BDDBE1CFCE01059650DED4
S1130AF08823E1F2CE01059643DFD8CF1F920F92EF
S1130B000FB60F9211240BB60F922F933F934F936E
S1130B105F936F937F938F939F93AF93BF93EF9361
S1130B20FF9381E080931002EC9883E192E0F8D384
S1130B3083E192E091D3FF91EF91BF91AF919F91A7
S1130B408F917F916F915F914F913F912F910F9072
S1130B500BBE0F900FBE0F901F9018951F920F920F
S1130B600FB60F9211248F9381E0809312028F911C
S1130B700F900FBE0F901F9018951F920F920FB6F3
S1130B800F9211240BB60F922F933F934F935F93C1
S1130B906F937F938F939F93AF93BF93EF93FF9341
S1130BA010926F001092800010928100E49AEC9AE7
S1130BB080E092E013DFFF91EF91BF91AF919F919D
S1130BC08F917F916F915F914F913F912F910F90F2
S1130BD00BBE0F900FBE0F901F901895EF92FF92CF
S1130BE00F931F930F2EF0EFEF2EF12CF02D00E456
S1130BF011E02FEF3FE040E951E060E971E083E16B
S1130C0092E0CED21F910F91FF90EF9008955F98DC
S1130C1068B9A2980000A29A000008955F9A72B978
S1130C2068B9A2980000A29A00000895FC01738399
S1130C30628351834083089569E270E0E8CF0895A8
S1130C4061E170E0E4DF8FE39CE90197F1F700C014
S1130C500000089524B344B381E090E0BC0102C0D5
S1130C60660F771F2A95E2F79B0120953095242380
S1130C7024BB7FEF29E638E1715020403040E1F792
S1130C8000C0000034B324B302C0880F991F3A9502
S1130C90E2F7822B84BB4FEF68E576E04150604079
S1130CA07040E1F700C0000008950F931F93CF93A5
S1130CB08C01C62F66E370E0AADF6C2F70E0C801D8
S1130CC0ADDFCF911F910F9108950F931F93CF9391
S1130CD08C01C62F6AE370E09ADF6C2F70E0C801C4
S1130CE09DDFCF911F910F910895CF93DF93EC0176
S1130CF0579A8FEF81B987B99A9A999A989A5F9A75
S1130D00A29AA198A09ACE01A5DFCE0199DFCE01C7
S1130D1093DF8FE19EE40197F1F700C0000068E0E3
S1130D20CE01C3DF65E0CE01D0DFDF91CF9108951E
S1130D306CE270E06CCF0895EF92FF920F931F93D3
S1130D40CF93DF93EC01E62E072FF42E152F6AE2E2
S1130D5070E05DDF602F70E0CE0160DF6E2D702FDC
S1130D60CE015CDF612F70E0CE0158DF6F2D712F53
S1130D70CE0154DFDF91CF911F910F91FF90EF903F
S1130D800895EF92FF920F931F93CF93DF93EC019B
S1130D90E62E072FF42E152F6BE270E038DF602F5C
S1130DA070E0CE013BDF6E2D702FCE0137DF612F57
S1130DB070E0CE0133DF6F2D712FCE012FDFDF9175
S1130DC0CF911F910F91FF90EF900895FC018081C6
S1130DD091810895FC0182819381089560E270E01D
S1130DE016CF08954F925F926F927F92AF92BF9207
S1130DF0CF92DF92EF92FF920F931F93CF93DF93E3
S1130E00DC011296ED91FC911397E617F70770F148
S1130E10570169017A01EC01AF0141505109B1DF79
S1130E20A801415051094E0D5F1DB701CE0184DF69
S1130E30CE017EDF9601D80182D32B013C01161628
S1130E4017061806190684F4C12CD12C7601B501B5
S1130E50CE01E4DEBFEFCB1ADB0AEB0AFB0A4C142B
S1130E605D046E047F0499F7CE01B8DFDF91CF9162
S1130E701F910F91FF90EF90DF90CF90BF90AF90B4
S1130E807F906F905F904F9008952F923F924F9272
S1130E905F926F927F928F929F92AF92BF92CF9206
S1130EA0DF92EF92FF920F931F93CF93DF9300D0C3
S1130EB000D0CDB7DEB7141615060CF045C03C8340
S1130EC02B831A019A838983C62ED72E812C912CC9
S1130ED0C601A0D29E838D83C6019ED28C01E4D22A
S1130EE02C01C801E9D25C01C801E2D23C01C8016D
S1130EF0D7D2EB80FC808C019501A301B2018981DA
S1130F009A8170DF8D819E81CFD22C018D819E814B
S1130F10D3D25C018D819E81CBD23C018D819E8197
S1130F20BFD2EB80FC808C019501A301B2018981C1
S1130F309A8158DF8FEF881A980A88E1C80ED11C6D
S1130F402814390409F0C4CF26960FB6F894DEBFEE
S1130F500FBECDBFDF91CF911F910F91FF90EF9006
S1130F60DF90CF90BF90AF909F908F907F906F90C5
S1130F705F904F903F902F900895AF92BF92CF9281
S1130F80DF92EF92FF920F931F93CF93DF938C0125
S1130F905B01FB0160817181C281D381AB01415E40
S1130FA05F4FEFDEAE01485E5F4FBE01C801C4DE95
S1130FB0C801BEDE0F2EF9E1CF2ED12CF02D750124
S1130FC0F4E4EF0EF11CE501249669917991C801CE
S1130FD025DECE15DF05C9F781E0C81AD10899F7D7
S1130FE0C801FCDEDF91CF911F910F91FF90EF902C
S1130FF0DF90CF90BF90AF9008952F923F924F9281
S11310005F926F927F928F929F92AF92BF92CF9294
S1131010DF92EF92FF920F931F93CF93DF93CDB79D
S1131020DEB728970FB6F894DEBF0FBECDBF9A8304
S113103089835A013E832D83141615060CF046C08D
S1131040C62ED72E812C912CC601E4D198878F838C
S1131050C601E2D18C0128D29C838B83C8012CD297
S11310602C01C80125D21C01C8011AD23C01C801B7
S113107027D27C0183019201A1016B817C8189814A
S11310809A81B0DE8F8198850FD21C018F8198855B
S113109013D23C018F8198850BD22C018F819885C6
S11310A0FFD18C018F8198850BD27C019301A20121
S11310B0B10189819A8196DE8FEF881A980A88E1B6
S11310C0C80ED11CA814B90409F0BECF6D817E816D
S11310D089819A8152DF28960FB6F894DEBF0FBE3D
S11310E0CDBFDF91CF911F910F91FF90EF90DF90D3
S11310F0CF90BF90AF909F908F907F906F905F90B4
S11311004F903F902F9008958F929F92AF92BF92ED
S1131110CF92DF92EF92FF920F931F93CF93DF93BF
S1131120EC01FB01058116814A815B814150510923
S113113060E070E026DE488159814150510960E049
S113114070E0CE01F9DDCE01F3DD2A813B81A88177
S1131150B981EFD14B015C01161617061806190662
S113116084F4C12CD12C7601B801CE0157DDFFEFF8
S1131170CF1ADF0AEF0AFF0A8C149D04AE04BF04E1
S113118099F7CE012BDEDF91CF911F910F91FF9044
S1131190EF90DF90CF90BF90AF909F908F90089585
S11311A0EF92FF920F931F93CF93DF93FC01EA0119
S11311B07583648357834683118610861587048755
S11311C0F786E68633872287C901861B970BB80109
S11311D07BD1718B608BC9018C1B9D0BB70174D1C2
S11311E0738B628BDF91CF911F910F91FF90EF90E2
S11311F0089500000000E2E0F1E0808188608083CF
S1131200000000008081877F80830895EF92FF9221
S11312100F931F93CF93DF937C0100000000000025
S1131220E8DF0CE010E0C0E0D0E0CC0FDD1F6599F2
S11312302196C701DEDF01501109B9F7C701D9DFD3
S1131240C701D7DFC701D5DFCE01DF91CF911F9151
S11312500F91FF90EF90089582E080936F00E0E893
S1131260F0E080818C7F8083E1E8F0E080818F7EF4
S1131270808380818860808388EA91E690938900E6
S1131280809388008081836080830895E2E0F1E0A8
S11312908081877F80830895EF92FF921F93CF937D
S11312A0DF937C01162FF2DFC8E0D0E0112314F4A1
S11312B0A59A01C0A598110F0000C7019ADF2197D4
S11312C0A9F7A598DF91CF911F91FF90EF90089512
S11312D0CF93DF93EC01E1E0F1E0808188608083CB
S11312E09D9A6B9A6D986C98EC9AEAE6F0E080818E
S11312F0846080837894198218821B821A82739A7C
S11313000000000073980000000060E9CE01C4DF13
S1131310CE016FDFCE017ADF739ADF91CF9108950A
S11313200F931F93CF93DF93EC01739864990DC0CF
S113133060E9B2DFCE016ADF8C0164990BC060ED15
S1131340CE01AADFCE0162DF07C000E010E080E03A
S113135090E002C080E090E0998388831B830A8335
S1131360739A0000CE0145DFDF91CF911F910F9159
S11313700895CF93DF93EC017BD0CE010C9678D007
S1131380DF91CF9108950895AF92BF92CF92DF92EB
S1131390EF92FF920F931F93CF93DF93CDB7DEB7F6
S11313A02C970FB6F894DEBF0FBECDBF5C01C98287
S11313B0DA82EB82FC820D831E832F833887498770
S11313C05A876B877C8754D08501045F1F4FC801FF
S11313D04FD08CE0FE013196D50101900D928A9593
S11313E0E1F78CE0FE017A96D80101900D928A957E
S11313F0E1F72C960FB6F894DEBF0FBECDBFDF9198
S1131400CF911F910F91FF90EF90DF90CF90BF90FD
S1131410AF9008950C96089508959C018CE0FB010B
S1131420D90101900D928A95E1F79CE0FB013C966D
S1131430D9011C9601900D929A95E1F70895EF92C7
S1131440FF920F931F93FC0173836283558344833C
S11314503783268311870087D70115968D919C9138
S11314601697938782871F910F91FF90EF900895AD
S1131470FC0113821282158214821782168211864D
S11314801086138612860895FC017383628308957F
S1131490FC01758364830895FC0177836683089552
S11314A0FC01868197810895FC01828193810895CE
S11314B0FC01848195810895FC01808591850895BE
S11314C0FC0182859385089597FB072E16F40094FA
S11314D006D077FD08D048D007FC05D03EF490959F
S11314E081959F4F0895709561957F4F0895A1E26E
S11314F01A2EAA1BBB1BFD010DC0AA1FBB1FEE1F8A
S1131500FF1FA217B307E407F50720F0A21BB30BD4
S1131510E40BF50B661F771F881F991F1A9469F750
S113152060957095809590959B01AC01BD01CF01AC
S1131530089505D0332312F48A1B9B0B10C0A29F7D
S1131540B001B39FC001A39F700D811D1124911D93
S1131550B29F700D811D1124911D0895F0DFB7FF16
S11315600895821B930B0895AA1BBB1B51E107C06E
S1131570AA1FBB1FA617B70710F0A61BB70B881F1F
S1131580991F5A95A9F780959095BC01CD010895AE
S1131590EE0FFF1F881F8BBF0790F691E02D199463
S10715A0F894FFCFE9
S11315A454696D657220696E746572727570740025
S9030000FC
