S0120000466C617070795F322E302E73726563B7
S113000072C0000093C0000091C000008FC00000C7
S11300108DC00000F6C5000089C0000087C0000044
S113002085C0000083C0000081C000007FC00000C4
S11300307DC000007BC0000079C0000077C00000D4
S113004075C000001DC6000071C000006FC0000034
S11300506DC000006BC0000069C0000067C00000F4
S113006065C0000063C0000061C000005FC0000004
S11300705DC000005BC0000059C0000057C0000014
S1130080F0C5000053C0000051C000004FC0000084
S11300904DC000004BC0000049C0000047C0000034
S11300A045C0000043C0000041C000003FC0000044
S11300B03DC000003BC0000039C0000037C0000054
S11300C035C0000033C0000031C000002FC0000064
S11300D02DC000002BC0000029C0000027C0000074
S11300E025C00000520611241FBECFEFD1E2DEBFAF
S11300F0CDBF00E00CBF22E0A0E0B2E001C01D9241
S1130100A731B207E1F710E0C3E7D0E000E006C092
S113011021970109802FFE010E94AB0BC237D10742
S113012080E00807A9F7DED40C94B30B69CFAF9233
S1130130BF92CF92DF92EF92FF920F931F93CF93D0
S1130140DF93EC01CB01798368835B834A8339872E
S11301502887EB86FC860D871E87188A1F86DC8A13
S1130160CB8A24E630E03C8F2B8FBA8AA98A25E01B
S113017030E03E8B2D8BB6D66B897C892B8D3C8DE4
S1130180620F731F0E94470B6F5F7F4F7E8F6D8FCF
S1130190188E1F8A1A8E198EDF91CF911F910F919D
S11301A0FF90EF90DF90CF90BF90AF9008950F93A2
S11301B01F93CF93DF93FC01EB0103851485258501
S11301C03685D901C801072E7DE0880F991FAA1F23
S11301D0BB1F7A95D1F7702D082719272A273B27AB
S11301E0D901C801072E71E1B695A7959795879512
S11301F07A95D1F7702D80279127A227B3278C01F8
S11302009D01000F111F221F331F000F111F221FFA
S1130210331F000F111F221F331F000F111F221F36
S1130220331F000F111F221F331FBC01CD01602794
S113023071278227932763877487858796879A0116
S11302402C1B3D0B40E050E00E945A0BCE01860F60
S1130250971FDF91CF911F910F9108952F923F9295
S11302604F925F926F927F928F929F92AF92BF92C2
S1130270CF92DF92EF92FF920F931F93CF93DF936E
S1130280CDB7DEB7C85CD1090FB6F894DEBF0FBE98
S1130290CDBF5C012DB73EB7C953DF4F39832883E7
S11302A0C75CD04019828FEF8A831B8220EC3FE029
S11302B03F832E83188619868A878FE190E09E8774
S11302C08D8781E0D5011A968C931A9758961C92C3
S11302D01E9257975D968D919C915E978C0101506B
S11302E011099C01220F331F820F931FFC01EE0F93
S11302F0FF1FEE0FFF1FEE0FFF1FCB53DF4FF983DE
S1130300E883C55CD0402DB73EB72E1B3F0B0FB61C
S1130310F8943EBF0FBE2DBF8DB79EB70196CD5347
S1130320DF4F99838883C35CD0401C010F3F9FEF4C
S1130330190749F4D5015D968D919C915E97181625
S113034019068CF0FBC0CD53DF4FE880F980C35C05
S1130350D040C7010E945F0AB8E1EB0EF11C0150C6
S11303601109B8F7E7CFCD53DF4F68807980C35CBC
S1130370D040812C912C4FEA50E06BE470E0C50131
S113038016DFD50150969C938E931F978D919C9167
S1130390A5D52C01F501C784D088E188F288FF2017
S11303A01CF4FFEFEF1AFF0AF594E794D5018D9141
S11303B09C9198D5F5010389148992012C193D0962
S11303C02E193F09A6014E0D5F1D038CF48DE02DFF
S11303D0E00FF11FE89DB001E99D700DF89D700DCF
S11303E01124680F791FCE0101967C018A549F4F16
S11303F00E94C50AD50151968D919C9152979923DB
S11304000CF4019695958795F501C784D088C81A90
S1130410D90A8081918166D5D50153960D911C919D
S113042054975B962D913C915C97200F311F289D2A
S1130430B001299D700D389D700D1124680F791F2E
S1130440FE0131967F01960140E050E0CE018555D2
S11304509F4F0E94C50A2DB73EB72C5031090FB6E5
S1130460F8943EBF0FBE2DBFADB7BEB711968CE05A
S1130470FE01E954FF4F01900D928A95E1F7C555AD
S1130480DF4FC880CB5AD040C455DF4FD880CC5AF8
S1130490D040C355DF4FE880CD5AD040C255DF4F1E
S11304A0F880CE5AD040C155DF4F0881CF5AD04092
S11304B0C055DF4F1881C05BD040CF54DF4F288137
S11304C0C15BD040CE54DF4F3881C25BD040CD54A5
S11304D0DF4F4881C35BD040CC54DF4F5881C45BAD
S11304E0D040CB54DF4F6881C55BD040CA54DF4F46
S11304F07881C65BD040CE018D569F4FEBD7BE01AD
S11305006D567F4FC3010E94B30ACE018D569F4F93
S1130510E0D73FEF831A930A88E1680E711CADB7E8
S1130520BEB71C960FB6F894BEBF0FBEADBFF501A3
S1130530858D968D881699060CF41DCFCD53DF4F0B
S1130540E881F981C35CD040D5011596FC93EE9304
S113055014978CE690E09A8B898B86E490E0988BD4
S11305608F87FE0173969E012D563F4F80EC9FEFBF
S113057081939193E217F307D9F7CE010F96D50132
S113058017969C938E931697BE01685F7F4F8D914B
S11305909C9160D6F50126813781458D568D648105
S11305A0758180819181CFD5CD53DF4FE880F9806B
S11305B0C35CD040CB53DF4F28813981C55CD04028
S11305C0E20EF31E2E143F0441F038E1E31AF10861
S11305D0C7017FD72E143F04C1F7C953DF4F888169
S11305E09981C75CD0400FB6F8949EBF0FBE8DBFF3
S11305F0C853DF4F0FB6F894DEBF0FBECDBFDF91F7
S1130600CF911F910F91FF90EF90DF90CF90BF900B
S1130610AF909F908F907F906F905F904F903F909E
S11306202F900895EF92FF920F93CF93DF93EC01F5
S1130630062FEE80FF806D897E89072E000C880BC3
S1130640990BEAD7AB01BC0197018885998557D3EB
S1130650DF91CF910F91FF90EF900895FC01828577
S113066008953F924F925F926F927F928F929F92E2
S1130670AF92BF92CF92DF92EF92FF920F931F93AC
S1130680CF93DF93CDB7DEB768970FB6F894DEBF8C
S11306900FBECDBFFC01258D368D121613060CF04E
S11306A0A7C03C01C12CD12CA12CB12C412C33244A
S11306B03394F301048115810C0D1D1DE680F78030
S11306C0C8014ED7FC019CE0DE011D9601900D92FD
S11306D09A95E1F7C80146D7FC019CE0DE0111962A
S11306E001900D929A95E1F7F70180809180CE01F7
S11306F00D9680D78C01CE010D9684D7800F911F63
S1130700881699060CF078C0F70100811181005E0B
S11307101F4FCE010D966ED780179107ECF4F701A9
S113072082809380CE010D9669D78C01CE010D96FF
S11307305DD7800F911F8816990684F4F701028112
S11307401381075E1F4FCE010D9658D7532C801787
S113075091072CF0542C03C0542C01C0542CF701E5
S113076080809180CE01019645D78C01CE010196FF
S113077049D7800F911F881699060CF04FC001C00D
S1130780542CF70100811181005E1F4FCE010196A8
S113079031D7801791070CF041C0F7018280938014
S11307A0CE0101962BD78C01CE0101961FD7800F65
S11307B0911F8816990694F5F70102811381075E4B
S11307C01F4FCE0101961AD7511026C080179107EA
S11307D08CF0FFEFAF1ABF0A88E1C80ED11CF301F9
S11307E0858D968DA816B9060CF463CF80E019C0E8
S11307F080E017C081E015C0F70180809180CE01B0
S11308000196F8D68C01CE010196FCD6800F911F7B
S113081088169906F4F6B4CF81E003C05110FCCFDA
S1130820D8CF68960FB6F894DEBF0FBECDBFDF9168
S1130830CF911F910F91FF90EF90DF90CF90BF90D9
S1130840AF909F908F907F906F905F904F903F906C
S11308500895CF92DF92EF92FF920F931F93CF935D
S1130860DF93CDB7DEB72C970FB6F894DEBF0FBE7B
S1130870CDBFFC01258D368D1216130634F56C019F
S113088000E010E0E12CF12CF60184819581800FC9
S1130890911F66D6FC019CE0DE01119601900D9239
S11308A09A95E1F7CE010196A5D68534910579F0A4
S11308B0FFEFEF1AFF0A085E1F4FF601858D968D34
S11308C0E816F9060CF380E003C080E001C081E083
S11308D02C960FB6F894DEBF0FBECDBFDF91CF913B
S11308E01F910F91FF90EF90DF90CF9008958F921A
S11308F09F92AF92BF92CF92DF92EF92FF920F93AB
S11309001F93CF93DF93FC01258D368D12161306AA
S11309100CF085C0EC01E12CF12CA12CB12C8C81C4
S11309209D818E0D9F1D1CD68C018C819D818E0D09
S11309309F1D18D64C01C8015DD62D893E89BC0186
S1130940621B730BC80146D6C40154D62D893E8957
S1130950BC01621B730BC4013DD6C8014BD66C01AC
S1130960C80150D68C0D9D1D99230CF043C088817D
S11309709981B8D2BC01C8012DD688819981B2D29F
S1130980BC01C40127D648EC50E062E370E0CE011C
S11309900EDC988B8F8729893A89332314F42F5FCF
S11309A03F4F35952795BC01621B730BC4011AD6C2
S11309B069897A89772314F46F5F7F4F75956795FA
S11309C08F859889680F791FC80108D68881998115
S11309D085D229893A89332314F42F5F3F4F359503
S11309E027954F855889240F351FBC01621B730B53
S11309F0C801F8D5CE012DDF882329F08F89988D81
S1130A000196988F8F8BFFEFAF1ABF0A88E1E80E2B
S1130A10F11C8D8D9E8DA816B9060CF480CFDF9144
S1130A20CF911F910F91FF90EF90DF90CF90BF90E7
S1130A30AF909F908F900895FF920F931F93CF9341
S1130A40DF93EC01F62E2E813F814D8D5E8D6C81FE
S1130A507D810FE110E088819981A9D2CE0147DF21
S1130A606F2DCE01DFDD2E813F814D8D5E8D6C813A
S1130A707D818881998167D3DF91CF911F910F91F7
S1130A80FF9008950F931F93CF93DF93CDB7DEB7F5
S1130A9027970FB6F894DEBF0FBECDBF8C01FC01C3
S1130AA08789908D218D328D2817390714F4928F00
S1130AB0818F19821A821B821F821E82BE016F5F80
S1130AC07F4FF80180819181C5D3F8011286279662
S1130AD00FB6F894DEBF0FBECDBFDF91CF911F914B
S1130AE00F910895CF93DF93CDB7DEB7E1970FB69B
S1130AF0F894DEBF0FBECDBF1092010280E2809356
S1130B00C00088E18093C10086E08093C20087E63C
S1130B1090E09093C5008093C40083E092E07ED47B
S1130B2040EF50E060E471E0CE01019607D1CE01C0
S1130B30019663D1CE010596CED00F2EF4E6AF2EEA
S1130B40B12CF02D0F2EFEE1CF2ED12CF02D1AE278
S1130B50E12EF12C00E010E09E012B5F3F4F43E0BB
S1130B6052E0BE016F5F7F4FCE014396E0DACE01C3
S1130B70439674DB82E080937100E0E9F0E08081C9
S1130B808C7F8083E1E9F0E080818F7E80838081A7
S1130B90886080838AE698E1909399008093980016
S1130BA0808184608083CE01439658DD882399F048
S1130BB0CE01439656DD81110EC080910202882336
S1130BC091F360910002CE01439636DF1092020247
S1130BD010920002E8CFCE01439640DD811108C097
S1130BE0809100028823F1F3CE01439637DBDBCFFB
S1130BF0CE01439636DD8823B1F2CE01439642DF1F
S1130C00D2CF1F920F920FB60F9211240BB60F92F0
S1130C102F933F934F935F936F937F938F939F9300
S1130C20AF93BF93EF93FF9381E080930002EC981E
S1130C3083E092E01BD483E092E0B4D3FF91EF9180
S1130C40BF91AF919F918F917F916F915F914F91E0
S1130C503F912F910F900BBE0F900FBE0F901F90DE
S1130C6018951F920F920FB60F9211248F9381E063
S1130C70809302028F910F900FBE0F901F901895D2
S1130C801F920F920FB60F92112410926F001092C0
S1130C90800010928100E49AEC9A0F900FBE0F909E
S1130CA01F901895EF92FF920F931F930F2EF0EF62
S1130CB0EF2EF12CF02D00E411E02FEF3FE040E99E
S1130CC051E060E971E083E092E010D31F910F914D
S1130CD0FF90EF900895FC0111821082128213821A
S1130CE014821582168217821086118680E090E0A5
S1130CF0A0EAB0E482879387A487B58708950F9309
S1130D00F901002329F0828193810F9793838283D1
S1130D10828193810396938382830F9108955F98D0
S1130D2068B9A2980000A29A000008955F9A72B967
S1130D3068B9A2980000A29A00000895FC01738388
S1130D40628351834083089569E270E0E8CF089597
S1130D5061E170E0E4DF8FE39CE90197F1F700C003
S1130D600000089524B344B381E090E0BC0102C0C4
S1130D70660F771F2A95E2F79B012095309524236F
S1130D8024BB7FEF29E638E1715020403040E1F781
S1130D9000C0000034B324B302C0880F991F3A95F1
S1130DA0E2F7822B84BB4FEF68E576E04150604068
S1130DB07040E1F700C0000008950F931F93CF9394
S1130DC08C01C62F66E370E0AADF6C2F70E0C801C7
S1130DD0ADDFCF911F910F9108950F931F93CF9380
S1130DE08C01C62F6AE370E09ADF6C2F70E0C801B3
S1130DF09DDFCF911F910F910895CF93DF93EC0165
S1130E00579A8FEF81B987B99A9A999A989A5F9A63
S1130E10A29AA198A09ACE01A5DFCE0199DFCE01B6
S1130E2093DF8FE19EE40197F1F700C0000068E0D2
S1130E30CE01C3DF65E0CE01D0DFDF91CF9108950D
S1130E406CE270E06CCF0895EF92FF920F931F93C2
S1130E50CF93DF93EC01E62E072FF42E152F6AE2D1
S1130E6070E05DDF602F70E0CE0160DF6E2D702FCB
S1130E70CE015CDF612F70E0CE0158DF6F2D712F42
S1130E80CE0154DFDF91CF911F910F91FF90EF902E
S1130E900895EF92FF920F931F93CF93DF93EC018A
S1130EA0E62E072FF42E152F6BE270E038DF602F4B
S1130EB070E0CE013BDF6E2D702FCE0137DF612F46
S1130EC070E0CE0133DF6F2D712FCE012FDFDF9164
S1130ED0CF911F910F91FF90EF900895FC018081B5
S1130EE091810895FC0182819381089560E270E00C
S1130EF016CF08954F925F926F927F92AF92BF92F6
S1130F00CF92DF92EF92FF920F931F93CF93DF93D1
S1130F10EC013A01690157014A815B814617570781
S1130F20BCF1CB01820F931F4817590738F0009783
S1130F3029F077231CF4AC0160E070E041505109C2
S1130F40CE01A7DFA80141505109460D571DB30139
S1130F50CE017ADFCE0174DF9601D801D3D32B0101
S1130F603C01161617061806190684F4C12CD12C58
S1130F707601B501CE01DADE8FEFC81AD80AE80A85
S1130F80F80A4C145D046E047F0499F7CE01AEDFB9
S1130F90DF91CF911F910F91FF90EF90DF90CF9051
S1130FA0BF90AF907F906F905F904F9008952F9275
S1130FB03F924F925F926F927F928F929F92AF92E5
S1130FC0BF92CF92DF92EF92FF920F931F93CF9332
S1130FD0DF93CDB7DEB728970FB6F894DEBF0FBE08
S1130FE0CDBF9C838B835A013E832D833801141615
S1130FF015060CF041C0C62ED72E812C912CC601AB
S1131000AFD298878F83C601ADD28C01F3D29A8375
S11310108983C801F7D22C01C801F0D21C01C80190
S1131020E5D273018C019201A10169817A818B81DE
S11310309C8160DF8F819885DDD29A8389838F813B
S11310409885E0D22C018F819885D8D21C018F819C
S11310509885CCD28C019201A10169817A818B811E
S11310609C8148DF8FEF881A980AE8E1CE0ED11CE4
S1131070A814B90409F0C3CFED81FE8142815381E4
S113108060817181730109E110E020E230E08B811D
S11310909C8130DF28960FB6F894DEBF0FBECDBF1B
S11310A0DF91CF911F910F91FF90EF90DF90CF9040
S11310B0BF90AF909F908F907F906F905F904F9074
S11310C03F902F900895AF92BF92CF92DF92EF920C
S11310D0FF920F931F93CF93DF938C015B01FB016E
S11310E060817181C281D381AB01415E5F4FD1DEEA
S11310F0AE01485E5F4FBE01C801A6DEC801A0DE96
S11311000F2EF9E1CF2ED12CF02D7501F4E4EF0E62
S1131110F11CE501249669917991C80107DECE1589
S1131120DF05C9F781E0C81AD10899F7C801DEDEE6
S1131130DF91CF911F910F91FF90EF90DF90CF90AF
S1131140BF90AF9008952F923F924F925F926F920B
S11311507F928F929F92AF92BF92CF92DF92EF9243
S1131160FF920F931F93CF93DF93CDB7DEB72897EA
S11311700FB6F894DEBF0FBECDBF9A8389835A01A0
S11311803E832D83141615060CF046C0C62ED72EAA
S1131190812C912CC601E4D198878F83C601E2D1BA
S11311A08C0128D29C838B83C8012CD22C01C801CA
S11311B025D21C01C8011AD23C01C80127D27C01E6
S11311C083019201A1016B817C8189819A8192DEE4
S11311D08F8198850FD21C018F81988513D23C0191
S11311E08F8198850BD22C018F819885FFD18C013A
S11311F08F8198850BD27C019301A201B101898171
S11312009A8178DE8FEF881A980A88E1C80ED11C7B
S1131210A814B90409F0BECF6D817E8189819A81B9
S113122052DF28960FB6F894DEBF0FBECDBFDF9114
S1131230CF911F910F91FF90EF90DF90CF90BF90CF
S1131240AF909F908F907F906F905F904F903F9062
S11312502F9008958F929F92AF92BF92CF92DF9278
S1131260EF92FF920F931F93CF93DF93EC01FB0157
S1131270058116814A815B814150510960E070E02B
S113128008DE488159814150510960E070E0CE0187
S1131290DBDDCE01D5DD2A813B81A881B9812CD249
S11312A04B015C01161617061806190684F4C12CA6
S11312B0D12C7601B801CE0139DDFFEFCF1ADF0A58
S11312C0EF0AFF0A8C149D04AE04BF0499F7CE0103
S11312D00DDEDF91CF911F910F91FF90EF90DF9082
S11312E0CF90BF90AF909F908F900895EF92FF9210
S11312F00F931F93CF93DF93FC01EA0175836483FB
S1131300578346831186108615870487F786E686F9
S113131033872287C901861B970BB801B8D1718B1B
S1131320608BC9018C1B9D0BB701B1D1738B628B90
S1131330DF91CF911F910F91FF90EF9008950000DE
S11313400000E2E0F1E0808188608083000000001A
S11313508081877F80830895EF92FF920F931F937C
S1131360CF93DF937C01000000000000E8DF0CE075
S113137010E0C0E0D0E0CC0FDD1F65992196C701D5
S1131380DEDF01501109B9F7C701D9DFC701D7DF83
S1131390C701D5DFCE01DF91CF911F910F91FF904F
S11313A0EF90089582E080936F00E0E8F0E08081A0
S11313B08C7F8083E1E8F0E080818F7E8083808170
S11313C08860808388EA91E69093890080938800FE
S11313D08081836080830895E2E0F1E08081877FEB
S11313E080830895EF92FF921F93CF93DF937C0144
S11313F0162FF2DFC8E0D0E0112314F4A59A01C03F
S1131400A598110F0000C7019ADF2197A9F7A598A5
S1131410DF91CF911F91FF90EF900895CF93DF93C9
S1131420EC01E1E0F1E08081886080839D9A6B9A11
S11314306D986C98EC9AEAE6F0E080818460808391
S11314407894198218821B821A82739A0000000011
S113145073980000000060E9CE01C4DFCE016FDFA5
S1131460CE017ADF739ADF91CF9108950F931F9382
S1131470CF93DF93EC01739864990DC060E9B2DFF8
S1131480CE016ADF8C0164990BC060EDCE01AADF46
S1131490CE0162DF07C000E010E080E090E002C00F
S11314A080E090E0998388831B830A83739A000009
S11314B0CE0145DFDF91CF911F910F910895CF9316
S11314C0DF93EC017BD0CE010C9678D0DF91CF91E5
S11314D008950895AF92BF92CF92DF92EF92FF9258
S11314E00F931F93CF93DF93CDB7DEB72C970FB62F
S11314F0F894DEBF0FBECDBF5C01C982DA82EB82F5
S1131500FC820D831E832F83388749875A876B8714
S11315107C8754D08501045F1F4FC8014FD08CE0F5
S1131520FE013196D50101900D928A95E1F78CE088
S1131530FE017A96D80101900D928A95E1F72C96D6
S11315400FB6F894DEBF0FBECDBFDF91CF911F91D0
S11315500F91FF90EF90DF90CF90BF90AF900895E0
S11315600C96089508959C018CE0FB01D90101902B
S11315700D928A95E1F79CE0FB013C96D9011C96FB
S113158001900D929A95E1F70895EF92FF920F93CF
S11315901F93FC01738362835583448337832683BB
S11315A011870087D70115968D919C911697938783
S11315B082871F910F91FF90EF900895FC01138291
S11315C0128215821482178216821186108613865F
S11315D012860895FC01738362830895FC01758368
S11315E064830895FC01778366830895FC018681F2
S11315F097810895FC01828193810895FC0184817F
S113160095810895FC01808591850895FC0182856A
S113161093850895E89409C097FB3EF490958095CE
S1131620709561957F4F8F4F9F4F9923A9F0F92FA4
S113163096E9BB279395F695879577956795B79522
S1131640F111F8CFFAF4BB0F11F460FF1BC06F5F08
S11316507F4F8F4F9F4F16C0882311F096E911C01A
S1131660772321F09EE8872F762F05C0662371F03B
S113167096E8862F70E060E02AF09A95660F771F4F
S1131680881FDAF7880F9695879597F9089597FB41
S1131690072E16F4009406D077FD08D048D007FC36
S11316A005D03EF4909581959F4F0895709561956E
S11316B07F4F0895A1E21A2EAA1BBB1BFD010DC08A
S11316C0AA1FBB1FEE1FFF1FA217B307E407F507EE
S11316D020F0A21BB30BE40BF50B661F771F881FCA
S11316E0991F1A9469F760957095809590959B0160
S11316F0AC01BD01CF01089505D0332312F48A1B38
S11317009B0B10C0A29FB001B39FC001A39F700D9B
S1131710811D1124911DB29F700D811D1124911DF5
S11317200895F0DFB7FF0895821B930B0895AA1B59
S1131730BB1B51E107C0AA1FBB1FA617B70710F0B8
S1131740A61BB70B881F991F5A95A9F780959095EA
S1131750BC01CD010895EE0FFF1F881F8BBF0790BA
S10D1760F691E02D1994F894FFCFE0
S9030000FC
