S0120000466C617070795F322E302E73726563B7
S113000072C00000A0C000009EC000009CC00000A0
S11300109AC000002FC7000096C0000094C00000E2
S113002092C0000090C000008EC000008CC0000090
S11300308AC0000088C0000086C0000084C00000A0
S113004082C0000056C700007EC000007CC00000D3
S11300507AC0000078C0000076C0000074C00000C0
S113006072C0000070C000006EC000006CC00000D0
S11300706AC0000068C0000066C0000064C00000E0
S113008029C7000060C000005EC000005CC0000022
S11300905AC0000058C0000056C0000054C0000000
S11300A052C0000050C000004EC000004CC0000010
S11300B04AC0000048C0000046C0000044C0000020
S11300C042C0000040C000003EC000003CC0000030
S11300D03AC0000038C0000036C0000034C0000040
S11300E032C000008B0711241FBECFEFD1E2DEBF68
S11300F0CDBF00E00CBF1BE0A0E0B2E0E2E7FFE10F
S113010000E00BBF02C007900D92AA3EB107D9F7D9
S11301102CE0AAEEBBE001C01D92A130B207E1F7CA
S113012010E0C3E7D0E000E006C021970109802F6A
S1130130FE010E94A50FC237D10780E00807A9F786
S113014009D60C94B70F5CCFAF92BF92CF92DF92D7
S1130150EF92FF920F931F93CF93DF93EC01CB01A8
S11301606AEE79E0E0E0F2E0DE01919601900D9212
S113017061507040D9F7FE01E55FF54F62E170E030
S11301807183608332966DE870E071836083998334
S113019088835B834A8339872887EB86FC860D87AF
S11301A01E87188A1F86DC8ACB8A24E630E03C8FBF
S11301B02B8FBA8AA98A25E030E03E8B2D8B0E94D2
S11301C03A096B897C892B8D3C8D620F731F0E94C9
S11301D03B0F6F5F7F4F7E8F6D8F188E1F8A1A8E35
S11301E0198EDF91CF911F910F91FF90EF90DF90C7
S11301F0CF90BF90AF9008950F931F93CF93DF9349
S1130200FC01EB010385148525853685D901C801D8
S1130210072E7DE0880F991FAA1FBB1F7A95D1F77F
S1130220702D082719272A273B27D901C801072E33
S113023071E1B695A795979587957A95D1F7702D25
S113024080279127A227B3278C019D01000F111F3E
S1130250221F331F000F111F221F331F000F111FF6
S1130260221F331F000F111F221F331F000F111FE6
S1130270221F331FBC01CD016027712782279327DA
S113028063877487858796879A012C1B3D0B40E012
S113029050E00E944E0FCE01860F971FDF91CF9141
S11302A01F910F9108952F923F924F925F926F92F8
S11302B07F928F929F92AF92BF92CF92DF92EF92F2
S11302C0FF920F931F93CF93DF93CDB7DEB7C15D3A
S11302D0D1090FB6F894DEBF0FBECDBF5C012DB7B8
S11302E03EB7C053DF4F39832883C05DD0401982A5
S11302F08FEF8A831B8220EC3FE03F832E83188696
S113030019868A878FE190E09E878D878AE28F879E
S1130310888B85EA898B85E89AEA9D8B8C8B81E0B2
S1130320F5018287108E178AE15FF54F8AE090E02D
S113033091838083F50110A2178E858D968D8C0193
S1130340015011099C01220F331F820F931F9C013E
S1130350220F331F220F331F220F331FC253DF4FCD
S113036039832883CE5CD0408DB79EB7821B930B14
S11303700FB6F8949EBF0FBE8DBFEDB7FEB7319692
S1130380C453DF4FF983E883CC5CD0401F010F3F97
S1130390FFEF1F0739F4F501858D968D18161906A0
S11303A08CF00AC1C453DF4FE880F980CC5CD040A4
S11303B0C7010E94090DF8E1EF0EF11C015011096B
S11303C0B8F7E9CFC453DF4F68807980CC5CD04064
S11303D0812C912CC501815F954FC653DF4F9983C2
S11303E08883CA5CD0404FEA50E06BE470E0C501FA
S11303F003DFF501908B87878081918137D7F501E1
S1130400C784D088E188F288FF201CF4FFEFEF1A3C
S1130410FF0AF594E7942C014C185D084E185F0808
S1130420C653DF4FE881F981CA5CD0408081918155
S1130430481A590AF501808191811CD7F501038975
S11304401489A6014E0D5F1D238D348D200F311F9D
S1130450289DB001299D700D389D700D1124680FE1
S1130460791F9E012F5F3F4F79019201CE01825483
S11304709F4F0E946F0DF5018189928999230CF495
S1130480019695958795F501C784D088C81AD90A2D
S113049080819181EFD6F50103891489238D348DF0
S11304A0200F311F289DB001299D700D389D700DBE
S11304B01124680F791F9E012F5F3F4F7901960128
S11304C040E050E0CE018E549F4F0E946F0D8DB7D7
S11304D09EB70C970FB6F8949EBF0FBE8DBFADB7F5
S11304E0BEB711968CE0FE01E254FF4F01900D92CD
S11304F08A95E1F7CE54DF4FC880C25BD040CD541B
S1130500DF4FD880C35BD040CC54DF4FE880C45B5E
S1130510D040CB54DF4FF880C55BD040CA54DF4F86
S11305200881C65BD040C954DF4F1881C75BD040F7
S1130530C854DF4F2881C85BD040C754DF4F38818F
S1130540C95BD040C654DF4F4881CA5BD040C55414
S1130550DF4F5881CB5BD040C454DF4F6881CC5B04
S1130560D040C354DF4F7881CD5BD040CE01865656
S11305709F4F0E94140DBE0166567F4FC3010E9417
S11305805D0DCE0186569F4F0E94130D9FEF891A71
S1130590990AE8E16E0E711C2DB73EB7245F3F4FF8
S11305A00FB6F8943EBF0FBE2DBFF501858D968D15
S11305B0881699060CF417CFC453DF4F288139816C
S11305C0CC5CD040F501358324838CE690E0998F90
S11305D0888F86E490E09F8B8E8BFE017A969E0135
S11305E026563F4F80EC9FEF819391932E173F0740
S11305F0D9F7CE014696F50197838683E15FF54FDF
S113060020813181AE01415F5F4FBE01685F7F4F42
S1130610F50180819181E6D7F50126813781458DE9
S1130620568D648175818081918155D7C453DF4F84
S1130630E880F980CC5CD040C253DF4F28813981F7
S1130640CE5CD040E20EF31E2E143F0449F038E194
S1130650E31AF108C7010E94130D2E143F04B9F7E1
S1130660C053DF4F88819981C05DD0400FB6F894A4
S11306709EBF0FBE8DBFCF52DF4F0FB6F894DEBFC3
S11306800FBECDBFDF91CF911F910F91FF90EF90DF
S1130690DF90CF90BF90AF909F908F907F906F909E
S11306A05F904F903F902F900895EF92FF920F9399
S11306B0CF93DF93EC01062F662319F018A21F8E47
S11306C005C08F8D98A1019698A38F8FEE80FF802F
S11306D08F8D98A16AE070E00E943B0F072E000CFA
S11306E0880B990B0E944C0EAB01BC0197018885C5
S11306F0998536D4DF91CF910F91FF90EF900895B3
S1130700FC01828508953F924F925F926F927F928F
S11307108F929F92AF92BF92CF92DF92EF92FF920D
S11307200F931F93CF93DF93CDB7DEB768970FB6C0
S1130730F894DEBF0FBECDBF6C01DC018D919C919E
S113074095D5F601E15FF54F20813181821B930B32
S1130750D6011696ED91FC91179720813181275E81
S11307603F4F821793070CF4C2C05D968D919C9104
S11307705E97181619060CF0BCC0A12CB12C812C64
S1130780912C412C33243394F601048115810A0DF4
S11307901B1DE680F780C8010E945A0DFC019CE0F5
S11307A0DE011D9601900D929A95E1F7C8010E9411
S11307B05C0DFC019CE0DE01119601900D929A956E
S11307C0E1F7D7016D907C90CE010D960E94A40DA7
S11307D08C01CE010D960E94AC0D800F911F6816FE
S11307E079060CF08AC0F70100811181005E1F4F69
S11307F0CE010D960E94A40D8017910714F5D70120
S113080012966D907C901397CE010D960E94A80DC0
S11308108C01CE010D960E94A00D800F911F6816C9
S113082079068CF4F70102811381075E1F4FCE0114
S11308300D960E94A80D532C801791072CF0542C70
S113084003C0542C01C0542CD7016D907C90CE0170
S113085001960E94A40D8C01CE0101960E94AC0D5C
S1130860800F911F681679060CF05BC001C0542CF0
S1130870F70100811181005E1F4FCE0101960E9495
S1130880A40D801791070CF04CC0D70112966D90FF
S11308907C901397CE0101960E94A80D8C01CE0185
S11308A001960E94A00D800F911F68167906CCF561
S11308B0F70102811381075E1F4FCE0101960E944A
S11308C0A80D51102CC080179107ACF0FFEF8F1AC0
S11308D09F0A88E1A80EB11CD6015D968D919C916A
S11308E05E97881699060CF44FCF80E01DC081E016
S11308F01BC080E019C081E017C0F70160807180DF
S1130900CE0101960E94A40D8C01CE0101960E9495
S1130910AC0D800F911F68167906C4F6A8CF81E04C
S113092003C05110FCCFD2CF68960FB6F894DEBF47
S11309300FBECDBFDF91CF911F910F91FF90EF902C
S1130940DF90CF90BF90AF909F908F907F906F90EB
S11309505F904F903F900895CF92DF92EF92FF9275
S11309600F931F93CF93DF93CDB7DEB72C970FB6BA
S1130970F894DEBF0FBECDBFFC01258D368D121657
S1130980130644F56C0100E010E0E12CF12CF601B3
S113099084819581800F911F0E945A0DFC019CE077
S11309A0DE01119601900D929A95E1F7CE01019620
S11309B00E94A40D8534910579F0FFEFEF1AFF0A28
S11309C0085E1F4FF601858D968DE816F906FCF238
S11309D080E003C080E001C081E02C960FB6F8945B
S11309E0DEBF0FBECDBFDF91CF911F910F91FF905E
S11309F0EF90DF90CF9008956F927F928F929F92A5
S1130A00AF92BF92CF92DF92EF92FF920F931F9318
S1130A10CF93DF93FC01258D368D121613060CF04F
S1130A209CC0EC01E12CF12CA12CB12C3C01F1EF88
S1130A306F1AF5EF7F0A8C819D818E0D9F1D0E9498
S1130A405A0D8C018C819D818E0D9F1D0E945C0D21
S1130A504C01C8010E94A40D2D893E89BC01621B72
S1130A60730BC8010E94940DC4010E94A40D2D892A
S1130A703E89BC01621B730BC4010E94940DC80122
S1130A800E94A40D6C01C8010E94AC0D8C0D9D1D2B
S1130A9099230CF04DC088819981ECD3BC01C80125
S1130AA00E94940D88819981E5D3BC01C4010E9400
S1130AB0940D48EC50E062E370E0CE019DDB988B2E
S1130AC08F8729893A89332314F42F5F3F4F359553
S1130AD02795BC01621B730BC4010E949C0D69899C
S1130AE07A89772314F46F5F7F4F759567958F85A7
S1130AF09889680F791FC8010E94980D888199818F
S1130B00B5D34F855889F30120813181420F531F9A
S1130B1029893A89332314F42F5F3F4F359527955C
S1130B20240F351FBC01621B730BC8010E949C0D6E
S1130B30CE0112DF882329F08F89988D0196988F32
S1130B408F8BFFEFAF1ABF0A88E1E80EF11C8D8D81
S1130B509E8DA816B9060CF46ECFDF91CF911F912C
S1130B600F91FF90EF90DF90CF90BF90AF909F9048
S1130B708F907F906F900895FF920F931F93CF9360
S1130B80DF93EC01F62E2E813F814D8D5E8D6C81BD
S1130B907D810FE110E088819981D1D3CE012CDFD2
S1130BA06F2DCE0182DD2E813F814D8D5E8D6C8156
S1130BB07D81888199818FD4DF91CF911F910F918D
S1130BC0FF9008954F925F926F927F928F929F92BF
S1130BD0AF92BF92CF92DF92EF92FF920F931F9347
S1130BE0CF93DF93CDB7DEB72E970FB6F894DEBF61
S1130BF00FBECDBF3C014DB65EB619821A828FEF8F
S1130C008B838FE190E09F838E838AE28887898734
S1130C1085EA8A8785E89AEA9E878D87F301E15FF2
S1130C20F54F20813181AE01485F5F4FBE016F5F98
S1130C307F4FF30180819181D5D4F301E35FF54FB8
S1130C40008111813297E080F1808E809F800E9D1B
S1130C5090010F9D300D1E9D300D1124032E000CAC
S1130C60440B550BB3016F5D7F4F1F921F920F2EE4
S1130C70F0E5AF2EB12CF02D0F2EF0EACF2ED12CB3
S1130C80F02DF3018081918165D5F301858C968CDB
S1130C908401015011095401AA0CBB1C8A0C9B1C31
S1130CA0880C991C880C991C880C991C0F900F9027
S1130CB08DB79EB7881999090FB6F8949EBF0FBED9
S1130CC08DBFEDB7FEB731965F016F010F3FFFEFA8
S1130CD01F0749F07501C7019CD688E1E80EF11C95
S1130CE001501109C0F7F301B582A4828789908D60
S1130CF0218D328D2817390714F4928F818FF301D7
S1130D001286A80CB91CCA14DB0441F0F8E1AF1A2E
S1130D10B108C50188D6CA14DB04C1F70FB6F8942C
S1130D205EBE0FBE4DBE2E960FB6F894DEBF0FBE4C
S1130D30CDBFDF91CF911F910F91FF90EF90DF9086
S1130D40CF90BF90AF909F908F907F906F905F9067
S1130D504F900895CF93DF93CDB7DEB7CD51DA40EE
S1130D600FB6F894DEBF0FBECDBF1092EB0B80E23E
S1130D708093C00088E18093C10086E08093C20024
S1130D8087E690E09093C5008093C4008DEE9BE0CD
S1130D90EFD540EF50E060E471E0CE01019696D1CA
S1130DA0CE010196F2D1CE010596CED00F2EF4E6F7
S1130DB0AF2EB12CF02D0F2EFEE1CF2ED12CF02D25
S1130DC01AE2E12EF12C00E010E09E012B5F3F4F70
S1130DD04DEE5BE0BE016F5F7F4FCE010D96B4D93F
S1130DE0CE010D9660DA82E080937100E0E9F0E0D4
S1130DF080818C7F8083E1E9F0E080818F7E808335
S1130E008081886080838AE698E19093990080933A
S1130E109800808184608083CE010D9671DC8823E4
S1130E2099F0CE010D966FDC81110EC08091EC0B10
S1130E30882391F36091EA0BCE010D969DDE10920A
S1130E40EC0B1092EA0BE8CFCE010D9659DC811120
S1130E5008C08091EA0B8823F1F3CE010D9623DAC2
S1130E60DBCFCE010D964FDC8823B1F2CE010D9677
S1130E70A9DED2CF1F920F920FB60F9211240BB698
S1130E800F922F933F934F935F936F937F938F931F
S1130E909F93AF93BF93EF93FF9381E08093EA0B0B
S1130EA0EC988DEE9BE08CD58DEE9BE025D5FF91E3
S1130EB0EF91BF91AF919F918F917F916F915F91CE
S1130EC04F913F912F910F900BBE0F900FBE0F903B
S1130ED01F9018951F920F920FB60F9211248F93A3
S1130EE081E08093EC0B8F910F900FBE0F901F90B9
S1130EF018951F920F920FB60F92112410926F0043
S1130F001092800010928100E49AEC9A0F900FBE28
S1130F100F901F901895EF92FF920F931F930F2E2F
S1130F20F0EFEF2EF12CF02D00E411E02FEF3FE075
S1130F3040E951E060E971E08DEE9BE081D41F91BE
S1130F400F91FF90EF900895FC011182108213829B
S1130F501282158214828EE190E09783868308952D
S1130F602F923F924F925F926F927F928F929F92B5
S1130F70AF92BF92CF92DF92EF92FF920F93CF93F3
S1130F80DF93EC014A015B011901F901828193812C
S1130F90998388830023E1F08E819F819C019923AA
S1130FA014F42D5F3F4F35952795359527954A8144
S1130FB05B814217530764F01D821C8291958195D1
S1130FC091090AF40196959587959B838A831BC0A2
S1130FD06E817F81072E000C880B990B5DD6A501CD
S1130FE09401E6D66B017C016C817D81072E000C97
S1130FF0880B990B51D69B01AC01C701B601B5D53D
S113100018D67D836C838E819F812C813D81281726
S1131010390714F09D838C836C817D81072E000C2D
S1131020880B990B39D6A5019401C2D66B017C01BA
S11310306A817B81072E000C880B990B2DD69B01AE
S1131040AC01C701B60191D5F4D56B017C017B835A
S11310506A8368817981072E000C880B990B1CD652
S11310602B013C01B601DD0C880B990B15D6A501AB
S113107094019ED69B01AC01C301B20176D5D9D5AA
S113108079836883F10173836283DF91CF910F9138
S1131090FF90EF90DF90CF90BF90AF909F908F9094
S11310A07F906F905F904F903F902F9008955F983E
S11310B068B9A2980000A29A000008955F9A72B9D4
S11310C068B9A2980000A29A00000895FC017383F5
S11310D0628351834083089569E270E0E8CF089504
S11310E061E170E0E4DF8FE39CE90197F1F700C070
S11310F00000089524B344B381E090E0BC0102C031
S1131100660F771F2A95E2F79B01209530952423DB
S113111024BB7FEF29E638E1715020403040E1F7ED
S113112000C0000034B324B302C0880F991F3A955D
S1131130E2F7822B84BB4FEF68E576E041506040D4
S11311407040E1F700C0000008950F931F93CF9300
S11311508C01C62F66E370E0AADF6C2F70E0C80133
S1131160ADDFCF911F910F9108950F931F93CF93EC
S11311708C01C62F6AE370E09ADF6C2F70E0C8011F
S11311809DDFCF911F910F910895CF93DF93EC01D1
S1131190579A8FEF81B987B99A9A999A989A5F9AD0
S11311A0A29AA198A09ACE01A5DFCE0199DFCE0123
S11311B093DF8FE19EE40197F1F700C0000068E03F
S11311C0CE01C3DF65E0CE01D0DFDF91CF9108957A
S11311D06CE270E06CCF0895EF92FF920F931F932F
S11311E0CF93DF93EC01E62E072FF42E152F6AE23E
S11311F070E05DDF602F70E0CE0160DF6E2D702F38
S1131200CE015CDF612F70E0CE0158DF6F2D712FAE
S1131210CE0154DFDF91CF911F910F91FF90EF909A
S11312200895EF92FF920F931F93CF93DF93EC01F6
S1131230E62E072FF42E152F6BE270E038DF602FB7
S113124070E0CE013BDF6E2D702FCE0137DF612FB2
S113125070E0CE0133DF6F2D712FCE012FDFDF91D0
S1131260CF911F910F91FF90EF900895FC01808121
S113127091810895FC0182819381089560E270E078
S113128016CF08954F925F926F927F92AF92BF9262
S1131290CF92DF92EF92FF920F931F93CF93DF933E
S11312A0EC013A01690157014A815B8146175707EE
S11312B0BCF1CB01820F931F4817590738F00097F0
S11312C029F077231CF4AC0160E070E0415051092F
S11312D0CE01A7DFA80141505109460D571DB301A6
S11312E0CE017ADFCE0174DF9601D801FFD52B0140
S11312F03C01161617061806190684F4C12CD12CC5
S11313007601B501CE01DADE8FEFC81AD80AE80AF1
S1131310F80A4C145D046E047F0499F7CE01AEDF25
S1131320DF91CF911F910F91FF90EF90DF90CF90BD
S1131330BF90AF907F906F905F904F9008952F92E1
S11313403F924F925F926F927F928F929F92AF9251
S1131350BF92CF92DF92EF92FF920F931F93CF939E
S1131360DF93CDB7DEB728970FB6F894DEBF0FBE74
S1131370CDBF9C838B835A013E832D833801141681
S113138015060CF041C0C62ED72E812C912CC60117
S113139091D398878F83C6018FD38C01D5D39A8339
S11313A08983C801D9D32C01C801D2D31C01C80137
S11313B0C7D373018C019201A10169817A818B8168
S11313C09C8160DF8F819885BFD39A8389838F81C5
S11313D09885C2D32C018F819885BAD31C018F8143
S11313E09885AED38C019201A10169817A818B81A8
S11313F09C8148DF8FEF881A980AE8E1CE0ED11C51
S1131400A814B90409F0C3CFED81FE814281538150
S113141060817181730109E110E020E230E08B8189
S11314209C8130DF28960FB6F894DEBF0FBECDBF87
S1131430DF91CF911F910F91FF90EF90DF90CF90AC
S1131440BF90AF909F908F907F906F905F904F90E0
S11314503F902F900895AF92BF92CF92DF92EF9278
S1131460FF920F931F93CF93DF938C015B01FB01DA
S113147060817181C281D381AB01415E5F4FD1DE56
S1131480AE01485E5F4FBE01C801A6DEC801A0DE02
S11314900F2EF9E1CF2ED12CF02D7501F4E4EF0ECF
S11314A0F11CE501249669917991C80107DECE15F6
S11314B0DF05C9F781E0C81AD10899F7C801DEDE53
S11314C0DF91CF911F910F91FF90EF90DF90CF901C
S11314D0BF90AF9008952F923F924F925F926F9278
S11314E07F928F929F92AF92BF92CF92DF92EF92B0
S11314F0FF920F931F93CF93DF93CDB7DEB7289757
S11315000FB6F894DEBF0FBECDBF9A8389835A010C
S11315103E832D83141615060CF046C0C62ED72E16
S1131520812C912CC601C6D298878F83C601C4D260
S11315308C010AD39C838B83C8010ED32C01C80170
S113154007D31C01C801FCD23C01C80109D37C01AA
S113155083019201A1016B817C8189819A8192DE50
S11315608F819885F1D21C018F819885F5D23C0139
S11315708F819885EDD22C018F819885E1D28C01E1
S11315808F819885EDD27C019301A201B1018981FB
S11315909A8178DE8FEF881A980A88E1C80ED11CE8
S11315A0A814B90409F0BECF6D817E8189819A8126
S11315B052DF28960FB6F894DEBF0FBECDBFDF9181
S11315C0CF911F910F91FF90EF90DF90CF90BF903C
S11315D0AF909F908F907F906F905F904F903F90CF
S11315E02F9008952F923F924F925F926F927F9225
S11315F08F929F92AF92BF92CF92DF92EF92FF921F
S11316000F931F93CF93DF9300D01F92CDB7DEB714
S11316109C838B833A832983FB0125803680FA01DE
S113162005811681FC01428153814150510960E0DA
S113163070E0F7DDEB81FC814081518189819A81E1
S1131640481B590B4150510960E070E0CF01C4DDE3
S11316508B819C81BDDDE981FA812F01FF0F660832
S11316607708EB81FC8122813381A081B18138D458
S11316704B015C0184189508A608B70818141904CE
S11316801A041B048CF4C12CD12C7601B1018B817A
S11316909C8114DDFFEFCF1ADF0AEF0AFF0A8C14D6
S11316A09D04AE04BF0491F78B819C81E7DDEB813F
S11316B0FC81428153814150510960E070E0CF01C7
S11316C0B0DDEB81FC8160817181AB014150510936
S11316D089819A81681B790BCF017EDD8B819C8186
S11316E077DDEB81FC81A281B381A301920113D444
S11316F04B015C0116161706180619068CF4C12C4A
S1131700D12C7601B8018B819C81D8DCFFEFCF1AF4
S1131710DF0AEF0AFF0A8C149D04AE04BF0491F79C
S11317208B819C81ABDD0F900F900F900F90DF9118
S1131730CF911F910F91FF90EF90DF90CF90BF90CA
S1131740AF909F908F907F906F905F904F903F905D
S11317502F9008952F923F924F925F926F927F92B3
S11317608F929F92AF92BF92CF92DF92EF92FF92AD
S11317700F931F93CF93DF931F921F92CDB7DEB7C2
S11317803C0169837A8319012A01C80111230CF4ED
S1131790019695958795B601681B790BC701FF20C3
S11317A00CF4019695958795A81AB90A0150110968
S11317B0A801460F571FC30134DD81E0E81AF10880
S11317C0A7014A0D5B1DB501C30106DDC30100DDA0
S11317D01214130414041504E4F409811A81C12CAD
S11317E0D12C7601F80181918F01811104C0B401DB
S11317F0C30164DC04C0688D798DC3015FDCFFEF35
S1131800CF1ADF0AEF0AFF0A2C143D044E045F04CA
S113181049F7C30133DD0F900F90DF91CF911F91F2
S11318200F91FF90EF90DF90CF90BF90AF909F907B
S11318308F907F906F905F904F903F902F9008957E
S1131840EF92FF920F931F93CF93DF93FC01EA0172
S113185075836483578346831186108615870487AE
S1131860F786E68633872287C901861B970BB80162
S113187002D3718B608BC9018C1B9D0BB701FBD20A
S1131880738B628BDF91CF911F910F91FF90EF903B
S1131890089500000000E2E0F1E080818860808328
S11318A0000000008081877F80830895EF92FF927B
S11318B00F931F93CF93DF937C010000000000007F
S11318C0E8DF0CE010E0C0E0D0E0CC0FDD1F65994C
S11318D02196C701DEDF01501109B9F7C701D9DF2D
S11318E0C701D7DFC701D5DFCE01DF91CF911F91AB
S11318F00F91FF90EF90089582E080936F00E0E8ED
S1131900F0E080818C7F8083E1E8F0E080818F7E4D
S1131910808380818860808384ED90E39093890044
S1131920809388008081836080830895E2E0F1E001
S11319308081877F80830895EF92FF921F93CF93D6
S1131940DF937C01162FF2DFC8E0D0E0112314F4FA
S1131950A59A01C0A598110F0000C7019ADF21972D
S1131960A9F7A598DF91CF911F91FF90EF9008956B
S1131970CF93DF93EC01E1E0F1E080818860808324
S11319809D9A6B9A6D986C98EC9AEAE6F0E08081E7
S1131990846080837894198218821B821A82739AD5
S11319A00000000073980000000060E9CE01C4DF6D
S11319B0CE016FDFCE017ADF739ADF91CF91089564
S11319C00F931F93CF93DF93EC01739864990DC029
S11319D060E9B2DFCE016ADF8C0164990BC060ED6F
S11319E0CE01AADFCE0162DF07C000E010E080E094
S11319F090E002C080E090E0998388831B830A838F
S1131A00739A0000CE0145DFDF91CF911F910F91B2
S1131A100895CF93DF93EC017BD0CE010C9678D060
S1131A20DF91CF9108950895AF92BF92CF92DF9244
S1131A30EF92FF920F931F93CF93DF93CDB7DEB74F
S1131A402C970FB6F894DEBF0FBECDBF5C01C982E0
S1131A50DA82EB82FC820D831E832F8338874987C9
S1131A605A876B877C8754D08501045F1F4FC80158
S1131A704FD08CE0FE013196D50101900D928A95EC
S1131A80E1F78CE0FE017A96D80101900D928A95D7
S1131A90E1F72C960FB6F894DEBF0FBECDBFDF91F1
S1131AA0CF911F910F91FF90EF90DF90CF90BF9057
S1131AB0AF9008950C96089508959C018CE0FB0165
S1131AC0D90101900D928A95E1F79CE0FB013C96C7
S1131AD0D9011C9601900D929A95E1F70895EF9221
S1131AE0FF920F931F93FC01738362835583448396
S1131AF03783268311870087D70115968D919C9192
S1131B001697938782871F910F91FF90EF90089506
S1131B10FC011382128215821482178216821186A6
S1131B201086138612860895FC01738362830895D8
S1131B30FC01758364830895FC01778366830895AB
S1131B40FC01868197810895FC0182819381089527
S1131B50FC01848195810895FC0180859185089517
S1131B60FC018285938508955058BB27AA270ED07F
S1131B70E5C0D6D030F0DBD020F031F49F3F11F433
S1131B801EF4CBC00EF4E095E7FBC1C0E92FE7D00B
S1131B9080F3BA17620773078407950718F071F486
S1131BA09EF5FFC00EF4E0950B2EBA2FA02D0B016D
S1131BB0B90190010C01CA01A0011124FF27591B8E
S1131BC099F0593F50F4503E68F11A16F040A22F94
S1131BD0232F342F4427585FF3CF46953795279505
S1131BE0A795F0405395C9F77EF41F16BA0B620B04
S1131BF0730B840BBAF09150A1F0FF0FBB1F661F4B
S1131C00771F881FC2F70EC0BA0F621F731F841F8D
S1131C1048F4879577956795B795F7959E3F08F0B3
S1131C20B3CF9395880F08F09927EE0F9795879572
S1131C30089504D06894B111B5C0089598D088F07F
S1131C409F5790F0B92F9927B751A0F0D1F0660FA4
S1131C50771F881F991F1AF0BA95C9F712C0B130BF
S1131C6081F09FD0B1E008959CC0672F782F88271A
S1131C70B85F39F0B93FCCF3869577956795B395FE
S1131C80D9F73EF490958095709561957F4F8F4F6D
S1131C909F4F0895E89409C097FB3EF49095809572
S1131CA0709561957F4F8F4F9F4F9923A9F0F92F1E
S1131CB096E9BB279395F695879577956795B7959C
S1131CC0F111F8CFFAF4BB0F11F460FF1BC06F5F82
S1131CD07F4F8F4F9F4F16C0882311F096E911C094
S1131CE0772321F09EE8872F762F05C0662371F0B5
S1131CF096E8862F70E060E02AF09A95660F771FC9
S1131D00881FDAF7880F9695879597F9089597F9BC
S1131D109F6780E870E060E008959FEF80EC08958D
S1131D2000240A94161617061806090608950024B6
S1131D300A9412161306140605060895092E039430
S1131D40000C11F4882352F0BB0F40F4BF2B11F4A4
S1131D5060FF04C06F5F7F4F8F4F9F4F089557FD03
S1131D609058440F551F59F05F3F71F04795880F05
S1131D7097FB991F61F09F3F79F08795089512169C
S1131D8013061406551FF2CF4695F1DF08C0161648
S1131D9017061806991FF1CF8695710561050894F9
S1131DA00895E894BB2766277727CB0197F9089510
S1131DB00BD0C4CFB5DF28F0BADF18F0952309F0B3
S1131DC0A6CFABCF1124EECFCADFA0F3959FD1F3FA
S1131DD0950F50E0551F629FF001729FBB27F00DD5
S1131DE0B11D639FAA27F00DB11DAA1F649F66272A
S1131DF0B00DA11D661F829F2227B00DA11D621F79
S1131E00739FB00DA11D621F839FA00D611D221F32
S1131E10749F3327A00D611D231F849F600D211D16
S1131E20822F762F6A2F11249F5750408AF0E1F0B9
S1131E3088234AF0EE0FFF1FBB1F661F771F881F02
S1131E4091505040A9F79E3F510570F060CFAACF42
S1131E505F3FECF3983EDCF3869577956795B795ED
S1131E60F795E7959F5FC1F7FE2B880F911D969517
S1131E70879597F9089597FB072E16F4009406D0DA
S1131E8077FD08D04ED007FC05D03EF4909581959F
S1131E909F4F0895709561957F4F0895A1E21A2E82
S1131EA0AA1BBB1BFD010DC0AA1FBB1FEE1FFF1FFA
S1131EB0A217B307E407F50720F0A21BB30BE40B4A
S1131EC0F50B661F771F881F991F1A9469F7609591
S1131ED07095809590959B01AC01BD01CF0108954B
S1131EE005D0332312F48A1B9B0B10C0A29FB001B0
S1131EF0B39FC001A39F700D811D1124911DB29F3A
S1131F00700D811D1124911D0895F0DFB7FF089510
S1131F10821B930B0895B7FF20C01FD0821B930B25
S1131F200895AA1BBB1B51E107C0AA1FBB1FA6171C
S1131F30B70710F0A61BB70B881F991F5A95A9F76E
S1131F4080959095BC01CD010895EE0FFF1F881F69
S1131F508BBF0790F691E02D1994C8DFA59F900DD3
S1131F60B49F900DA49F800D911D11240895F894A1
S1051F70FFCF9D
S1131F720000000101010101010101000000000053
S1131F82000000000000000000000000000000004B
S1131F92000000000000000000000000000000003B
S1131FA2000000000000000000000000000000002B
S1131FB2000000000000000000000000000000001B
S1131FC20000000101010101010000000000000005
S1131FD200000000000000000000000000000000FB
S1131FE200000000000000000000000000000000EB
S1131FF200000000000000000000000000000000DB
S113200201010101010101010000000000000000C2
S113201200000000000000000000000000000000BA
S113202200000000000000000000000000000000AA
S1132032000000000000000000000000000000009A
S1132042000000000000000000000000000000008A
S11320520101010101010000000000000000000074
S1132062000000000000000000000000000000006A
S1132072000000000000000000000000000000005A
S11320820000000000000000000000010101010046
S11320920000000101010100000000000000000036
S11320A2000000000000000000000000000000002A
S11320B2000000000000000000000000000000001A
S11320C2000000000000000000000000000000000A
S11320D200000000000000000000000101010100F6
S11320E200010101010000000000000000000000E6
S11320F200000000000000000000000000000000DA
S113210200000000000000000000000000000000C9
S113211200000000000000000101010100000000B5
S113212201010101000000000000000000000000A5
S11321320000000000000000000000000000000099
S11321420000000000000000000000000000000089
S11321520000000000000000000000000000000079
S11321620000000000000000010101010000010163
S11321720101000000000000000000000000000057
S11321820000000000000000000000000000000049
S11321920000000000000000000000000000000039
S11321A20000000001010100000000000001010123
S11321B20100000000000000000000000000000018
S11321C20000000000000000000000000000000009
S11321D200000000000000000000000000000000F9
S11321E200000000000000000000000000000000E9
S11321F200000001010101000000000000010101D2
S113220201000000000000000000000000000000C7
S113221200000000000000000000000000000000B8
S113222200000000000000000000000000000000A8
S11322320001010100000000000001010101000091
S11322420000000000000000000000000000000088
S11322520000000000000000000000000000000078
S11322620000000000000000000000000000000068
S11322720000000000000000000000000000000058
S11322820101010100000000000001010101000040
S11322920000000000000000000000000000000038
S11322A20000000000000000000000000000000028
S11322B20000000000000000000000000000010116
S11322C20100000000000000000000000000000106
S11322D201010101010101000000000000010101EE
S11322E201010101010101010100000000000001DE
S11322F201010101010101000000000000000000D1
S113230200000000000000000000000000010101C4
S113231201000000000000010101010000010101AF
S113232201000000000101010100000000000001A1
S1132332010101010101010000000000000101018D
S1132342010101000001010101000001010100007D
S11323520000000000000000000000000101010173
S1132362010101010000000000000101010101015D
S1132372010101010101000000000000010101014D
S11323820101010100000000000000000000000043
S11323920000000000000000000001010101000033
S11323A2000000000101010100000101010100001F
S11323B2000001010101000000000000010101010F
S11323C201010101000000000000010101010101FD
S11323D200000101010100000101010000000000F0
S11323E200000000000000000000000000000001E6
S11323F201010100000000010101010000010100CE
S113240200010101010000010101010000000001BD
S113241201010100000000000000000000000000B3
S113242200000000000000010101010000000000A2
S1132432000101010100000101010100000000018D
S1132442010101000000000101010100000000017E
S1132452010101000000000000010101010000016E
S1132462010101010101010100000000000000005E
S11324720000000000000000000000000101010152
S1132482000000000101010100000101000001013E
S1132492010100000101010100000000010101012C
S11324A20000000000000000000000000000000026
S11324B20000000001010101000000000000010110
S11324C201010000010101010000000001010101FC
S11324D200000000010101010000000001010101EE
S11324E200000000000001010101000001010101DE
S11324F201010101010000000001010101010100CB
S113250200000001010101010101010101000000BB
S113251200010101010000010100000101010100AB
S11325220001010101010101010101010100000099
S11325320000000000000000000000000000000095
S1132542000101010100000000000001010101007D
S1132552000101010100000000010101010000006D
S11325620001010101010101010101010100000059
S1132572000000010101010101000001010101014A
S1132582010100000000010101010101000000003D
S11325920101010101010101010100000000010129
S11325A2010100000101000001010101000001011B
S11325B2010101010101010101010000000000000B
S11325C20000000000000000000000000000010103
S11325D201010000000000000101010100000101ED
S11325E201010000000001010101000000000101DD
S11325F201010101010101010101000000000000CB
S113260201010101010100000101010101010100B7
S113261200000000000101010100000101010100AC
S1132622000000010101010000000001010101009C
S1132632000101000001010101000001010101008A
S11326420000000000000000000000000000000084
S11326520000000000000000000000010101010070
S1132662000000000001010101000001010101005C
S1132672000000010101010000000001010101004C
S11326820000000000000000000000000001010141
S11326920100000000000000000101010000000030
S11326A2000001010101000001010101000000001C
S11326B2010101010000000001010101000001010A
S11326C200000101010100000101010100000000FC
S11326D200000000000000000000000000000000F4
S11326E200000000000000000101010100000000E0
S11326F200000101010100000101010100000000CC
S113270201010101000000000101010100000000BB
S113271200000000000000000000010101010000AF
S1132722000000000000000101010100000000019E
S11327320101010000010101010000000001010189
S1132742010000000001010101000001010000017B
S11327520101010000010101010000000001010169
S11327620100000000000000000000000000000062
S1132772000000000000000101010100000101014C
S1132782010000000000000101010101010101003A
S1132792000000000001010101000000000101012C
S11327A2010000000000000101010100000000001E
S11327B2000000000101010100000000010101010B
S11327C200000101010100000000010101010000FB
S11327D200000101010100000101000001010101E9
S11327E200000101010100000000010101010000DB
S11327F200000000000000000000000000000000D3
S113280200000000010101010000010101010000BA
S113281200000000010101010101010100000000AA
S1132822000001010101000000000101010100009A
S1132832000000000101010100000000000000008E
S11328420000000101010101010101010100000078
S11328520001010101010100000101010100000167
S1132862010101000000000000010101010000005B
S1132872000101010101010101000000000000004A
S11328820000000000000000000000000000000042
S1132892000000010101010101000000000000002C
S11328A2000000010101010000000000000000001E
S11328B20001010101010101010000000000000109
S11328C201010101010101000000000000000000FB
S11328D201010101010101010101000000000101E6
S11328E201010101000001010101000001010101D6
S11328F200000000000001010101000000000101CC
S113290201010101010100000000000000000000BB
S113291200000000000000000000000000000000B1
S1132922010101010101000000000000000000009B
S1132932010101010000000000000000000001018B
S11329420101010101010000000000000101010177
S10D29520101010100000000000073
S9030000FC
