S0120000466C617070795F322E302E73726563B7
S113000072C000009EC000009CC000009AC00000A6
S113001098C00000F8C0000094C0000092C0000026
S113002090C000008EC000008CC000008AC0000098
S113003088C0000086C0000084C0000082C00000A8
S113004080C000007EC000007CC000007AC00000B8
S113005078C0000076C0000074C0000072C00000C8
S113006070C000006EC000006CC000006AC00000D8
S113007068C0000066C0000064C0000062C00000E8
S113008060C000005EC000005CC000005AC00000F8
S113009058C0000056C0000054C0000052C0000008
S11300A050C000004EC000004CC000004AC0000018
S11300B048C0000046C0000044C0000042C0000028
S11300C040C000003EC000003CC000003AC0000038
S11300D038C0000036C0000034C0000032C0000048
S11300E030C000000D0111241FBECFEFD1E2DEBFEE
S11300F0CDBF00E00CBF12E0A0E0B2E0ECE1F4E020
S113010000E00BBF02C007900D92A430B107D9F7ED
S113011022E0A4E0B2E001C01D92A031B207E1F7F1
S113012010E0C3E7D0E000E005C021970109802F6B
S1130130FE0137D1C237D10780E00807B1F733D0C9
S11301406BC15ECFE0ECF0E0908195FFFDCF809332
S1130150C6000895CF93DF93EC018881882329F0AA
S11301602196F0DF89918111FCCFDF91CF91089521
S1130170CF93DF93CDB7DEB727970FB6F894DEBFE2
S11301800FBECDBF4AE0BE016F5F7F4F12D1CE01DB
S11301900196E0DF27960FB6F894DEBF0FBECDBF01
S11301A0DF91CF91089580E28093C00088E180932D
S11301B0C10086E08093C20087E690E09093C5007A
S11301C08093C40088E092E099D080E092E0C2DF9E
S11301D0C4E0D2E088E092E02BD08823D9F388E011
S11301E092E0B9D088E092E01DD06093040270934D
S11301F005028093060290930702CB01B9DF8A813E
S11302009B81B6DFE7CF1F920F920FB60F92112496
S11302100F900FBE0F901F90189588E092E001C0D8
S113022008950895FC0164817581868197810895FC
S11302308DB1807E8DB98EB16C9A8295817091E07A
S11302408927089500000000000000000000E2E09B
S1130250F1E08081886080830000000000000000DD
S113026000008081877F80830895EF92FF920F932F
S11302701F93CF93DF937C010CE010E0C0E0D0E04B
S1130280CC0FDD1FC701DEDF7599219601501109DE
S1130290B9F7C701D7DFC701D5DFC701D3DFCE0167
S11302A0DF91CF911F910F91FF90EF900895E2E0BD
S11302B0F1E08081877F80830895EF92FF921F93FE
S11302C0CF93DF937C01162FF2DFC8E0D0E0112337
S11302D014F4A59A01C0A598110F0000C701B2DF5C
S11302E02197A9F7A598000000000000C701AADF24
S11302F0DF91CF911F91FF90EF900895CF93DF93FB
S1130300EC01E1E0F1E08081886080836B9A9D9A42
S11303108DB1807C8DB96C9AEC9AEAE6F0E080812C
S11303208260808378941D821C821F821E82739A4D
S1130330E2E0F1E08081886080837398000000002F
S113034060E9CE01BADFCE017DDFCE018EDF739A84
S1130350DF91CF9108950F931F93CF93DF93EC0117
S113036073988DB1807E8DB9749911C060E9CE0106
S1130370A4DFCE017ADF8C01749909C060EDCE014F
S11303809CDFCE0172DF1D830C839F838E836C9A66
S1130390739A0000CE0156DFDF91CF911F910F9128
S11303A00895EE0FFF1F881F8BBF0790F691E02D75
S11303B01994BB274A3031F4992322F4BDE2909575
S11303C081959F4F01C0BB27FB015527AA27880FA2
S11303D0991FAA1FA41710F0A41B83955051B9F7B5
S11303E0A05DAA3308F0A95DA193009779F7B11134
S11303F0B1931192CB0100C0DC01FC01672F719114
S11304007723E1F7329704C07C916D9370836291F6
S10F0410AE17BF07C8F30895F894FFCF9F
S107041C52535400DF
S9030000FC
