S0120000466C617070795F322E302E73726563B7
S113000072C00000A0C000009EC000009CC00000A0
S11300109AC000001BC7000096C0000094C00000F6
S113002092C0000090C000008EC000008CC0000090
S11300308AC0000088C0000086C0000084C00000A0
S113004082C0000042C700007EC000007CC00000E7
S11300507AC0000078C0000076C0000074C00000C0
S113006072C0000070C000006EC000006CC00000D0
S11300706AC0000068C0000066C0000064C00000E0
S113008015C7000060C000005EC000005CC0000036
S11300905AC0000058C0000056C0000054C0000000
S11300A052C0000050C000004EC000004CC0000010
S11300B04AC0000048C0000046C0000044C0000020
S11300C042C0000040C000003EC000003CC0000030
S11300D03AC0000038C0000036C0000034C0000040
S11300E032C00000770711241FBECFEFD1E2DEBF7C
S11300F0CDBF00E00CBF1CE0A0E0B2E0E8EAFBE109
S113010000E00BBF02C007900D92A032B107D9F7EF
S11301102CE0A0E2BCE001C01D92A733B207E1F7D6
S113012010E0C3E7D0E000E006C021970109802F6A
S1130130FE010E94C00DC237D10780E00807A9F76D
S1130140F5D50C94D20D5CCFAF92BF92CF92DF92D3
S1130150EF92FF920F931F93CF93DF93EC01CB01A8
S113016060E27AE0E0E0F2E0DE015F9601900D9259
S113017061507040D9F7FE01EF5BF54F62E170E02A
S113018071836083329660E970E071836083998340
S113019088835B834A8339872887EB86FC860D87AF
S11301A01E87188A1F86DC8ACB8A24E630E03C8FBF
S11301B02B8FBA8AA98A25E030E03E8B2D8BFCD7A1
S11301C06B897C892B8D3C8D620F731F0E94560DA9
S11301D06F5F7F4F7E8F6D8F188E1F8A1A8E198ED8
S11301E0DF91CF911F910F91FF90EF90DF90CF900F
S11301F0BF90AF9008950F931F93CF93DF93FC01AB
S1130200EB010385148525853685D901C801072EA0
S11302107DE0880F991FAA1FBB1F7A95D1F7702D17
S1130220082719272A273B27D901C801072E71E17E
S1130230B695A795979587957A95D1F7702D8027D0
S11302409127A227B3278C019D01000F111F221FA4
S1130250331F000F111F221F331F000F111F221FF6
S1130260331F000F111F221F331F000F111F221FE6
S1130270331FBC01CD016027712782279327638731
S11302807487858796879A012C1B3D0B40E050E0CC
S11302900E94690DCE01860F971FDF91CF911F91A8
S11302A00F9108952F923F924F925F926F927F9297
S11302B08F929F92AF92BF92CF92DF92EF92FF9272
S11302C00F931F93CF93DF93CDB7DEB7C15DD109F1
S11302D00FB6F894DEBF0FBECDBF5C012DB73EB79D
S11302E0C053DF4F39832883C05DD04019828FEF1C
S11302F08A831B8220EC3FE03F832E831886198675
S11303008A878FE190E09E878D878AE28F87888B2A
S113031085EA898B85E89AEA9D8B8C8B81E0F501CF
S11303208287108E178AEB5BF54F8AE090E0918309
S11303308083369711821082F501858D968D8C010C
S1130340015011099C01220F331F820F931F9C013E
S1130350220F331F220F331F220F331FC253DF4FCD
S113036039832883CE5CD0408DB79EB7821B930B14
S11303700FB6F8949EBF0FBE8DBFEDB7FEB7319692
S1130380C453DF4FF983E883CC5CD0401F010F3F97
S1130390FFEF1F0739F4F501858D968D18161906A0
S11303A08CF00AC1C453DF4FE880F980CC5CD040A4
S11303B0C7010E94AB0CF8E1EF0EF11C01501109CA
S11303C0B8F7E9CFC453DF4F68807980CC5CD04064
S11303D0812C912CC5018B5B954FC653DF4F9983BC
S11303E08883CA5CD0404FEA50E06BE470E0C501FA
S11303F002DFF501908B878780819181D9D6F50141
S1130400C784D088E188F288FF201CF4FFEFEF1A3C
S1130410FF0AF594E7942C014C185D084E185F0808
S1130420C653DF4FE881F981CA5CD0408081918155
S1130430481A590AF50180819181BED6F5010389D4
S11304401489A6014E0D5F1D238D348D200F311F9D
S1130450289DB001299D700D389D700D1124680FE1
S1130460791F9E012F5F3F4F79019201CE01825483
S11304709F4F0E94110DF5018189928999230CF4F3
S1130480019695958795F501C784D088C81AD90A2D
S11304908081918191D6F50103891489238D348D4E
S11304A0200F311F289DB001299D700D389D700DBE
S11304B01124680F791F9E012F5F3F4F7901960128
S11304C040E050E0CE018E549F4F0E94110D8DB735
S11304D09EB70C970FB6F8949EBF0FBE8DBFADB7F5
S11304E0BEB711968CE0FE01E254FF4F01900D92CD
S11304F08A95E1F7CE54DF4FC880C25BD040CD541B
S1130500DF4FD880C35BD040CC54DF4FE880C45B5E
S1130510D040CB54DF4FF880C55BD040CA54DF4F86
S11305200881C65BD040C954DF4F1881C75BD040F7
S1130530C854DF4F2881C85BD040C754DF4F38818F
S1130540C95BD040C654DF4F4881CA5BD040C55414
S1130550DF4F5881CB5BD040C454DF4F6881CC5B04
S1130560D040C354DF4F7881CD5BD040CE01865656
S11305709F4F0E94B60CBE0166567F4FC3010E9476
S1130580FF0CCE0186569F4F0E94B50C9FEF891A2F
S1130590990AE8E16E0E711C2DB73EB7245F3F4FF8
S11305A00FB6F8943EBF0FBE2DBFF501858D968D15
S11305B0881699060CF417CFC453DF4F288139816C
S11305C0CC5CD040F501358324838CE690E0998F90
S11305D0888F86E490E09F8B8E8BFE017A969E0135
S11305E026563F4F80EC9FEF819391932E173F0740
S11305F0D9F7CE014696F50197838683EB5BF54FD9
S113060020813181AE01415F5F4FBE01685F7F4F42
S1130610F5018081918188D7F50126813781458D47
S1130620568D6481758180819181F7D6C453DF4FE3
S1130630E880F980CC5CD040C253DF4F28813981F7
S1130640CE5CD040E20EF31E2E143F0449F038E194
S1130650E31AF108C7010E94B50C2E143F04B9F740
S1130660C053DF4F88819981C05DD0400FB6F894A4
S11306709EBF0FBE8DBFCF52DF4F0FB6F894DEBFC3
S11306800FBECDBFDF91CF911F910F91FF90EF90DF
S1130690DF90CF90BF90AF909F908F907F906F909E
S11306A05F904F903F902F900895262F662331F04E
S11306B0FC01E15CF54F1182108209C0FC01E15C90
S11306C0F54F408151814F5F5F4F51834083FC015F
S11306D046815781E15CF54F60817181FC01808521
S11306E091852AC40895FC01828508953F924F9212
S11306F05F926F927F928F929F92AF92BF92CF92AE
S1130700DF92EF92FF920F931F93CF93DF93CDB7B6
S1130710DEB768970FB6F894DEBF0FBECDBF6C018D
S1130720DC018D919C9144D5F601EB5BF54F208162
S11307303181821B930BD6011696ED91FC9117978C
S113074022813381275E3F4F821793070CF4C2C086
S11307505D968D919C915E97181619060CF0BCC09D
S1130760A12CB12C812C912C412C33243394F601EF
S1130770048115810A0D1B1DE680F780C8010E94C3
S1130780FC0CFC019CE0DE011D9601900D929A95F3
S1130790E1F7C8010E94FE0CFC019CE0DE01119609
S11307A001900D929A95E1F7D7016D907C90CE015E
S11307B00D960E94460D8C01CE010D960E944E0DA1
S11307C0800F911F681679060CF08AC0F70100812A
S11307D01181005E1F4FCE010D960E94460D8017B9
S11307E0910714F5D70112966D907C901397CE0162
S11307F00D960E944A0D8C01CE010D960E94420D69
S1130800800F911F681679068CF4F7010281138119
S1130810075E1F4FCE010D960E944A0D532C801780
S113082091072CF0542C03C0542C01C0542CD70134
S11308306D907C90CE0101960E94460D8C01CE01F4
S113084001960E944E0D800F911F681679060CF0D8
S11308505BC001C0542CF70100811181005E1F4F61
S1130860CE0101960E94460D801791070CF04CC0F2
S1130870D70112966D907C901397CE0101960E9439
S11308804A0D8C01CE0101960E94420D800F911FEA
S113089068167906CCF5F70102811381075E1F4FB4
S11308A0CE0101960E944A0D51102CC08017910769
S11308B0ACF0FFEF8F1A9F0A88E1A80EB11CD60195
S11308C05D968D919C915E97881699060CF44FCF96
S11308D080E01DC081E01BC080E019C081E017C02A
S11308E0F70160807180CE0101960E94460D8C0153
S11308F0CE0101960E944E0D800F911F6816790655
S1130900C4F6A8CF81E003C05110FCCFD2CF6896C3
S11309100FB6F894DEBF0FBECDBFDF91CF911F910C
S11309200F91FF90EF90DF90CF90BF90AF909F908A
S11309308F907F906F905F904F903F900895CF92EB
S1130940DF92EF92FF920F931F93CF93DF93CDB774
S1130950DEB72C970FB6F894DEBF0FBECDBFFC01F7
S1130960258D368D1216130644F56C0100E010E057
S1130970E12CF12CF60184819581800F911F0E9456
S1130980FC0CFC019CE0DE01119601900D929A95FD
S1130990E1F7CE0101960E94460D8534910579F068
S11309A0FFEFEF1AFF0A085E1F4FF601858D968D43
S11309B0E816F906FCF280E003C080E001C081E0A3
S11309C02C960FB6F894DEBF0FBECDBFDF91CF914A
S11309D01F910F91FF90EF90DF90CF9008956F9249
S11309E07F928F929F92AF92BF92CF92DF92EF92BB
S11309F0FF920F931F93CF93DF93FC01258D368DC8
S1130A00121613060CF095C0EC01E12CF12CA12C6C
S1130A10B12C3C01FBEB6F1AF5EF7F0A8C819D81B1
S1130A208E0D9F1DE9D78C018C819D818E0D9F1D9C
S1130A30E5D74C01C8010E94460D2D893E89BC01B1
S1130A40621B730BC8010E94360DC4010E94460D3F
S1130A502D893E89BC01621B730BC4010E94360DB3
S1130A60C8010E94460D6C01C8010E944E0D8C0DF8
S1130A709D1D99230CF048C0888199819DD3BC01A8
S1130A80C801F4D78881998197D3BC01C401EED7FA
S1130A9048EC50E062E370E0CE01ADDB988B8F87C9
S1130AA029893A89332314F42F5F3F4F35952795CD
S1130AB0BC01621B730BC401E1D769897A8977236E
S1130AC014F46F5F7F4F759567958F859889680FCC
S1130AD0791FC801CFD7888199816AD34F855889F6
S1130AE0F30120813181420F531F29893A8933232D
S1130AF014F42F5F3F4F35952795240F351FBC0104
S1130B00621B730BC801BAD7CE0119DF882329F001
S1130B108F89988D0196988F8F8BFFEFAF1ABF0A3C
S1130B2088E1E80EF11C8D8D9E8DA816B9060CF493
S1130B3075CFDF91CF911F910F91FF90EF90DF90D0
S1130B40CF90BF90AF909F908F907F906F900895BB
S1130B50FF920F931F93CF93DF93EC01F62E2E8118
S1130B603F814D8D5E8D6C817D810FE110E0888128
S1130B70998187D3CE0133DF6F2DCE0196DD2E818F
S1130B803F814D8D5E8D6C817D818881998145D4B5
S1130B90DF91CF911F910F91FF9008954F925F9233
S1130BA06F927F928F929F92AF92BF92CF92DF9279
S1130BB0EF92FF920F931F93CF93DF93CDB7DEB7DE
S1130BC02E970FB6F894DEBF0FBECDBF3C014DB6D5
S1130BD05EB619821A828FEF8B838FE190E09F8338
S1130BE08E838AE28887898785EA8A8785E89AEAF4
S1130BF09E878D87F301EB5BF54F20813181AE0138
S1130C00485F5F4FBE016F5F7F4FF3018081918129
S1130C108BD4F301ED5BF54F008111813297E080B5
S1130C20F1808E809F800E9D90010F9D300D1E9D42
S1130C30300D1124032E000C440B550BB301615EDF
S1130C407F4F1F921F920F2EF0E5AF2EB12CF02D87
S1130C500F2EF0EACF2ED12CF02DF301808191815B
S1130C601BD5F301858C968C840101501109540124
S1130C70AA0CBB1C8A0C9B1C880C991C880C991C04
S1130C80880C991C0F900F908DB79EB788199909FD
S1130C900FB6F8949EBF0FBE8DBFEDB7FEB7319669
S1130CA05F016F010F3FFFEF1F0749F07501C70197
S1130CB052D688E1E80EF11C01501109C0F7F30186
S1130CC0B582A4828789908D218D328D28173907AA
S1130CD014F4928F818FF3011286A80CB91CCA14E4
S1130CE0DB0441F0F8E1AF1AB108C5013ED6CA14DD
S1130CF0DB04C1F70FB6F8945EBE0FBE4DBE2E9650
S1130D000FB6F894DEBF0FBECDBFDF91CF911F9118
S1130D100F91FF90EF90DF90CF90BF90AF909F9096
S1130D208F907F906F905F904F900895CF93DF9353
S1130D30CDB7DEB7C355DA400FB6F894DEBF0FBEA9
S1130D40CDBF1092210C80E28093C00088E1809393
S1130D50C10086E08093C20087E690E09093C500CE
S1130D608093C40083E29CE0A5D540EF50E060E4AA
S1130D7071E0CE0101964CD1CE010196A8D1CE01ED
S1130D800596CED00F2EF4E6AF2EB12CF02D0F2EFB
S1130D90FEE1CF2ED12CF02D1AE2E12EF12C00E051
S1130DA010E09E012B5F3F4F43E25CE0BE016F5FAA
S1130DB07F4FCE010D96C8D9CE010D9673DA82E02D
S1130DC080937100E0E9F0E080818C7F8083E1E929
S1130DD0F0E080818F7E80838081886080838AE6D2
S1130DE098E1909399008093980080818460808337
S1130DF0CE010D9678DC882399F0CE010D9676DC31
S1130E0081110EC08091220C882391F36091200CF3
S1130E10CE010D969DDE1092220C1092200CE8CF8C
S1130E20CE010D9660DC811108C08091200C8823CE
S1130E30F1F3CE010D9636DADBCFCE010D9656DCFA
S1130E408823B1F2CE010D96A9DED2CF1F920F9264
S1130E500FB60F9211240BB60F922F933F934F931B
S1130E605F936F937F938F939F93AF93BF93EF930E
S1130E70FF9381E08093200CEC9883E29CE042D5C0
S1130E8083E29CE0DBD4FF91EF91BF91AF919F91FE
S1130E908F917F916F915F914F913F912F910F901F
S1130EA00BBE0F900FBE0F901F9018951F920F92BC
S1130EB00FB60F9211248F9381E08093220C8F91AF
S1130EC00F900FBE0F901F9018951F920F920FB6A0
S1130ED00F92112410926F001092800010928100E2
S1130EE0E49AEC9A0F900FBE0F901F901895EF9212
S1130EF0FF920F931F930F2EF0EFEF2EF12CF02D96
S1130F0000E411E02FEF3FE040E951E060E971E0D7
S1130F1083E29CE037D41F910F91FF90EF900895E6
S1130F20FC011182108213821282158214828AE0DB
S1130F3090E0978386830895EF92FF920F931F9317
S1130F40CF93DF93FC018B01EA018A819B8191831A
S1130F508083222391F022813381E680F780C701C8
S1130F606AE070E0A3D5261737073CF01582148297
S1130F702E193F093383228312C026813781029FB1
S1130F80C001039F900D129F900D11246AE070E040
S1130F908DD584819581680F791F758364838681DB
S1130FA09781248135812817390714F09583848328
S1130FB024813581029FC001039F900D129F900DE3
S1130FC011246AE070E072D582819381680F791FE1
S1130FD07383628380819181680F791F7183608339
S1130FE07B836A83DF91CF911F910F91FF90EF90E4
S1130FF008955F9868B9A2980000A29A0000089525
S11310005F9A72B968B9A2980000A29A0000089584
S1131010FC017383628351834083089569E270E025
S1131020E8CF089561E170E0E4DF8FE39CE9019784
S1131030F1F700C00000089524B344B381E090E0C8
S1131040BC0102C0660F771F2A95E2F79B01209529
S11310503095242324BB7FEF29E638E171502040EA
S11310603040E1F700C0000034B324B302C0880F5D
S1131070991F3A95E2F7822B84BB4FEF68E576E03F
S1131080415060407040E1F700C0000008950F93A4
S11310901F93CF938C01C62F66E370E0AADF6C2FF9
S11310A070E0C801ADDFCF911F910F9108950F93A8
S11310B01F93CF938C01C62F6AE370E09ADF6C2FE5
S11310C070E0C8019DDFCF911F910F910895CF93D8
S11310D0DF93EC01579A8FEF81B987B99A9A999A5D
S11310E0989A5F9AA29AA198A09ACE01A5DFCE0100
S11310F099DFCE0193DF8FE19EE40197F1F700C001
S1131100000068E0CE01C3DF65E0CE01D0DFDF91EF
S1131110CF9108956CE270E06CCF0895EF92FF9246
S11311200F931F93CF93DF93EC01E62E072FF42E3A
S1131130152F6AE270E05DDF602F70E0CE0160DFA2
S11311406E2D702FCE015CDF612F70E0CE0158DF71
S11311506F2D712FCE0154DFDF91CF911F910F912D
S1131160FF90EF900895EF92FF920F931F93CF9308
S1131170DF93EC01E62E072FF42E152F6BE270E0BF
S113118038DF602F70E0CE013BDF6E2D702FCE0173
S113119037DF612F70E0CE0133DF6F2D712FCE0169
S11311A02FDFDF91CF911F910F91FF90EF90089562
S11311B0FC01808191810895FC01828193810895CD
S11311C060E270E016CF08954F925F926F927F9223
S11311D0AF92BF92CF92DF92EF92FF920F931F9341
S11311E0CF93DF93EC013A01690157014A815B8196
S11311F046175707BCF1CB01820F931F48175907B5
S113120038F0009729F077231CF4AC0160E070E01B
S113121041505109CE01A7DFA80141505109460DA3
S1131220571DB301CE017ADFCE0174DF9601D801D8
S113123078D42B013C01161617061806190684F4F7
S1131240C12CD12C7601B501CE01DADE8FEFC81A9C
S1131250D80AE80AF80A4C145D046E047F0499F76E
S1131260CE01AEDFDF91CF911F910F91FF90EF90F0
S1131270DF90CF90BF90AF907F906F905F904F9032
S113128008952F923F924F925F926F927F928F9226
S11312909F92AF92BF92CF92DF92EF92FF920F9301
S11312A01F93CF93DF93CDB7DEB728970FB6F8948B
S11312B0DEBF0FBECDBF9C838B835A013E832D833B
S11312C03801141615060CF041C0C62ED72E812CF9
S11312D0912CC60191D398878F83C6018FD38C013B
S11312E0D5D39A838983C801D9D32C01C801D2D319
S11312F01C01C801C7D373018C019201A10169814A
S11313007A818B819C8160DF8F819885BFD39A839A
S113131089838F819885C2D32C018F819885BAD314
S11313201C018F819885AED38C019201A101698142
S11313307A818B819C8148DF8FEF881A980AE8E1D3
S1131340CE0ED11CA814B90409F0C3CFED81FE81DF
S11313504281538160817181730109E110E020E2CF
S113136030E08B819C8130DF28960FB6F894DEBF85
S11313700FBECDBFDF91CF911F910F91FF90EF90E2
S1131380DF90CF90BF90AF909F908F907F906F90A1
S11313905F904F903F902F900895AF92BF92CF925D
S11313A0DF92EF92FF920F931F93CF93DF938C0101
S11313B05B01FB0160817181C281D381AB01415E1C
S11313C05F4FD1DEAE01485E5F4FBE01C801A6DEAD
S11313D0C801A0DE0F2EF9E1CF2ED12CF02D75011E
S11313E0F4E4EF0EF11CE501249669917991C801AA
S11313F007DECE15DF05C9F781E0C81AD10899F7D1
S1131400C801DEDEDF91CF911F910F91FF90EF9025
S1131410DF90CF90BF90AF9008952F923F924F925C
S11314205F926F927F928F929F92AF92BF92CF9270
S1131430DF92EF92FF920F931F93CF93DF93CDB779
S1131440DEB728970FB6F894DEBF0FBECDBF9A83E0
S113145089835A013E832D83141615060CF046C069
S1131460C62ED72E812C912CC601C6D298878F8385
S1131470C601C4D28C010AD39C838B83C8010ED3CA
S11314802C01C80107D31C01C801FCD23C01C801CE
S113149009D37C0183019201A1016B817C81898143
S11314A09A8192DE8F819885F1D21C018F81988573
S11314B0F5D23C018F819885EDD22C018F819885DE
S11314C0E1D28C018F819885EDD27C019301A20138
S11314D0B10189819A8178DE8FEF881A980A88E1B0
S11314E0C80ED11CA814B90409F0BECF6D817E8149
S11314F089819A8152DF28960FB6F894DEBF0FBE19
S1131500CDBFDF91CF911F910F91FF90EF90DF90AE
S1131510CF90BF90AF909F908F907F906F905F908F
S11315204F903F902F9008952F923F924F925F9249
S11315306F927F928F929F92AF92BF92CF92DF92DF
S1131540EF92FF920F931F93CF93DF9300D01F92DC
S1131550CDB7DEB79C838B833A832983FB01258037
S11315603680FA0105811681FC0142815381415084
S1131570510960E070E0F7DDEB81FC81408151812D
S113158089819A81481B590B4150510960E070E0F0
S1131590CF01C4DD8B819C81BDDDE981FA812F01FE
S11315A0FF0F66087708EB81FC8122813381A081DB
S11315B0B181B1D24B015C0184189508A608B70823
S11315C0181419041A041B048CF4C12CD12C7601B0
S11315D0B1018B819C8114DDFFEFCF1ADF0AEF0A82
S11315E0FF0A8C149D04AE04BF0491F78B819C8187
S11315F0E7DDEB81FC81428153814150510960E078
S113160070E0CF01B0DDEB81FC8160817181AB01C1
S11316104150510989819A81681B790BCF017EDD84
S11316208B819C8177DDEB81FC81A281B381A30155
S113163092018CD24B015C01161617061806190686
S11316408CF4C12CD12C7601B8018B819C81D8DC1F
S1131650FFEFCF1ADF0AEF0AFF0A8C149D04AE04D1
S1131660BF0491F78B819C81ABDD0F900F900F909D
S11316700F90DF91CF911F910F91FF90EF90DF902A
S1131680CF90BF90AF909F908F907F906F905F901E
S11316904F903F902F9008952F923F924F925F92D8
S11316A06F927F928F929F92AF92BF92CF92DF926E
S11316B0EF92FF920F931F93CF93DF931F921F928A
S11316C0CDB7DEB73C0169837A8319012A01C801C9
S11316D011230CF4019695958795B601681B790B37
S11316E0C701FF200CF4019695958795A81AB90AAD
S11316F001501109A801460F571FC30134DD81E0D1
S1131700E81AF108A7014A0D5B1DB501C30106DD06
S1131710C30100DD1214130414041504E4F4098154
S11317201A81C12CD12C7601F80181918F0181118C
S113173004C0B401C30164DC04C0688D798DC301A5
S11317405FDCFFEFCF1ADF0AEF0AFF0A2C143D0417
S11317504E045F0449F7C30133DD0F900F90DF910E
S1131760CF911F910F91FF90EF90DF90CF90BF909A
S1131770AF909F908F907F906F905F904F903F902D
S11317802F900895EF92FF920F931F93CF93DF93BF
S1131790FC01EA01758364835783468311861086AE
S11317A015870487F786E68633872287C901861B57
S11317B0970BB8017BD1718B608BC9018C1B9D0B7E
S11317C0B70174D1738B628BDF91CF911F910F910D
S11317D0FF90EF90089500000000E2E0F1E08081C6
S11317E088608083000000008081877F8083089563
S11317F0EF92FF920F931F93CF93DF937C0100002E
S113180000000000E8DF0CE010E0C0E0D0E0CC0F06
S1131810DD1F65992196C701DEDF01501109B9F773
S1131820C701D9DFC701D7DFC701D5DFCE01DF91FB
S1131830CF911F910F91FF90EF90089582E08093D4
S11318406F00E0E8F0E080818C7F8083E1E8F0E0E5
S113185080818F7E808380818860808384ED90E3A3
S113186090938900809388008081836080830895A9
S1131870E2E0F1E08081877F80830895EF92FF9218
S11318801F93CF93DF937C01162FF2DFC8E0D0E0E3
S1131890112314F4A59A01C0A598110F0000C701E3
S11318A09ADF2197A9F7A598DF91CF911F91FF9017
S11318B0EF900895CF93DF93EC01E1E0F1E08081B4
S11318C0886080839D9A6B9A6D986C98EC9AEAE68E
S11318D0F0E08081846080837894198218821B826E
S11318E01A82739A0000000073980000000060E9F7
S11318F0CE01C4DFCE016FDFCE017ADF739ADF91B0
S1131900CF9108950F931F93CF93DF93EC017398B6
S113191064990DC060E9B2DFCE016ADF8C0164997D
S11319200BC060EDCE01AADFCE0162DF07C000E08C
S113193010E080E090E002C080E090E0998388832A
S11319401B830A83739A0000CE0145DFDF91CF9198
S11319501F910F910895CF93DF93EC017BD0CE01BB
S11319600C9678D0DF91CF9108950895AF92BF92ED
S1131970CF92DF92EF92FF920F931F93CF93DF9357
S1131980CDB7DEB72C970FB6F894DEBF0FBECDBF30
S11319905C01C982DA82EB82FC820D831E832F8371
S11319A0388749875A876B877C8754D08501045FC1
S11319B01F4FC8014FD08CE0FE013196D501019034
S11319C00D928A95E1F78CE0FE017A96D801019098
S11319D00D928A95E1F72C960FB6F894DEBF0FBEF0
S11319E0CDBFDF91CF911F910F91FF90EF90DF90CA
S11319F0CF90BF90AF9008950C96089508959C01E0
S1131A008CE0FB01D90101900D928A95E1F79CE0ED
S1131A10FB013C96D9011C9601900D929A95E1F731
S1131A200895EF92FF920F931F93FC0173836283D7
S1131A30558344833783268311870087D7011596FE
S1131A408D919C911697938782871F910F91FF9098
S1131A50EF900895FC01138212821582148217827A
S1131A60168211861086138612860895FC017383EC
S1131A7062830895FC01758364830895FC01778370
S1131A8066830895FC01868197810895FC01828113
S1131A9093810895FC01848195810895FC018085DA
S1131AA091850895FC0182859385089597FB072EFF
S1131AB016F4009406D077FD08D04ED007FC05D06C
S1131AC03EF4909581959F4F0895709561957F4F51
S1131AD00895A1E21A2EAA1BBB1BFD010DC0AA1F6B
S1131AE0BB1FEE1FFF1FA217B307E407F50720F083
S1131AF0A21BB30BE40BF50B661F771F881F991FFE
S1131B001A9469F760957095809590959B01AC0146
S1131B10BD01CF01089505D0332312F48A1B9B0B1A
S1131B2010C0A29FB001B39FC001A39F700D811D7F
S1131B301124911DB29F700D811D1124911D0895D2
S1131B40F0DFB7FF0895821B930B0895B7FF20C001
S1131B501FD0821B930B0895AA1BBB1B51E107C026
S1131B60AA1FBB1FA617B70710F0A61BB70B881F29
S1131B70991F5A95A9F780959095BC01CD010895B8
S1131B80EE0FFF1F881F8BBF0790F691E02D19946D
S1131B90C8DFA59F900DB49F900DA49F800D911D4B
S10B1BA011240895F894FFCF0D
S1131BA8000000000101010101010101010100001F
S1131BB8000000000000010101010101010101010F
S1131BC800000000000001010101010101010101FF
S1131BD801010101000000000101010101010101ED
S1131BE801010101010100000101010100000000DF
S1131BF800000000000001010101010101010000D1
S1131C0800000000000000000101010101010000C2
S1131C1800000000000000000000000001010101B4
S1131C2800000000000000000000000000000101A6
S1131C380101000000000000000001010000000094
S1131C480101010100000000000000000101000082
S1131C58000001010101010101010000000001016E
S1131C68010101010101010101010101000000005C
S1131C78010101010101010100000101010100004C
S1131C88000001010101010101010000010101013C
S1131C980000000001010101010101010000000030
S1131CA80000000000000000000000000000000028
S1131CB80000000000000000000000000000000018
S1131CC80000000000000000000000000101010104
S1131CD800000000000000000000000000000101F6
S1131CE801010000000000000000010100000101E2
S1131CF801010101010100000000000001010000D0
S1131D0801010101010101010000000000000101BD
S1131D1800000101000000000101000000000000B3
S1131D2801010000010100000000010100000000A1
S1131D380000010100000101000000000101000091
S1131D480000000001010000010100000000010181
S1131D58000000000000010101010101010101016D
S1131D68000000000000000001010101010101015F
S1131D780101000000000000000000000101010151
S1131D88010101010101000000000000000001013F
S1131D98010101010101010100000000000000002F
S1131DA80000000000000000010100000000000025
S1131DB80000000000000000000001010000000015
S1131DC80000000000000000000000000000000007
S1131DD800000000000000000000000000000000F7
S1131DE800000000000001010101010101010101DD
S1131DF801010000000000000101010101010101CD
S1131E0801010101000000000000010101010101BC
S1131E1801010101010100000000000001010101AC
S1131E28010101010101010100000000000001019C
S1131E380000000000000000000000000000000096
S1131E480101000000000000000000000000000084
S1131E58000001010101010101010101000000006C
S1131E68000000000101010101010101010100005C
S1131E780000000000000101000000000000000054
S1131E880000000000000000010100000000000044
S1131E980000000000000000000001010101010130
S1131EA8010101010101000000000000010101011C
S1131EB8010101010101010100000000000000000E
S1131EC801010101010101010101000000000000FC
S1131ED800000101010101010101010100000000EC
S1131EE800000000000000000000000000000000E6
S1131EF800000000000000000000000000000000D6
S1131F0800000000000000000101010101010101BD
S1131F1800000000000000000000010101010101AF
S1131F28010100000000000000000101010101019D
S1131F38010101010101000000000000010101018B
S1131F48010101010101010100000000000001017B
S1131F580000010100000000010100000000000071
S1131F68010100000101000000000101000000005F
S1131F78000001010000010100000000010100004F
S1131F88000000000101000001010000000001013F
S1131F98000000000000010101010101000001012D
S1131FA8010100000000000001010101010100001D
S1131FB8010101010000000000000000010101010D
S1131FC80000010100000000000000000000010101
S1131FD801010000010100000000000000000000F1
S1131FE800000000000000000000000000000000E5
S1131FF800000000000000000000000000000000D5
S113200800000000000000000000000000000000C4
S113201800000000000000000000000000000000B4
S113202800000000000000000000000000000000A4
S11320380000000000000000000000000000000094
S11320480000000000000000000000000000000084
S11320580000000000000000000000000000000074
S11320680000000000000000000000000000000064
S11320780000000000000000000000000000000054
S11320880000000000000000000000000000000044
S11320980000000000000000000000000000000034
S11320A80000000000000000000000000000000024
S11320B80000000000000000000000000000000014
S11320C80000000000000000000000000000000004
S11320D800000000000000000000000000000000F4
S11320E800000000000000000000000000000000E4
S11320F800000000000000000000000000000000D4
S113210800000000000000000000000000000000C3
S113211800000000000000000000000000000000B3
S113212800000000000000000000000000000000A3
S11321380000000000000000000000000000000093
S11321480000000001010101010101010101000079
S11321580000000000000101010101010101010169
S11321680000000000000101010101010101010159
S11321780101010100000000010101010101010147
S11321880101010101010000010101010000000039
S1132198000000000000010101010101010100002B
S11321A8000000000000000001010101010100001D
S11321B8000000000000000000000000010101010F
S11321C80000000000000000000000000000010101
S11321D801010101000000000000000000000101ED
S11321E801010101010100000000000000000000DD
S11321F801010101000001010101010101010101C5
S113220801010101000000000101010101010101B6
S113221801010101010100000000000001010101A8
S1132228010101010101000000000000000001019A
S1132238010101010101010100000000000000008A
S11322480000000000000000000000000000000082
S11322580000000000000000000000000000000072
S1132268000000000000010101010101010100005A
S1132278000000000000000001010101010101014A
S1132288000000000000000000000101010101013C
S1132298010101010000000000000000010101012A
S11322A8010101010101000000000000000000001C
S11322B8000000000000010101010000000000000E
S11322C800000000000000000101010100000000FE
S11322D800000000000000000000010101010000EE
S11322E800000000000000000000000001010101DE
S11322F800000000000001010101010101010101C8
S113230800000000000000000101010101010101B9
S113231801010000000000000000010101010101A9
S1132328010100000000000000000000010101019B
S1132338010101010000000000000000000000008D
S11323480000000000000000000000000000000081
S11323580000000000000000000000000000000071
S11323680000000000000000000000000000000061
S11323780000000000000000000000000000000051
S11323880000000000000000010101010101010139
S1132398000000000000000000000101010101012B
S11323A80101000000000000000001010101010119
S11323B80101010101010000000000000101010107
S11323C801010101010101010000000000000101F7
S11323D800000101000000000101000000000000ED
S11323E801010000010100000000010100000000DB
S11323F800000101000001010000000001010000CB
S113240800000000010100000101000000000101BA
S113241800000000000001010101010100000101A8
S11324280101000000000000010101010101000098
S11324380101010100000000000000000101010188
S1132448000001010000000000000000000001017C
S1132458010100000101000000000000000000006C
S11324680000000000000000000000000000000060
S11324780000000000000000000000000000000050
S11324880000000000000000000000000000000040
S11324980000000000000000000000000000000030
S11324A8000000000000010100000000000000001E
S11324B8010100000000000001010000000000000C
S11324C800000101000000000000010101010101F8
S11324D801010101010100000000000001010101E6
S11324E801010101010101010000000000000101D6
S11324F801010101010101010101000000000000C6
S113250801010101010101010101010100000000B3
S113251800000000000001010000000001010000AB
S1132528000000000000000001010000000001019B
S1132538000000000000010101010000000000008B
S1132548000000000000000001010101000000007B
S11325580000000000000000000001010101010169
S1132568000000000000000000000000010101015B
S1132578010100000000000000000000000000004D
S1132588010101010000000000000000000000003B
S1132598000001010101000000000000000000002B
S11325A8000000000000000000000000000000001F
S11325B8000000000000000000000000000000000F
S9030000FC
