S0120000466C617070795F322E302E73726563B7
S113000072C00000A0C000009EC000009CC00000A0
S11300109AC00000E9C6000096C0000094C0000029
S113002092C0000090C000008EC000008CC0000090
S11300308AC0000088C0000086C0000084C00000A0
S113004082C0000010C700007EC000007CC0000019
S11300507AC0000078C0000076C0000074C00000C0
S113006072C0000070C000006EC000006CC00000D0
S11300706AC0000068C0000066C0000064C00000E0
S1130080E3C6000060C000005EC000005CC0000069
S11300905AC0000058C0000056C0000054C0000000
S11300A052C0000050C000004EC000004CC0000010
S11300B04AC0000048C0000046C0000044C0000020
S11300C042C0000040C000003EC000003CC0000030
S11300D03AC0000038C0000036C0000034C0000040
S11300E032C00000450711241FBECFEFD1E2DEBFAE
S11300F0CDBF00E00CBF16E0A0E0B2E0ECE1FFE110
S113010000E00BBF02C007900D92A838B107D9F7E1
S113011026E0A8E8B6E001C01D92AF39B207E1F7C6
S113012010E0C3E7D0E000E006C021970109802F6A
S1130130FE010E947A0FC237D10780E00807A9F7B1
S1130140C4D50C948C0F5CCFAF92BF92CF92DF9248
S1130150EF92FF920F931F93CF93DF93EC01CB01A8
S1130160798368835B834A8339872887EB86FC8697
S11301700D871E87188A1F86DC8ACB8A24E630E026
S11301803C8F2B8FBA8AA98A25E030E03E8B2D8BD9
S11301900E94F5086B897C892B8D3C8D620F731F3F
S11301A00E94100F6F5F7F4F7E8F6D8F188E1F8A96
S11301B01A8E198EDF91CF911F910F91FF90EF90BE
S11301C0DF90CF90BF90AF9008950F931F93CF937C
S11301D0DF93FC01EB010385148525853685D90160
S11301E0C801072E7DE0880F991FAA1FBB1F7A95AF
S11301F0D1F7702D082719272A273B27D901C801D1
S1130200072E71E1B695A795979587957A95D1F7BD
S1130210702D80279127A227B3278C019D01000F01
S1130220111F221F331F000F111F221F331F000F26
S1130230111F221F331F000F111F221F331F000F16
S1130240111F221F331FBC01CD0160277127822794
S1130250932763877487858796879A012C1B3D0BA8
S113026040E050E00E94230FCE01860F971FDF91DC
S1130270CF911F910F9108952F923F924F925F92C9
S11302806F927F928F929F92AF92BF92CF92DF92A2
S1130290EF92FF920F931F93CF93DF93CDB7DEB707
S11302A0CF5CD1090FB6F894DEBF0FBECDBF5C01A1
S11302B02DB73EB7C253DF4F39832883CE5CD0407D
S11302C019828FEF8A831B8220EC3FE03F832E83C9
S11302D0188619868A878FE190E09E878D878AE247
S11302E08F87888B85EA898B85E89AEA9D8B8C8B2E
S11302F081E0F5018287108E178A8AE090E092A34C
S113030081A310A2178E858D968D8C010150110941
S11303109C01220F331F820F931F9C01220F331F56
S1130320220F331F220F331FC453DF4F3983288317
S1130330CC5CD0408DB79EB7821B930B0FB6F8945C
S11303409EBF0FBE8DBFEDB7FEB73196C653DF4FCC
S1130350F983E883CA5CD0401F010F3FFFEF1F07FA
S113036039F4F501858D968D181619068CF0FBC0AD
S1130370C653DF4FE880F980CA5CD040C7010E94B1
S1130380DE0CF8E1EF0EF11C01501109B8F7E9CFCA
S1130390C653DF4F68807980CA5CD040812C912C91
S11303A04FEA50E06BE470E0C5010FDFF501908B7C
S11303B087878081918115D7F501C784D088E1882A
S11303C0F288FF201CF4FFEFEF1AFF0AF594E7947C
S11303D02C014C185D084E185F08F50181A192A10B
S11303E0481A590A8081918100D7F501038914893B
S11303F0A6014E0D5F1D238D348D200F311F289DC6
S1130400B001299D700D389D700D1124680F791F5E
S11304109E012F5F3F4F79019201CE0182549F4F7D
S11304200E94440DF5018189928999230CF4019667
S113043095958795F501C784D088C81AD90A808113
S11304409181D3D6F50103891489238D348D200F2E
S1130450311F289DB001299D700D389D700D112408
S1130460680F791F9E012F5F3F4F7901960140E08D
S113047050E0CE018E549F4F0E94440D8DB79EB71D
S11304800C970FB6F8949EBF0FBE8DBFADB7BEB725
S113049011968CE0FE01E254FF4F01900D928A9573
S11304A0E1F7CE54DF4FC880C25BD040CD54DF4F5C
S11304B0D880C35BD040CC54DF4FE880C45BD040CD
S11304C0CB54DF4FF880C55BD040CA54DF4F08815E
S11304D0C65BD040C954DF4F1881C75BD040C854B5
S11304E0DF4F2881C85BD040C754DF4F3881C95BD8
S11304F0D040C654DF4F4881CA5BD040C554DF4F5B
S11305005881CB5BD040C454DF4F6881CC5BD04072
S1130510C354DF4F7881CD5BD040CE0186569F4FC8
S11305200E94E90CBE0166567F4FC3010E94320D42
S1130530CE0186569F4F0E94E80C9FEF891A990AB4
S1130540E8E16E0E711C2DB73EB7245F3F4F0FB626
S1130550F8943EBF0FBE2DBFF501858D968D88168C
S113056099060CF41DCFC653DF4F28813981CA5C2C
S1130570D040F501358324838CE690E0998F888FF1
S113058086E490E09F8B8E8BFE017A969E01265620
S11305903F4F80EC9FEF819391932E173F07D9F73C
S11305A0CE014696F5019783868321A132A1AE013F
S11305B0415F5F4FBE01685F7F4F80819181CDD7DE
S11305C0F50126813781458D568D64817581808141
S11305D091813CD7C653DF4FE880F980CA5CD04094
S11305E0C453DF4F28813981CC5CD040E20EF31E26
S11305F02E143F0449F038E1E31AF108C7010E94C0
S1130600E80C2E143F04B9F7C253DF4F8881998157
S1130610CE5CD0400FB6F8949EBF0FBE8DBFC153C1
S1130620DF4F0FB6F894DEBF0FBECDBFDF91CF9181
S11306301F910F91FF90EF90DF90CF90BF90AF90FC
S11306409F908F907F906F905F904F903F902F90EE
S11306500895EF92FF920F93CF93DF93EC01062F4F
S1130660662319F018A21F8E05C08F8D98A10196DC
S113067098A38F8FEE80FF808F8D98A16AE070E041
S11306800E94100F072E000C880B990B0E94210E5C
S1130690AB01BC019701888599851CD4DF91CF916A
S11306A00F91FF90EF900895FC01828508953F9289
S11306B04F925F926F927F928F929F92AF92BF926E
S11306C0CF92DF92EF92FF920F931F93CF93DF931A
S11306D0CDB7DEB768970FB6F894DEBF0FBECDBFB7
S11306E03C01DC018D919C917CD5F30121A132A1C7
S11306F0821B930B0680F781E02D22813381275ED4
S11307003F4F821793070CF4C3C0D3015D968D91BC
S11307109C915E97181619060CF0BCC0C12CD12C04
S1130720A12CB12C412C33243394F3010481158181
S11307300C0D1D1DE680F780C8010E942F0DFC01E1
S11307409CE0DE011D9601900D929A95E1F7C80197
S11307500E94310DFC019CE0DE01119601900D9286
S11307609A95E1F7D7018D909C90CE010D960E9449
S1130770790D8C01CE010D960E94810D800F911F81
S1130780881699060CF08AC0F70100811181005E79
S11307901F4FCE010D960E94790D8017910714F515
S11307A0D70112968D909C901397CE010D960E94BE
S11307B07D0D8C01CE010D960E94750D800F911F49
S11307C0881699068CF4F70102811381075E1F4F86
S11307D0CE010D960E947D0D532C801791072CF0AD
S11307E0542C03C0542C01C0542CD7018D909C90E0
S11307F0CE0101960E94790D8C01CE0101960E94D2
S1130800810D800F911F881699060CF05BC001C002
S1130810542CF70100811181005E1F4FCE01019617
S11308200E94790D801791070CF04CC0D7011296E5
S11308308D909C901397CE0101960E947D0D8C01A2
S1130840CE0101960E94750D800F911F881699069E
S1130850CCF5F70102811381075E1F4FCE0101968B
S11308600E947D0D51102CC080179107ACF0FFEF52
S1130870AF1ABF0A88E1C80ED11CD3015D968D91D1
S11308809C915E97A816B9060CF44FCF80E01DC06A
S113089081E01BC080E019C081E017C0F7018080AF
S11308A09180CE0101960E94790D8C01CE010196B2
S11308B00E94810D800F911F88169906C4F6A8CF57
S11308C081E003C05110FCCFD2CF68960FB6F894E4
S11308D0DEBF0FBECDBFDF91CF911F910F91FF906F
S11308E0EF90DF90CF90BF90AF909F908F907F90CC
S11308F06F905F904F903F900895CF92DF92EF9268
S1130900FF920F931F93CF93DF93CDB7DEB72C974E
S11309100FB6F894DEBF0FBECDBFFC01258D368D1A
S11309201216130644F56C0100E010E0E12CF12CE2
S1130930F60184819581800F911F0E942F0DFC0187
S11309409CE0DE01119601900D929A95E1F7CE019B
S113095001960E94790D8534910579F0FFEFEF1A25
S1130960FF0A085E1F4FF601858D968DE816F9067D
S1130970FCF280E003C080E001C081E02C960FB659
S1130980F894DEBF0FBECDBFDF91CF911F910F91C1
S1130990FF90EF90DF90CF9008958F929F92AF9247
S11309A0BF92CF92DF92EF92FF920F931F93CF9358
S11309B0DF93FC01258D368D121613060CF096C0BC
S11309C0EC01E12CF12CA12CB12C8C819D818E0D9C
S11309D09F1D0E942F0D8C018C819D818E0D9F1D6A
S11309E00E94310D4C01C8010E94790D2D893E8968
S11309F0BC01621B730BC8010E94690DC4010E94F3
S1130A00790D2D893E89BC01621B730BC4010E94C0
S1130A10690DC8010E94790D6C01C8010E94810D05
S1130A208C0D9D1D99230CF04CC088819981DDD3D8
S1130A30BC01C8010E94690D88819981D6D3BC018B
S1130A40C4010E94690D48EC50E062E370E0CE01FD
S1130A50BCDB988B8F8729893A89332314F42F5F61
S1130A603F4F35952795BC01621B730BC4010E944F
S1130A70710D69897A89772314F46F5F7F4F7595B7
S1130A8067958F859889680F791FC8010E946D0D3D
S1130A9088819981A6D34F85588929A13AA1420F0B
S1130AA0531F29893A89332314F42F5F3F4F359517
S1130AB02795240F351FBC01621B730BC8010E94CC
S1130AC0710DCE011ADF882329F08F89988D019644
S1130AD0988F8F8BFFEFAF1ABF0A88E1E80EF11CE5
S1130AE08D8D9E8DA816B9060CF46FCFDF91CF9132
S1130AF01F910F91FF90EF90DF90CF90BF90AF9038
S1130B009F908F900895FF920F931F93CF93DF933D
S1130B10EC01F62E2E813F814D8D5E8D6C817D81A1
S1130B200FE110E088819981C5D3CE0136DF6F2DA6
S1130B30CE018FDD2E813F814D8D5E8D6C817D8157
S1130B408881998183D4DF91CF911F910F91FF9078
S1130B5008954F925F926F927F928F929F92AF927D
S1130B60BF92CF92DF92EF92FF920F931F93CF9396
S1130B70DF93CDB7DEB72E970FB6F894DEBF0FBE66
S1130B80CDBF3C014DB65EB619821A828FEF8B83BE
S1130B908FE190E09F838E838AE28887898785EA44
S1130BA08A8785E89AEA9E878D87F30121A132A17D
S1130BB0AE01485F5F4FBE016F5F7F4F80819181BF
S1130BC0CCD48E809F801F921F920F2EF0E5AF2E03
S1130BD0B12CF02D0F2EF0EACF2ED12CF02D0F2EAC
S1130BE0F3E2EF2EF12CF02D09E011E028E834E0D7
S1130BF040E050E060E072E0F3018081918165D5CE
S1130C00F301858C968C8401015011095401AA0CBE
S1130C10BB1C8A0C9B1C880C991C880C991C880C86
S1130C20991C0F900F908DB79EB7881999090FB62C
S1130C30F8949EBF0FBE8DBFEDB7FEB731965F012E
S1130C406F010F3FFFEF1F0749F07501C701B6D6CB
S1130C5088E1E80EF11C01501109C0F7F301B582D7
S1130C60A4828789908D218D328D2817390714F439
S1130C70928F818FF3011286A80CB91CCA14DB046D
S1130C8041F0F8E1AF1AB108C501A2D6CA14DB04D9
S1130C90C1F70FB6F8945EBE0FBE4DBE2E960FB6CA
S1130CA0F894DEBF0FBECDBFDF91CF911F910F919E
S1130CB0FF90EF90DF90CF90BF90AF909F908F9078
S1130CC07F906F905F904F900895CF93DF93CDB74F
S1130CD0DEB7AF970FB6F894DEBF0FBECDBF10924C
S1130CE0890680E28093C00088E18093C10086E099
S1130CF08093C20087E690E09093C5008093C4007F
S1130D008BE896E00AD640EF50E060E471E0CE0153
S1130D10019697D1CE010196F3D1CE010596CED09E
S1130D200F2EF4E6AF2EB12CF02D0F2EFEE1CF2EB8
S1130D30D12CF02D1AE2E12EF12C00E010E09E01FE
S1130D402B5F3F4F4BE856E0BE016F5F7F4FCE01F4
S1130D500D96FAD9CE010D968FDA82E08093710058
S1130D60E0E9F0E080818C7F8083E1E9F0E080813C
S1130D708F7E80838081886080838AE698E1909367
S1130D80990080939800808184608083CE010D96C1
S1130D908BDC882399F0CE010D9689DC81110EC07D
S1130DA080918A06882391F360918806CE010D967E
S1130DB0AADE10928A0610928806E8CFCE010D961C
S1130DC073DC811108C0809188068823F1F3CE0179
S1130DD00D9652DADBCFCE010D9669DC8823B1F291
S1130DE0CE010D96B6DED2CF1F920F920FB60F92A0
S1130DF011240BB60F922F933F934F935F936F93EE
S1130E007F938F939F93AF93BF93EF93FF9381E06F
S1130E1080938806EC988BE896E0A7D58BE896E05B
S1130E2040D5FF91EF91BF91AF919F918F917F91A9
S1130E306F915F914F913F912F910F900BBE0F9047
S1130E400FBE0F901F9018951F920F920FB60F921E
S1130E5011248F9381E080938A068F910F900FBEA7
S1130E600F901F9018951F920F920FB60F92112496
S1130E7010926F001092800010928100E49AEC9A14
S1130E800F900FBE0F901F901895EF92FF920F9343
S1130E901F930F2EF0EFEF2EF12CF02D00E411E054
S1130EA02FEF3FE040E951E060E971E08BE896E024
S1130EB09CD41F910F91FF90EF900895FC01118233
S1130EC0108213821282158214828AE090E0978342
S1130ED0868308952F923F924F925F926F927F92F2
S1130EE08F929F92AF92BF92CF92DF92EF92FF9236
S1130EF00F93CF93DF93EC014A015B011901F901D0
S1130F0082819381998388830023E9F08E819F8174
S1130F1099230CF4039695958795959587952A8141
S1130F203B81281739077CF01D821C8281EF9FEFDB
S1130F309B838A830F2E812C912CF0E8AF2EFFE344
S1130F40BF2EF02D1BC06E817F81072E000C880BF5
S1130F50990B77D6A501940100D76B017C016C81B4
S1130F607D81072E000C880B990B6BD69B01AC017D
S1130F70C701B601CFD532D67D836C838E819F8124
S1130F802C813D812817390714F09D838C836C8153
S1130F907D81072E000C880B990B53D6A501940173
S1130FA0DCD66B017C016A817B81072E000C880BE7
S1130FB0990B47D69B01AC01C701B601ABD50ED640
S1130FC06B017C017B836A8368817981072E000C25
S1130FD0880B990B36D62B013C01B601DD0C880B2E
S1130FE0990B2FD6A5019401B8D69B01AC01C3017E
S1130FF0B20190D5F3D579836883F1017383628359
S1131000DF91CF910F91FF90EF90DF90CF90BF9041
S1131010AF909F908F907F906F905F904F903F9094
S11310202F9008955F9868B9A2980000A29A0000D2
S113103008955F9A72B968B9A2980000A29A000054
S11310400895FC017383628351834083089569E2A8
S113105070E0E8CF089561E170E0E4DF8FE39CE99C
S11310600197F1F700C00000089524B344B381E070
S113107090E0BC0102C0660F771F2A95E2F79B013E
S113108020953095242324BB7FEF29E638E1715065
S113109020403040E1F700C0000034B324B302C064
S11310A0880F991F3A95E2F7822B84BB4FEF68E5CE
S11310B076E0415060407040E1F700C000000895C0
S11310C00F931F93CF938C01C62F66E370E0AADFC2
S11310D06C2F70E0C801ADDFCF911F910F9108957F
S11310E00F931F93CF938C01C62F6AE370E09ADFAE
S11310F06C2F70E0C8019DDFCF911F910F9108956F
S1131100CF93DF93EC01579A8FEF81B987B99A9AFD
S1131110999A989A5F9AA29AA198A09ACE01A5DF6B
S1131120CE0199DFCE0193DF8FE19EE40197F1F7C1
S113113000C0000068E0CE01C3DF65E0CE01D0DF6F
S1131140DF91CF9108956CE270E06CCF0895EF9237
S1131150FF920F931F93CF93DF93EC01E62E072F9B
S1131160F42E152F6AE270E05DDF602F70E0CE018F
S113117060DF6E2D702FCE015CDF612F70E0CE0139
S113118058DF6F2D712FCE0154DFDF91CF911F9166
S11311900F91FF90EF900895EF92FF920F931F939A
S11311A0CF93DF93EC01E62E072FF42E152F6BE27D
S11311B070E038DF602F70E0CE013BDF6E2D702FC2
S11311C0CE0137DF612F70E0CE0133DF6F2D712F39
S11311D0CE012FDFDF91CF911F910F91FF90EF9000
S11311E00895FC01808191810895FC01828193819D
S11311F0089560E270E016CF08954F925F926F9267
S11312007F92AF92BF92CF92DF92EF92FF920F93B1
S11312101F93CF93DF93EC013A01690157014A818F
S11312205B8146175707BCF1CB01820F931F481708
S1131230590738F0009729F077231CF4AC0160E0DB
S113124070E041505109CE01A7DFA8014150510976
S1131250460D571DB301CE017ADFCE0174DF96012E
S1131260D80119D62B013C011616170618061906C3
S113127084F4C12CD12C7601B501CE01DADE8FEFD6
S1131280C81AD80AE80AF80A4C145D046E047F04EC
S113129099F7CE01AEDFDF91CF911F910F91FF90AF
S11312A0EF90DF90CF90BF90AF907F906F905F9062
S11312B04F9008952F923F924F925F926F927F9238
S11312C08F929F92AF92BF92CF92DF92EF92FF9252
S11312D00F931F93CF93DF93CDB7DEB728970FB645
S11312E0F894DEBF0FBECDBF9C838B835A013E832F
S11312F02D833801141615060CF041C0C62ED72EC6
S1131300812C912CC601ABD398878F83C601A9D3B6
S11313108C01EFD39A838983C801F3D32C01C801CC
S1131320ECD31C01C801E1D373018C019201A1012A
S113133069817A818B819C8160DF8F819885D9D383
S11313409A8389838F819885DCD32C018F8198853A
S1131350D4D31C018F819885C8D38C019201A1013B
S113136069817A818B819C8148DF8FEF881A980A82
S1131370E8E1CE0ED11CA814B90409F0C3CFED8165
S1131380FE814281538160817181730109E110E022
S113139020E230E08B819C8130DF28960FB6F894F0
S11313A0DEBF0FBECDBFDF91CF911F910F91FF9094
S11313B0EF90DF90CF90BF90AF909F908F907F90F1
S11313C06F905F904F903F902F900895AF92BF928F
S11313D0CF92DF92EF92FF920F931F93CF93DF93FD
S11313E08C015B01FB0160817181C281D381AB01FE
S11313F0415E5F4FD1DEAE01485E5F4FBE01C80162
S1131400A6DEC801A0DE0F2EF9E1CF2ED12CF02DDF
S11314107501F4E4EF0EF11CE501249669917991CC
S1131420C80107DECE15DF05C9F781E0C81AD10867
S113143099F7C801DEDEDF91CF911F910F91FF90E4
S1131440EF90DF90CF90BF90AF9008952F923F928E
S11314504F925F926F927F928F929F92AF92BF92C0
S1131460CF92DF92EF92FF920F931F93CF93DF936C
S1131470CDB7DEB728970FB6F894DEBF0FBECDBF49
S11314809A8389835A013E832D83141615060CF022
S113149046C0C62ED72E812C912CC601E0D2988747
S11314A08F83C601DED28C0124D39C838B83C80135
S11314B028D32C01C80121D31C01C80116D33C0137
S11314C0C80123D37C0183019201A1016B817C813A
S11314D089819A8192DE8F8198850BD31C018F813B
S11314E098850FD33C018F81988507D32C018F8178
S11314F09885FBD28C018F81988507D37C01930159
S1131500A201B10189819A8178DE8FEF881A980A45
S113151088E1C80ED11CA814B90409F0BECF6D81AE
S11315207E8189819A8152DF28960FB6F894DEBFB6
S11315300FBECDBFDF91CF911F910F91FF90EF9020
S1131540DF90CF90BF90AF909F908F907F906F90DF
S11315505F904F903F902F9008952F923F924F921B
S11315605F926F927F928F929F92AF92BF92CF922F
S1131570DF92EF92FF920F931F93CF93DF9300D0EC
S11315801F92CDB7DEB79C838B833A832983FB01FB
S113159025803680FA0105811681FC014281538140
S11315A04150510960E070E0F7DDEB81FC8140813E
S11315B0518189819A81481B590B4150510960E03E
S11315C070E0CF01C4DD8B819C81BDDDE981FA81AE
S11315D02F01FF0F66087708EB81FC81228133819C
S11315E0A081B18152D44B015C0184189508A608EE
S11315F0B708181419041A041B048CF4C12CD12C38
S11316007601B1018B819C8114DDFFEFCF1ADF0AD3
S1131610EF0AFF0A8C149D04AE04BF0491F78B817A
S11316209C81E7DDEB81FC8142815381415051096A
S113163060E070E0CF01B0DDEB81FC8160817181FD
S1131640AB014150510989819A81681B790BCF0103
S11316507EDD8B819C8177DDEB81FC81A281B3816E
S1131660A30192012DD44B015C011616170618062E
S113167019068CF4C12CD12C7601B8018B819C8184
S1131680D8DCFFEFCF1ADF0AEF0AFF0A8C149D049F
S1131690AE04BF0491F78B819C81ABDD0F900F905A
S11316A00F900F90DF91CF911F910F91FF90EF90CA
S11316B0DF90CF90BF90AF909F908F907F906F906E
S11316C05F904F903F902F9008952F923F924F92AA
S11316D05F926F927F928F929F92AF92BF92CF92BE
S11316E0DF92EF92FF920F931F93CF93DF9300D07B
S11316F01F92CDB7DEB73C016B837C8319012A01AD
S11317009A828982C80111230CF4019695958795D4
S1131710B601681B790BC701FF200CF4019695955F
S11317208795A81AB90A01501109A801460F571F35
S1131730C30132DD81E0E81AF108A7014A0D5B1DFF
S1131740B501C30104DDC301FEDC12141304140447
S1131750150494F5EB80FC80812C912C5401CC244D
S1131760C394D12C00E010E0F7018081882349F074
S1131770C601002E02C0880F991F0A94E2F7892B34
S113178029F469817A81C30154DC04C06A8D7B8D9C
S1131790C3014FDC0F5F1F4F0830110529F7FFEF1E
S11317A08F1A9F0AAF0ABF0A8FEFE81AF80A2814A3
S11317B039044A045B04B1F6C3011BDD0F900F909A
S11317C00F900F90DF91CF911F910F91FF90EF90A9
S11317D0DF90CF90BF90AF909F908F907F906F904D
S11317E05F904F903F902F900895EF92FF920F9348
S11317F01F93CF93DF93FC01EA01758364835783BE
S113180046831186108615870487F786E686338714
S11318102287C901861B970BB80102D3718B608B99
S1131820C9018C1B9D0BB701FBD2738B628BDF91BB
S1131830CF911F910F91FF90EF9008950000000049
S1131840E2E0F1E080818860808300000000808114
S1131850877F80830895EF92FF920F931F93CF9316
S1131860DF937C01000000000000E8DF0CE010E0E2
S1131870C0E0D0E0CC0FDD1F65992196C701DEDF03
S113188001501109B9F7C701D9DFC701D7DFC70173
S1131890D5DFCE01DF91CF911F910F91FF90EF9093
S11318A0089582E080936F00E0E8F0E080818C7F0F
S11318B08083E1E8F0E080818F7E8083808188608E
S11318C0808384ED90E390938900809388008081E5
S11318D0836080830895E2E0F1E08081877F8083E4
S11318E00895EF92FF921F93CF93DF937C01162FFD
S11318F0F2DFC8E0D0E0112314F4A59A01C0A59842
S1131900110F0000C7019ADF2197A9F7A598DF916D
S1131910CF911F91FF90EF900895CF93DF93EC0147
S1131920E1E0F1E08081886080839D9A6B9A6D98F4
S11319306C98EC9AEAE6F0E0808184608083789485
S1131940198218821B821A82739A0000000073980D
S11319500000000060E9CE01C4DFCE016FDFCE01DC
S11319607ADF739ADF91CF9108950F931F93CF93EA
S1131970DF93EC01739864990DC060E9B2DFCE0186
S11319806ADF8C0164990BC060EDCE01AADFCE0141
S113199062DF07C000E010E080E090E002C080E079
S11319A090E0998388831B830A83739A0000CE0195
S11319B045DFDF91CF911F910F910895CF93DF936E
S11319C0EC017BD0CE010C9678D0DF91CF910895B5
S11319D00895AF92BF92CF92DF92EF92FF920F934E
S11319E01F93CF93DF93CDB7DEB72C970FB6F89440
S11319F0DEBF0FBECDBF5C01C982DA82EB82FC82FE
S1131A000D831E832F83388749875A876B877C878A
S1131A1054D08501045F1F4FC8014FD08CE0FE01F4
S1131A203196D50101900D928A95E1F78CE0FE0183
S1131A307A96D80101900D928A95E1F72C960FB60B
S1131A40F894DEBF0FBECDBFDF91CF911F910F91F0
S1131A50FF90EF90DF90CF90BF90AF9008950C96D9
S1131A60089508959C018CE0FB01D90101900D9229
S1131A708A95E1F79CE0FB013C96D9011C96019004
S1131A800D929A95E1F70895EF92FF920F931F93A9
S1131A90FC017383628355834483378326831187D0
S1131AA00087D70115968D919C911697938782870D
S1131AB01F910F91FF90EF900895FC011382128201
S1131AC01582148217821682118610861386128656
S1131AD00895FC01738362830895FC017583648314
S1131AE00895FC01778366830895FC0186819781BC
S1131AF00895FC01828193810895FC01848195817C
S1131B000895FC01808591850895FC018285938563
S1131B1008955058BB27AA270ED0E5C0D6D030F080
S1131B20DBD020F031F49F3F11F41EF4CBC00EF44F
S1131B30E095E7FBC1C0E92FE7D080F3BA1762074D
S1131B4073078407950718F071F49EF5FFC00EF42F
S1131B50E0950B2EBA2FA02D0B01B90190010C01B9
S1131B60CA01A0011124FF27591B99F0593F50F4D1
S1131B70503E68F11A16F040A22F232F342F442729
S1131B80585FF3CF469537952795A795F040539521
S1131B90C9F77EF41F16BA0B620B730B840BBAF0F1
S1131BA09150A1F0FF0FBB1F661F771F881FC2F75C
S1131BB00EC0BA0F621F731F841F48F48795779570
S1131BC06795B795F7959E3F08F0B3CF9395880F27
S1131BD008F09927EE0F97958795089504D0689497
S1131BE0B111B5C0089598D088F09F5790F0B92FDF
S1131BF09927B751A0F0D1F0660F771F881F991F5E
S1131C001AF0BA95C9F712C0B13081F09FD0B1E093
S1131C1008959CC0672F782F8827B85F39F0B93FA3
S1131C20CCF3869577956795B395D9F73EF490955F
S1131C308095709561957F4F8F4F9F4F0895E894DD
S1131C4009C097FB3EF490958095709561957F4F00
S1131C508F4F9F4F9923A9F0F92F96E9BB279395AE
S1131C60F695879577956795B795F111F8CFFAF4BE
S1131C70BB0F11F460FF1BC06F5F7F4F8F4F9F4FEF
S1131C8016C0882311F096E911C0772321F09EE84D
S1131C90872F762F05C0662371F096E8862F70E0B3
S1131CA060E02AF09A95660F771F881FDAF7880F8D
S1131CB09695879597F9089597F99F6780E870E05E
S1131CC060E008959FEF80EC089500240A941616AE
S1131CD0170618060906089500240A941216130616
S1131CE0140605060895092E0394000C11F48823A4
S1131CF052F0BB0F40F4BF2B11F460FF04C06F5FC0
S1131D007F4F8F4F9F4F089557FD9058440F551F95
S1131D1059F05F3F71F04795880F97FB991F61F069
S1131D209F3F79F087950895121613061406551FE0
S1131D30F2CF4695F1DF08C0161617061806991F4C
S1131D40F1CF86957105610508940895E894BB2741
S1131D5066277727CB0197F908950BD0C4CFB5DF59
S1131D6028F0BADF18F0952309F0A6CFABCF1124E1
S1131D70EECFCADFA0F3959FD1F3950F50E0551F26
S1131D80629FF001729FBB27F00DB11D639FAA27CC
S1131D90F00DB11DAA1F649F6627B00DA11D661F1B
S1131DA0829F2227B00DA11D621F739FB00DA11D3C
S1131DB0621F839FA00D611D221F749F3327A00DF6
S1131DC0611D231F849F600D211D822F762F6A2F92
S1131DD011249F5750408AF0E1F088234AF0EE0F17
S1131DE0FF1FBB1F661F771F881F91505040A9F724
S1131DF09E3F510570F060CFAACF5F3FECF3983E51
S1131E00DCF3869577956795B795F795E7959F5F8A
S1131E10C1F7FE2B880F911D9695879597F9089524
S1131E2097FB072E16F4009406D077FD08D04ED009
S1131E3007FC05D03EF4909581959F4F08957095C9
S1131E4061957F4F0895A1E21A2EAA1BBB1BFD01C9
S1131E500DC0AA1FBB1FEE1FFF1FA217B307E40785
S1131E60F50720F0A21BB30BE40BF50B661F771FDD
S1131E70881F991F1A9469F76095709580959095BD
S1131E809B01AC01BD01CF01089505D0332312F4A9
S1131E908A1B9B0B10C0A29FB001B39FC001A39FDC
S1131EA0700D811D1124911DB29F700D811D11248F
S1131EB0911D0895F0DFB7FF0895821B930B0895D9
S1131EC0B7FF20C01FD0821B930B0895AA1BBB1B16
S1131ED051E107C0AA1FBB1FA617B70710F0A61B26
S1131EE0B70B881F991F5A95A9F780959095BC0147
S1131EF0CD010895EE0FFF1F881F8BBF0790F69149
S1131F00E02D1994C8DFA59F900DB49F900DA49F58
S10F1F10800D911D11240895F894FFCF5A
S1131F1C07FFFFFC07FFFFFC07FFFFFC07FFFFFCAD
S1131F2C07FFFFFCF8000003F8000003F8000003AF
S1131F3CF8000003F8000003F801F003F801F003C3
S1131F4CF801F003F801F003F801F003F801F003D1
S1131F5CF801F003F801F003F801F003F801F003C1
S1131F6C07C1FFFF07C1FFFF07C1FFFF07C1FFFF49
S1131F7C07C1FFFF0000000000000000000000008B
S1131F8C00000000000000000000007C0000007C49
S1131F9C0000007C0000007C0000007C003E0F83ED
S1131FAC003E0F83003E0F83003E0F83003E0F83E1
S1131FBC003E0F83003E0F83003E0F83003E0F83D1
S1131FCC003E0F83003E0F83003E0F83003E0F83C1
S1131FDC003E0F83003E0F830001FFFF0001FFFF53
S1131FEC0001FFFF0001FFFF0001FFFF00000000E4
S1131FFC00000000000000000000000000000000D1
S113200C003FFFFF003FFFFF003FFFFF003FFFFFCC
S113201C003FFFFF003E0000003E0000003E0000B9
S113202C003E0000003E00000001FF800001FF8024
S113203C0001FF800001FF800001FF80003E0000D2
S113204C003E0000003E0000003E0000003E000088
S113205C0001FFFF0001FFFF0001FFFF0001FFFF74
S113206C0001FFFF00000000000000000000000061
S113207C00000000000000000001FFFC0001FFFC58
S113208C0001FFFC0001FFFC0001FFFC003E0F837C
S113209C003E0F83003E0F83003E0F83003E0F83F0
S11320AC003E0F83003E0F83003E0F83003E0F83E0
S11320BC003E0F83003E0F83003E0F83003E0F83D0
S11320CC003E0F83003E0F830001F0000001F0007E
S11320DC0001F0000001F0000001F000000000001D
S11320EC00000000000000000000000000000000E0
S11320FC00000000000000000000000000000000D0
S113210C00000000000000000000000000000000BF
S113211C00000000000000000000000000000000AF
S113212C000000000000000000000000000000009F
S113213C000000000000000000000000000000008F
S113214C000000000000000000000000000000007F
S113215C000000000000000000000000000000006F
S113216C000000000000000007FFFFFC07FFFFFC5D
S113217C07FFFFFC07FFFFFC07FFFFFCF800000351
S113218CF8000003F8000003F8000003F800000353
S113219CF8000003F8000003F8000003F800000343
S11321ACF8000003F8000003F8000003F800000333
S11321BCF8000003F800000307FFFFFC07FFFFFC17
S11321CC07FFFFFC07FFFFFC07FFFFFC00000000FC
S11321DC00000000000000000000000000000000EF
S11321EC003FFF80003FFF80003FFF80003FFF80E7
S11321FC003FFF800000007C0000007C0000007C9D
S113220C0000007C0000007C0000000300000003C0
S113221C0000000300000003000000030000007C29
S113222C0000007C0000007C0000007C0000007CAE
S113223C003FFF80003FFF80003FFF80003FFF8096
S113224C003FFF80000000000000000000000000C0
S113225C00000000000000000001FFFC0001FFFC76
S113226C0001FFFC0001FFFC0001FFFC003E0F839A
S113227C003E0F83003E0F83003E0F83003E0F830E
S113228C003E0F83003E0F83003E0F83003E0F83FE
S113229C003E0F83003E0F83003E0F83003E0F83EE
S11322AC003E0F83003E0F830001F0000001F0009C
S11322BC0001F0000001F0000001F000000000003B
S11322CC00000000000000000000000000000000FE
S11322DC003E0003003E0003003E0003003E0003EA
S11322EC003E00030001FFFF0001FFFF0001FFFFA0
S11322FC0001FFFF0001FFFF003E0003003E00034E
S113230C003E0003003E0003003E0003003E0000BC
S113231C003E0000003E0000003E0000003E0000B5
S113232C0001F0000001F0000001F0000001F000D9
S113233C0001F00010312C20307830312C0D0A3093
S113234C7830312C20307830312C20307830312CCE
S113235C20307830312C20307830312C20307830CB
S113236C312C20307830312C20307830302C203007
S113237C7830302C20307830302C20307830302CA1
S113238C20307830302C20307830302C203078309D
S10B239C302C203078303000B1
S9030000FC
