S018000047726170686963616C446973706C61792E73726563AB
S113000071C0000079C0000077C0000075C0000016
S113001073C0000071C000006FC000006DC000001C
S11300206BC0000069C0000067C0000065C000002C
S113003063C0000061C000005FC000005DC000003C
S11300405BC0000059C0000057C0000055C000004C
S113005053C0000051C000004FC000004DC000005C
S11300604BC0000049C0000047C0000045C000006C
S113007043C0000041C000003FC000003DC000007C
S11300803BC0000039C0000037C0000035C000008C
S113009033C0000031C000002FC000002DC000009C
S11300A02BC0000029C0000027C0000025C00000AC
S11300B023C0000021C000001FC000001DC00000BC
S11300C01BC0000019C0000017C0000015C00000CC
S11300D013C0000011C000000FC000000DC00000DC
S11300E00BC0000011241FBECFEFD1E2DEBFCDBF95
S11300F000E00CBF10D152C183CF5F9888B9A29899
S11301000000A29A000008955F9A92B988B9A29853
S11301100000A29A0000089589E290E0EECF0895CD
S113012081E190E0EADF8FE39CE90197F1F700C0F9
S11301300000089524B344B381E090E0BC0102C000
S1130140660F771F2A95E2F79B01209530952423AB
S113015024BB7FEF29E638E1715020403040E1F7BD
S113016000C0000034B324B302C0880F991F3A952D
S1130170E2F7822B84BB4FEF68E576E041506040A4
S11301807040E1F700C000000895CF93C82F86E3C4
S113019090E0B3DF8C2F90E0B7DFCF910895CF9339
S11301A0C82F8AE390E0A9DF8C2F90E0ADDFCF91D8
S11301B00895579A8FEF81B987B99A9A999A989A1C
S11301C05F9AA29AA198A09AB5DFAADFA5DF8FE172
S11301D09EE40197F1F700C0000088E0D6DF85E0D7
S11301E0DECF08958CE290E088CF08956F7390E499
S11301F0699FB00111244F71642B8F7190E0982F87
S113020088279295907F862B972B7ECF08950F9306
S11302101F93CF93DF93082FD92F162FC72F8AE26E
S113022090E06BDF8D2F90E06FDF802F9D2F6CDFD0
S11302308C2F90E069DF812F9C2F66DFDF91CF91B7
S11302401F910F9108950F931F93CF93DF93082F5E
S1130250D92F162FC72F8BE290E04FDF8D2F90E020
S113026053DF802F9D2F50DF8C2F90E04DDF812FA7
S11302709C2F4ADFDF91CF911F910F91089580E267
S113028090E03BCF08954F925F926F927F928F924E
S11302909F92AF92BF92CF92EF920F933B014A018C
S11302A05901BA0161507109680F791FCCDFB5019A
S11302B061507109660D771DC301A9DF93DF8A9C24
S11302C020018B9C500C9A9C500C1124612C712C95
S11302D014141504160417048CF4812C912C540165
S11302E04C2D6E2D802F82DF8FEF881A980AA80A72
S11302F0B80A84149504A604B70494F3C0DF0F91DC
S1130300EF90CF90BF90AF909F908F907F906F9021
S11303105F904F9008954DDF0F2EFFE1CF2EF02D0B
S11303200F2EFFE3EF2EF02D0FE120EF30E044E538
S113033051E060E070E080E090E0A5DFC12CE12CAA
S113034024E630E044E650E06CE870E080E090E0C1
S11303509ADF24E630E044E650E060E070E080E0BC
S113036090E091DF24E630E044EB50E060E070E0A0
S11303708CE890E088DF24E630E044EB50E06CE861
S113038070E08CE890E07FDF2FEF83ED90E3215065
S113039080409040E1F700C00000F6CFF894FFCF12
S9030000FC
